:020000040800F2
:1000000060130020C1010008B31F00087B1B00081B
:10001000B11F0008A9030008C12300080000000068
:10002000000000000000000000000000B71F0008F2
:10003000CD04000800000000B51F0008B91F00082B
:10004000DB010008DB010008DB010008DB01000820
:10005000DB010008DB010008DB010008DB01000810
:10006000DB010008DB010008DB010008DB01000800
:10007000DB010008DB010008DB010008DB010008F0
:10008000DB010008DB010008DB010008DB010008E0
:10009000DB010008DB010008DB010008DB010008D0
:1000A000DB010008DB010008DB010008DB010008C0
:1000B000DB010008DB010008DB010008DB010008B0
:1000C000DB010008DB010008DB010008DB010008A0
:1000D000DB010008DB010008DB010008DB01000890
:1000E000DB010008DB010008DB010008DB01000880
:1000F000DB010008DB010008DB010008DB01000870
:10010000DB010008DB010008DB010008DB0100085F
:10011000DB010008DB010008DB010008DB0100084F
:10012000DB010008DB010008DB010008DB0100083F
:10013000DB010008DB010008DB010008DB0100082F
:10014000DB010008DB010008DB010008DB0100081F
:10015000DB010008DB010008DB010008DB0100080F
:10016000DB010008DB010008DB010008DB010008FF
:10017000DB010008DB010008DB01000800000000D3
:10018000DB010008DB010008DB010008DB010008DF
:10019000DB010008DB010008DB010008DB010008CF
:1001A0007D1B0008DB010008AD030008DFF80CD060
:1001B00000F08CF800480047A128000860130020D8
:1001C0000648804706480047FEE7FEE7FEE7FEE7F1
:1001D000FEE7FEE7FEE7FEE7FEE7FEE75D2000083C
:1001E000AD0100082DE9F05F0546002092469B46D0
:1001F00088460646814640241BE02846414647463D
:10020000224600F053F853465A46C01A914110D383
:1002100011461846224600F03AF82D1A67EB0108FD
:100220004F4622460120002100F031F817EB00096B
:100230004E41201EA4F10104DFDC484631462A4627
:100240004346BDE8F09F40EA01039B0703D009E065
:1002500008C9121F08C0042AFAD203E011F8013BB2
:1002600000F8013B521EF9D27047D2B201E000F80B
:10027000012B491EFBD270470022F6E710B513464A
:100280000A4604461946FFF7F0FF204610BD202A13
:1002900004DB203A00FA02F1002070479140C2F1DD
:1002A000200320FA03F3194390407047202A04DB0F
:1002B000203A21FA02F00021704721FA02F3D040DF
:1002C000C2F120029140084319467047064C074D81
:1002D00006E0E06840F0010394E807009847103416
:1002E000AC42F6D3FFF766FFFCE20B081CE30B08F9
:1002F0002DE9F8431C4C0026012708250096C4E987
:100300000075C4E9027681464FF6FF7842462146E1
:10031000164801F023FB012000F026FB0220E660D6
:1003200084E8A10042462146104801F017FB032053
:10033000C4E90005C4E90256424621460B4801F0D3
:100340000DFB4FF408700090C4E902700421C4E969
:10035000001542462146054801F000FB4946BDE82C
:10036000F843024801F0C9BAE4000020440E00201E
:1003700013460A4610B50146034801F0CFFA00289B
:1003800000D0012010BD0000440E002013460A4694
:1003900010B50146034801F0F9FA002800D0012009
:1003A00010BD0000440E0020FEE70000014800F0F0
:1003B00075B90000040E0020F0B50468059E656C58
:1003C00046EA034305F040451D4365640368DA636C
:1003D0004268B2F5403F02D00068C160F0BD01F450
:1003E0007F4201F47F0C866801F07F4301F47F07B0
:1003F00001F47F45CCB242EA0C02BEB1012E16D008
:1004000001F47F02D20CC1F3C401022E11D0032EDD
:1004100014D0190F3A0D2D0B23092C0144EA0222A6
:1004200042EA01321A4300688263F0BD1A43224354
:10043000F9E7AB0A5B0143EAC22206E0DB0FEC0AF4
:10044000640144EA822242EAC3320A43EBE7000035
:1004500001681823CAB2103AB2FBF3F2054B6FF3EE
:100460000901032A9B5CC36500D9091D8165084603
:1004700070470000DCE20B0810B5014600208B69D4
:100480008A6A4FF0C07453B1B3F5005F15D072B1F2
:10049000012A0CD0022A0AD0032A09D104E01AB199
:1004A000012A06D0022A03D1C96AC90100D5012058
:1004B00010BDC96AA142FAD010BD002AF7D0012AA6
:1004C000F2D0022AF3D0032AF3D010BD7047704750
:1004D00030B5D1E901231A43D1E903352B431A433F
:1004E0004B690C681A438B691A43D1E90735012C13
:1004F000496A046807D01A432A436FF30E040A437B
:10050000224302600AE024F4F8442B4321430B43C6
:10051000416803606FF30E010A434260002030BD62
:10052000426942EA4101416100207047F8B5144632
:100530000546D1E9000210438A686FF01F03C968BD
:1005400003EB421242EA412108430090286100F087
:100550007BFB064609E0601C07D024B100F074FB69
:10056000801BA04201D90320F8BDA8698006F2D4FF
:100570000020F8BDF0B56FF00F05D1E9003405EBB0
:1005800004145B1E23432E018C682F0306EB042406
:1005900023434FEA054C0C8A8E8ACD68097E4FF0C2
:1005A0007F4E07EB04440CEB06560EEB0161012A6B
:1005B0000CD082683F1107EB05352B4323433343AF
:1005C00002F070420B43134383600FE08768084AD0
:1005D00017402A03A2F580523243C5683A432343A9
:1005E00005F070450B432B438260C3600020F0BDD3
:1005F000FF0F0FFF7047000070B590F83820012AF8
:1006000024D0012680F83860022280F8392000EBDF
:100610000112148CD369183243EA04451E4C0A2B8C
:1006200016D0092B14D0137B45EA03630029016817
:1006300013D0CD69A5431D43CD61036811681961CD
:1006400051680A291BD0092919D01DE0022070BD6C
:10065000D36803F07F432B43E8E74D6AA5431D436E
:100660004D6203681168996151680A2901D009290E
:100670000AD1D168026821F07F41916204E0D1681B
:10068000026821F07F41116280F83960002180F812
:100690003810084670BD00000F0003FF2DE9F04739
:1006A0000446006846680568F1074FF004084FF0FB
:1006B00000074FF0010914D0E90512D5016821F4B3
:1006C00080710160E06B40F00100E0632168C1F8D7
:1006D000089084F8398084F83870616909B120463F
:1006E0008847B00615D5A80413D52068016821F401
:1006F00000510160216820208860E06B40F002001A
:10070000E06384F8398084F83870616909B1204663
:100710008847300715D5280513D52068016821F4CE
:1007200000610160216808208860E06B40F00400EF
:10073000E06384F8398084F83870616909B1204633
:10074000884770070CD568050AD52068016821F430
:10075000806101602168C1F80880204600F05AF8E5
:10076000B00713D5A80511D52068016821F40071E0
:100770000160216802208860E06BE06384F83990B2
:1007800084F83870216909B120468847F00612D5EF
:10079000E80410D52068016821F4805101602168C7
:1007A00010208860E06BE06384F8399084F838703A
:1007B0002046FFF71FFFBDE8F08770B5040004D0A6
:1007C00094F83900002510B106E0012070BD84F8CE
:1007D0003850204600F020F8022084F839002068C4
:1007E0000168626821F44031114301602068416B67
:1007F000A26821F00701114341632068016CE2689F
:100800006FF30D0111430164E563012084F83900A1
:10081000002070BD7047000008B500680B49884291
:1008200012D10B48016841F4000101600068002208
:1008300000F40000009011465A2000F03FFCBDE893
:1008400008405A2000F02CBC08BD000000B0024057
:100850003038024038B50446049894F83850012DD9
:1008600015D0012584F83850022584F839500090BD
:100870002046FFF7A1FD2068016841F40C5101609A
:100880002068016841F001010160002038BD0220AC
:1008900038BD00002DE9F041044600F0D5F90646C8
:1008A0005CB1002584F83450022084F835002068BB
:1008B000016821F0010101600DE00120BDE8F08137
:1008C00000F0C2F9801B052805D9202060650320AF
:1008D00084F83500F2E720680068C007F0D122688C
:1008E000116820480140D4E901031843D4E90336D4
:1008F0003343184363691843A3691843E3691843F2
:10090000236A18430843616A042903D1D4E90B130D
:1009100019430843106020684069666A20F00701A7
:1009200030460E43012704280CD1A06A0643E06A32
:1009300040B12046FFF7A0FD20B14020606584F85B
:100940003570BAE7206846612046FFF781FD94F8CC
:100950005C203F2191408160656584F835700020FE
:10096000ACE700003F8010F070B5044600F06CF971
:100970000546601C02D004480078044400F064F985
:10098000401BA042FAD370BD100000202DE9F041B9
:1009900086B014216846FFF76FFC2B4801680029D8
:1009A0004FD14FF00108C0F80080284800240168AA
:1009B00041F0010101600068022500F0010005908E
:1009C0004FF63F00CDE9000502AA03260C2782E876
:1009D000D00069461E4800F047F802AA694682E83E
:1009E000D000CDE900851B4800F03EF848F23310F6
:1009F000CDE9000502AA694682E8D000164800F059
:100A000033F84FF68370CDE9000502AA694682E803
:100A1000D000124800F028F8C020CDE9000502AA55
:100A2000694682E8D0000E4800F01EF84CF20370D0
:100A3000CDE9000502AA694682E8D000094800F025
:100A400013F806B0BDE8F0810800002038380240F5
:100A5000001402400008024000180240001002404A
:100A6000001C0240000C02402DE9F84FDFF890B165
:100A700000224FF001084FF0030A4FF00F090BF16D
:100A8000040E00BF0B6808FA02F42340A3426ED1A3
:100A90004D68022D01D0122D0ED1D50800EB850C2A
:100AA000DCF820505607F70E09FA07F6B5430E6931
:100AB000BE402E43CCF82060066855000F790AFA34
:100AC00005FC07F0030726EA0C06AF403743076032
:100AD0004E68012E05D0022E03D0112E01D0122E09
:100AE0000ED18768CE6827EA0C07AE403E43866089
:100AF0004668A6430C79C4F3001494403443446020
:100B0000C4688E6824EA0C04AE402643C6604C6874
:100B1000E4006FD53B4C256845F48045256024688A
:100B200022F0030504F480440094374C2E19D6F8C3
:100B3000084895072F0F09FA07F5AC43334DA84233
:100B400001D100252EE0324DA84201D1012529E036
:100B5000304DA84201D1022524E02F4DA84201D1F9
:100B600003251FE02D4DA84202D104251AE041E0E3
:100B70002B4DA84201D1052514E02A4DA84201D1F0
:100B800006250FE0284DA84201D107250AE0274D90
:100B9000A84201D1082505E0254DA84201D109252B
:100BA00000E00A25BD402543C6F80858DBF80040A0
:100BB0005D464E689C43F60300D51C432C60DEF86E
:100BC000004075464E689C43B60300D51C432C601C
:100BD0000B4D08352C684E689C43F60200D51C432B
:100BE0002C60074D0C352C684E689C43B60200D52E
:100BF0001C432C60521C102AFFF444AFBDE8F88F50
:100C0000003C0140443802400030014000000240F6
:100C10000004024000080240000C024000100240A4
:100C20000014024000180240001C02400020024054
:100C3000002402400069084000D0012070470AB13A
:100C4000816170470904FBE7014880687047000034
:100C500010000020024881680278114481607047CA
:100C6000100000200B4810B5016841F400710160CC
:100C7000016841F480610160016841F480710160A4
:100C8000032000F03BFA002000F006F800F0F0F935
:100C9000002010BD003C024070B50D4D04464FF4DD
:100CA0007A712878B1FBF0F00A490968B1FBF0F0DD
:100CB00000F08BFE48B9102C07D200222146501EAE
:100CC00000F0FCF900206C6070BD012070BD0000D8
:100CD000100000201C0000202DE9F041044690F88F
:100CE000A00016460F4601281DD0012584F8A0500B
:100CF000022084F8A10006EB860000EBC60004EB9E
:100D0000800034223830FFF79EFA324639462046BA
:100D100000F03AFF2068456284F8A150002084F872
:100D2000A000BDE8F0810220FBE770472DE9F0410B
:100D300004460068856B466B69074FF004084FF066
:100D4000000715D5710713D5416B21F004014163EC
:100D50002168C1F83C80D4F8A41041F00101C4F826
:100D6000A41084F8A18084F8A0702046FFF7DDFF6E
:100D7000A80716D5B00714D52068416B21F00201F1
:100D8000416321680220C863D4F8A40040F0020047
:100D9000C4F8A40084F8A18084F8A0702046FFF76E
:100DA000C4FF05EA0600C0074FF001080ED0206816
:100DB000416B21F0010141632168C1F83C8084F856
:100DC000A18084F8A070204600F090F8280710D584
:100DD00030070ED52068416B21F00801416321687E
:100DE0000820C86384F8A18084F8A070204600F031
:100DF0003DF9BDE8F081000070B5040004D094F81E
:100E0000A100002510B106E0012070BD84F8A050BB
:100E1000204600F06DF8022084F8A1002068816966
:100E200021F070418161D4E901010843D4E9031242
:100E30001143084321688A691043886121688A68E0
:100E4000294802408A60A18A0A0421688B68A66941
:100E5000334313438B602168CA680240CA60A18B88
:100E60000B042168CA68266A32431A43CA602168A3
:100E70000A6902400A61A18C22680B041169A66A02
:100E800031431943116121684A6902404A61A08DCA
:100E9000010420684269236B1A430A43426194F8B3
:100EA00035002168020294F83600CB6A03F07F43D4
:100EB000CB622168CB6A94F8346042EA0040334345
:100EC0000343CB622068416B41F006014163206817
:100ED000816941F001018161C4F8A450012084F8C6
:100EE000A100002070BD000000F800F07047000075
:100EF000F0B587B0044614216846FFF7BDF95249A2
:100F0000206888427DD151480025016841F0806108
:100F10000160006800F0806005904C48143801685A
:100F200041F480710160016801F4807105910168EC
:100F300041F020010160016801F020010591016884
:100F400041F001010160016801F0010105910168B2
:100F500041F002010160016801F0020105910168A0
:100F600041F080010160016801F080010591016894
:100F700041F040010160016801F040010591016804
:100F800041F0040101600068022400F004000590B3
:100F900040F214608DE831000E26CDE90346694623
:100FA0002B48FFF761FD60028DE83100CDE9034673
:100FB00069462848FFF758FD48208DE83100CDE903
:100FC000034669462448FFF74FFD03208DE83100B2
:100FD0000920CDE90340214F69463846FFF744FD1B
:100FE0004FF470608DE83100CDE90346694638461C
:100FF000FFF73AFD4FF498408DE8310069461848F4
:1010000000E01EE0CDE90346FFF72EFD4FF40C6033
:101010008DE83100CDE9034669461248FFF724FD0B
:1010200080208DE83100CDE9034669460E48FFF780
:101030001BFD00221146582000F040F8582000F017
:101040002FF807B0F0BD00000068014044380240AE
:101050000020024000140240000002400004024050
:10106000001C0240001802400008024070470000C7
:101070000A4808B5016841F480410160006800F445
:10108000804000900548001F016841F080510160D8
:10109000006800F08050009008BD00004438024015
:1010A000002809DB00F01F02012191404009800067
:1010B00000F1E020C0F8001170470000F0B40E4BC2
:1010C0001B680C46C3F30223C3F10705042D00D9A6
:1010D0000425191D072901D2002300E0DB1E01268B
:1010E00006FA05F1491E214099409E40761E1640A1
:1010F0003143F0BC01F076B90CED00E0064900F098
:10110000070208684FF6FF03184040EA0220034A2E
:1011100010430860704700000CED00E00000FA0585
:101120002DE9F8431748016841F0805101600068DB
:10113000154F00F08050012600903E64FFF784FDBB
:1011400005464FF47A78114C05E000BFFFF77CFDAF
:10115000401B40450DD86068C003F7D57E64FFF79B
:1011600073FD0546464607E0FFF76EFD401BB042A3
:1011700002D90320BDE8F88360688003F4D500201D
:10118000F8E700004038024000000E4200700040C6
:101190002DE9F84F04460068DFF804A2814F824D24
:1011A000C1074FF001084FF0000601D180073CD580
:1011B000CAF86860FFF748FD814605E0FFF744FD87
:1011C000A0EB0900022878D828680001F6D420781E
:1011D000C107764805D06168227A890141EA027127
:1011E00001602178890711D501686268237B92012B
:1011F000C1F3027142EA036242EA01710160386898
:10120000E16920F01F00491E08433860CAF8688071
:10121000FFF71AFD814605E0FFF716FDA0EB090078
:1012200002284AD828680001F6D52068410701D471
:1012300000074CD5CAF87060FFF706FD814605E04F
:10124000FFF702FDA0EB0900022836D82868C0434A
:101250008000F5D520784107554814D501682269EA
:10126000237D9201C1F3027142EA036242EA0171F5
:1012700001603968226A6FF0FF0321F4F85103EB33
:101280000222114339602178090710D501682269CB
:10129000C1F30361920142EA0161227E41EA0271D7
:1012A00001603868616A20F4403008433860CAF849
:1012B0007080FFF7C9FC074605E048E0FFF7C4FC73
:1012C000C01B022843D82868C0438000F6D4207889
:1012D000800653D534484030016841F080510160A8
:1012E0000068344D00F080500090286840F4807011
:1012F0002860FFF7A9FC074605E000BFFFF7A4FC44
:10130000C01B022823D82868C005F7D5274D143DF7
:10131000286810F4407020D0218D01F44071814282
:101320001BD02868244920F44070C1F800800E606A
:1013300028602868C00710D0FFF786FC064641F2F7
:10134000883707E0FFF780FC801BB84202D90320F2
:10135000BDE8F88F28688007F4D5A16A1248C1F368
:1013600001220830032A13D0016821F4F81101602A
:101370002868218DC1F30B01084328602078C0063E
:1013800004D50E4994F82C00C1F8E0010020DFE7F5
:1013900002680B4B22F4F81219400A430260E7E797
:1013A000000047428C380240003802408438024036
:1013B0008838024000700040400E4742001047420B
:1013C000FFFCFF0F2DE9F0470E46050065D0DFF862
:1013D0001481D8F80000F7B200F00F00B04207D235
:1013E00088F80070D8F8000000F00F00B04254D127
:1013F00028683D4C810712D5400703D5206840F48A
:10140000E05020602878000703D5206840F4604051
:1014100020602068A96820F0F00008432060287848
:10142000C0072DD0304968680839012812D0022839
:1014300013D0032811D00968890700292DDA216803
:1014400021F0030101432160FFF7FEFB814641F2D9
:10145000883A0EE009688903EFE709688901ECE73B
:10146000FFF7F2FBA0EB0901514502D90320BDE8CB
:10147000F0872068696800F00C00B0EB810FEFD1B5
:10148000D8F80010404601F00F01B14207D90770AB
:10149000006800F00F00B04201D00120E7E7287893
:1014A000400705D52068E96820F4E0500843206033
:1014B0002878000706D52068296920F4604040EAB2
:1014C000C100206000F036F82168084AC1F303111A
:1014D000515CC840064908600020FFF7DDFB002092
:1014E000C5E70000003C024008380240E4E20B0877
:1014F0001C0000200448054900680968044AC1F33B
:101500008221515CC84070471C000020083802400E
:10151000F4E20B080448054900680968044AC1F36D
:101520004231515CC84070471C000020083802401E
:10153000F4E20B08154810B5006810F00C021448CE
:1015400013D01449042A0FD0082A0ED10F4C241F9F
:101550002268236802F03F025B0207D52068C0F3CF
:101560008810A0FB010106E0084610BD2168C1F308
:101570008811A1FB00010023FEF734FE2168C1F3AE
:101580000141491C4900B0FBF1F010BD0838024090
:101590000024F40040787D012DE9F84F050076D055
:1015A0002878DFF8F8B2BE4CC00749D0DBF800104D
:1015B0005846C1F38101012908D00068C0F38100B9
:1015C00002280AD1201D0068400206D52068800349
:1015D00036D568680028E2D032E06868B0F5803F10
:1015E00010D0B0F5A02F206810D020F480302060FB
:1015F000206820F4802020606868A0B1FFF724FBF9
:1016000006460CE0206840F48030F4E740F4802087
:101610002060F7E7FFF718FB801B642873D8206869
:101620008003F7D50CE0FFF70FFB064605E000BF8F
:10163000FFF70AFB801B6428F0D820688003F7D4EA
:101640002878DFF8608280074FF000093ED5DBF88C
:101650000010584611F00C0F09D00068C0F381004B
:1016600002280BD18D48001F0068400206D4206874
:10167000800715D5E868012809D111E0E868B8B1FC
:101680000120C8F80000FFF7DFFA064605E002E196
:10169000FFF7DAFA801B0228C0D820688007F7D548
:1016A0002068296920F0F80040EAC10020600DE0C0
:1016B000C8F80090FFF7C8FA064604E0FFF7C4FA3E
:1016C000801B02281FD820688007F7D428780007DD
:1016D00022D5724E744869696C3671B1012101607E
:1016E000FFF7B2FA074604E0FFF7AEFAC01B022884
:1016F00009D830688007F7D50EE0C0F80090FFF7F2
:10170000A3FA074605E083E0FFF79EFAC01B022814
:101710007ED830688007F7D42878400768D5DFF88E
:101720007CA100270AF1380ADAF80000C0000BD4C7
:10173000DAF8001041F08051CAF80010DAF8000021
:10174000012700F080500090584E3068C00510D43A
:10175000306840F480703060FFF776FA009005E062
:10176000FFF772FA0099401A022851D83068C00574
:10177000F6D54A4EA868683601280FD0052830688B
:1017800010D020F001003060306820F0040030609C
:10179000A868B8B1FFF758FA00900FE0306840F041
:1017A0000100F4E740F004003060F7E7FFF74CFA7F
:1017B0000099411A41F28830814264D8306880072C
:1017C000F4D50EE0FFF740FA009007E0FFF73CFA8F
:1017D0000099411A41F28830814254D8306880071C
:1017E000F4D42FB1DAF8001021F08051CAF80010BB
:1017F000A869C0B3DBF80010C1F3810102294AD007
:101800000228484607D0C8F86000FFF71DFA00E03C
:1018100039E005463AE04746C8F86000FFF714FA99
:10182000064604E0FFF710FA801B02282BD8206838
:101830008001F7D4D5E907010843A96A1C4A490881
:1018400002EB01416A6A41EA8211084395F82C10C3
:1018500040EA01611148001F016001203866FFF76E
:10186000F3F9054605E014E0FFF7EEF9401B022806
:1018700009D820688001F7D50BE000BFFFF7E4F935
:10188000401B022802D90320BDE8F88F20688001A0
:10189000F4D40020F8E70120F6E700000838024001
:1018A0000038024000004742800E4742007000406E
:1018B0000000FFFF70B50D46040003D094F82C0023
:1018C00010B107E0012070BD002084F82D002046F3
:1018D00000F011F8022084F82C00211D2068FEF78A
:1018E000F7FDD4E900022946FEF744FE012084F802
:1018F0002C00002070BDFFF749B810B5044690F8E1
:101900002C00022809D0022084F82C002068FEF761
:1019100007FE012084F82C00002010BD10B590F8BF
:101920002D40012C0BD0012480F82D4090F82C4044
:10193000022C04D090F82C40052C02D003E00220A9
:1019400010BD012010BD1BB110C95B1E10C2FAE70B
:10195000002180F82D10084610BD000070B5044627
:1019600090F82C000D4602280DD0022084F82C009F
:101970002068FEF7DBFD2868022805D05FF0010033
:1019800084F82C00002070BD0520F9E710B590F810
:101990002D40012C0BD0012480F82D4090F82C40D4
:1019A000022C04D0052C04D0042C02D003E0022029
:1019B00010BD012010BD1BB110CA10C15B1EFAE79B
:1019C000002180F82D10084610BD10B5401EB0F162
:1019D000807F01D3012010BD4FF0E02460610F2112
:1019E000601700F0FFFC0020A061072020610020AC
:1019F00010BD70B5040004D094F83900002510B172
:101A000006E0012070BD84F83850204600F022F82E
:101A1000242084F839002068C16821F40051C16095
:101A2000204600F045FB2068016921F490410161E6
:101A30002068416921F02A0141612068C16841F4B0
:101A40000051C160E563202084F8390084F83A0031
:101A5000002070BD10B586B0044614216846FEF71C
:101A60000BFC14492068884221D11348016841F0D9
:101A700010010160006800F0100005900E48143855
:101A8000016841F0010101600068694600F0010051
:101A900005904FF4C0600090022001900120029058
:101AA00003200390072004900448FEF7DDFF06B0F2
:101AB00010BD000000100140443802400000024008
:101AC0002DE9F843044690F839001F4616460D46A6
:101AD000202850D1A5B19EB194F8380001284AD0F1
:101AE000012084F838004FF00008C4F83C80212021
:101AF00084F83900FFF7A8F8A6848146E68426E03A
:101B00000120BDE8F883E08C401EE084A0684B46CD
:101B1000B0F5805F4FF000024FF080012046009743
:101B200003D000F01BFCE8B90DE000F017FCC8B9C9
:101B300028882168C0F308004860206908B16D1C3E
:101B400005E0AD1C03E0216815F8010B4860E08C4E
:101B50000028D8D14B46002240212046009700F0B3
:101B6000FDFB08B10320CCE7202084F8390084F87D
:101B700038800020C5E70220C3E7FEE70148FFF7F1
:101B8000D5B80000780E0020F0B503688C88DD68B9
:101B9000C5F30B452C442504882404EBC2141E59BC
:101BA00006F470461E5103680F68DE68C6F30B46E4
:101BB000761C3E442E431E5104688B89E568C5F3AC
:101BC0000A052B441D048C2303EBC213E65806F4CC
:101BD0007046E65004688F68E668C6F30A06761C0D
:101BE0003E442E43E6509423046803EBC213E558A9
:101BF00025F00705E55005680C69EC5091F8313087
:101C00000C7E1F0226069C24056804EBC21491F882
:101C1000323055F804C04FF0000C45F804C091F87C
:101C2000305046EA03433D431D4303681D5198234A
:101C3000046803EBC213E55825F0FF05E55005687D
:101C40004C69EC50A023046803EBC213E55840F242
:101C50000776B543E550D1E907452C430568EC50BC
:101C6000AC23046803EBC213E55844F803C00568CD
:101C70004C6AEC500B698BB3012B32D0042B32D061
:101C8000022B30D0032B2ED0072B2CD00123B024D5
:101C9000056804EBC2142E5906F0E0262E51D1E956
:101CA0000065AD1B0E8D5D435E43ED1C45EA0643AA
:101CB00005682B51B423046803EBC213E5586FF396
:101CC0000A05E5500468C96AE1500068842101EB07
:101CD000C211425842F001024250F0BDFFE7042316
:101CE000D5E70323D3E70223D1E700000F4810B55F
:101CF0000D49016000210222C0E90112C160C0E962
:101D00000A1201634163FEF758FD08B1FEF7DFFBDD
:101D100001210648FEF770FC002803D0BDE8104002
:101D2000FEF7D5BB10BD000000B00240040E00203D
:101D3000144808B50268002142F48002026000687D
:101D4000114A00F4800000901048C0E90021802270
:101D500082609200C2605200026192004261920071
:101D6000C0E906210422C0E908120322C0E90A21C1
:101D70000163FEF78FFD002803D0BDE80840FEF7A1
:101D8000A6BB08BD3038024010640240A40D0020FC
:101D900000B587B01C216846FEF76EFA1548144955
:101DA00004220160012141600021C0E902121022D9
:101DB0000261402242619200C0E90621D200C0E9DE
:101DC0000821816202200821CDE90001052102914C
:101DD0000721CDE9031005900320069069460548C8
:101DE000FFF768FD002801D0FEF771FB07B000BDCA
:101DF000400100A0440E002030B587B01421684691
:101E0000FEF73AFA2E480024016841F4807101601F
:101E1000016801F480710591016841F020010160C1
:101E2000016801F020010591016841F08001016025
:101E3000016801F080010591016841F00401016031
:101E4000016801F004010591016841F001010160A0
:101E5000016801F001010591016841F00201016092
:101E6000016801F002010591016841F04001016043
:101E7000016801F040010591016841F01001016025
:101E8000016801F010010591016841F0080101604D
:101E900000680C4D00F008000590012280212846C2
:101EA000FEF7CDFE802000900120CDE90104022044
:101EB000039069462846FEF7D7FD07B030BD000005
:101EC00030380240000C024030B58DB034216846F5
:101ED000FEF7D2F9274826490024C0E9001484609F
:101EE0001321C460C0E9044102259F21C0E90651C5
:101EF0001621016240F2BF3141624FF4FB718162F1
:101F000040F25F41C16240F20221016380F8344037
:101F100080F8354080F83640FEF76EFF08B1FEF7D6
:101F2000D6FA4FF448704FF4F071CDE90040CDE996
:101F30000241FF220495CDE905244FF48062079207
:101F4000052208924FF05042CDE90A018DF8304049
:101F500009928DF831408DF83240002269460548DB
:101F6000FEF7BAFE002801D0FEF7B1FA0DB030BD81
:101F700000680140780E00200C4810B50A49016045
:101F80004FF4E1314160002181600C22C160C0E961
:101F900004128161C161FFF72CFD002803D0BDE868
:101FA0001040FEF794BA10BD00100140200F002031
:101FB000FEE7704770477047FEF74CBE70B59EB0A5
:101FC00030216846FEF758F9142118A8FEF754F995
:101FD00030210CA8FEF750F91E480025016841F099
:101FE00080510160006800F080501D901A4801681F
:101FF00041F4404101600068022400F440401D901B
:1020000001200090000401908001CDE906400F26D8
:102010000896D820CDE9090404200B906846FFF704
:10202000BBFAFFF77DF84FF4A050CDE91A50E0025B
:10203000CDE918641C90052118A8FFF7C3F9082002
:102040000C903C201595109012940CA8FFF7A0F866
:102050001EB070BD4038024000700040104801685A
:1020600041F4700101600F48016841F00101016015
:102070000C4A00210832116002680B4B1A400260C2
:10208000031D0A4A1A60026822F480220260054891
:102090000C30016002495806803908607047000022
:1020A00088ED00E000380240FFFFF6FE103000240B
:1020B0002DE9F041044600680169E26821F44051CD
:1020C000114301612169A068E26908436169114314
:1020D00022680843D16849F20C6399430143D160F7
:1020E00020684169A26921F4407111434161E269AC
:1020F0006425B2F5004F9748974922684FF032089F
:102100003FD08A4201D082427CD1FFF703FA00EB34
:10211000C00101EB001061688900B0FBF1F6FFF728
:10212000F9F900EBC00101EB001061688900B0FB18
:10213000F1F0B0FBF5F06FF01801484306EB8001B9
:1021400008EB0110B0FBF5F000F0F006FFF7E2F944
:1021500000EBC00101EB001061688900B0FBF1F0F9
:10216000B0FBF5F006EB0016FFF7D4F900EBC00169
:1021700001EB001061688900B0FBF1F7FFF7CAF9C5
:10218000D2E08A4201D082423DD1FFF7C3F900EB91
:10219000C00101EB001061684900B0FBF1F0B0FB39
:1021A000F5F00601FFF7B6F900EBC00101EB0010F6
:1021B00061684900B0FBF1F7FFF7ACF900EBC00133
:1021C00001EB001061684900B0FBF1F0B0FBF5F0E5
:1021D0006FF01801484307EB800108EBC100B0FB2A
:1021E000F5F000F0F80006EB4006FFF793F900EB7E
:1021F000C00101EB001061684900B0FBF1F7FFF787
:1022000089F93CE055E0FFF775F900EBC00101EBFF
:10221000001061684900B0FBF1F0B0FBF5F0060179
:10222000FFF768F900EBC00101EB0010616849009D
:10223000B0FBF1F7FFF75EF900EBC00101EB001016
:1022400061684900B0FBF1F0B0FBF5F06FF01801E8
:10225000484307EB800108EBC100B0FBF5F000F04C
:10226000F80006EB4006FFF745F900EBC00101EB73
:10227000001061684900B0FBF1F7FFF73BF900EB94
:10228000C00101EB001061684900B0FBF1F0B0FB48
:10229000F5F06FF01801484307EB800108EBC1002F
:1022A000B0FBF5F000F00700216830448860BDE81D
:1022B000F081FFF71FF900EBC00101EB001061682E
:1022C0008900B0FBF1F6FFF715F900EBC00101EB57
:1022D000001061688900B0FBF1F0B0FBF5F06FF021
:1022E0001801484306EB800108EB0110B0FBF5F044
:1022F00000F0F006FFF7FEF800EBC00101EB001064
:1023000061688900B0FBF1F0B0FBF5F006EB001658
:10231000FFF7F0F800EBC00101EB001061688900E5
:10232000B0FBF1F7FFF7E6F800EBC00101EB00109E
:1023300061688900B0FBF1F0B0FBF5F06FF01801B7
:10234000484307EB800108EB0110B0FBF5F000F00B
:102350000F00A9E700140140001001402DE9F041F1
:10236000984617460E460446069D1DE0681C1BD085
:102370002DB1FEF769FCA0EB0800A84214D9206833
:10238000C16821F4D071C1602068416921F0010168
:102390004161202084F8390084F83A00002084F854
:1023A00038000320BDE8F0812068006836EA0000AC
:1023B00004D00020B842D9D00020F3E70120F9E78B
:1023C000FEE700000FB4054B10B503A9044A0298BC
:1023D00000F028F810BC5DF814FB00008928000804
:1023E000200000200907090E002804DB00F1E0208E
:1023F00080F80014704700F00F0000F1E02080F832
:10240000141D704702E008C8121F08C1002AFAD143
:1024100070477047002001E001C1121F002AFBD164
:10242000704700002DE9FF4F8DB00F46054600268E
:1024300006E025280BD0DDE90F1290476D1C761CB5
:1024400028780028F5D111B03046BDE8F08F00247F
:10245000A246A1460122EC4900E0044315F8013FE1
:10246000203B02FA03F00842F7D128782A2810D03E
:102470006FF02F022878A0F13001092914D80AEB57
:102480008A0102EB410144F0020400EB010A6D1CD9
:10249000F0E701CF5FEA000A03D544F40054CAF123
:1024A000000A44F002046D1C28782E2817D115F874
:1024B000010F44F004042A280ED06FF02F02287870
:1024C000A0F1300109290AD809EB890102EB410189
:1024D00000EB01096D1CF2E757F8049B6D1C28788E
:1024E0006C280FD006DC4C2817D068280DD06A283D
:1024F00014D104E0742810D07A280FD10DE044F4F0
:1025000000140AE044F4801401E044F440146978B3
:10251000814202D104F580146D1C6D1C2A786E2A4C
:102520001FD00CDC632A31D004DC002A8BD0582A5F
:1025300011D1A3E0642A68D0692A0CD165E0732A1E
:102540002ED004DC6F2A73D0702A04D19BE0752A48
:102550006FD0782A6ED01046DDE90F129047761CB6
:1025600050E1C4F30250022806D0032809D0042801
:1025700001CF09D0066045E101CFF117C0E9006144
:1025800040E101CF06803DE106703BE117F8040B06
:102590008DF8000000208DF80100EB46012003E0DB
:1025A00057F804BB4FF0FF3061074FF0000102D431
:1025B0000DE008F10101884649450FDA8045F8DB56
:1025C0001BF808100029F4D108E008F10101884641
:1025D0008142FADB1BF808100029F6D1DDE90F2350
:1025E000AAEB08008146214600F036F9304400EBA2
:1025F000080604E0DDE90F121BF8010B9047B8F163
:102600000108F7D221464846F7E00A21C4F30253F5
:102610004FF0000B0891022B04D001CFC117032B00
:1026200009D00AE0FF1D27F00707F7E8020108E0DC
:1026300032E01FE020E000B2C117042B01D140B20C
:10264000C117031E71F1000307DA4FF0000CD0EB45
:102650000C006CEB01012D2302E0230504D52B2394
:102660008DF82430012303E0E30701D02023F7E7AE
:10267000984658E00A2110E010210EE010204FF09B
:10268000000B08900CE010214FF0000B44F0040404
:102690004FF00809089103E008214FF0000B089162
:1026A000C4F30253022B04D001CF0021032B06D028
:1026B00006E0FF1D27F00707F7E8020103E080B2FC
:1026C000042B00D1C0B24FF0000823072BD5702A8D
:1026D00007D0DDF820C08CF0100C5CEA0B0C05D0A4
:1026E0000EE040238DF82430012308E050EA010376
:1026F00006D030238DF824308DF82520022398460B
:10270000DDF820C08CF0080C5CEA0B0C0BD150EA11
:10271000010301D1630706D530238DF824304FF033
:102720000108A9F10109582A04D038A20B9208AA7D
:102730000A920BE03AA2F9E75B46089AFDF752FDD0
:102740000B9B9B5C0A9A521E0A92137050EA01027C
:10275000F2D10A98ADEB000000F1200B600702D522
:1027600024F4803401E04FF00109D94502DDA9EBE2
:102770000B0000E0002000EB0B0141440890AAEBA5
:10278000010AE00306D4DDE90F232146504600F09C
:1027900063F806444FF0000908E009A911F80900A0
:1027A000DDE90F12904709F10109761CC145F4DB00
:1027B000E0030CD5DDE90F232146504600F04CF82C
:1027C000064404E0DDE90F1230209047761C08999A
:1027D000481E08900029F5DC08E00A980A9900785C
:1027E000491C0A91DDE90F129047761CBBF10001EC
:1027F000ABF1010BF1DC21465046DDE90F2300F07F
:1028000019F806446D1C1BE60928010030313233EB
:10281000343536373839616263646566000000001C
:102820003031323334353637383941424344454606
:10283000000000002DE9F041044600251E46174621
:10284000880404D405E039462020B0476D1C641E7E
:10285000F9D52846BDE8F0812DE9F0410446002570
:102860001E469046C80301D5302700E02027880483
:1028700004D505E041463846B0476D1C641EF9D5C5
:102880002846BDE8F081000013B54FF6FF73012222
:1028900069460248FFF714F900981CBD200F00207C
:1028A00008B5FEF7DFF9FFF789FBFFF7A5FAFFF799
:1028B0003FFAFFF76DFAFFF75FFBFFF717FAFFF735
:1028C00003FB4BA0FFF77EFD4FF4C060FDF710FD4A
:1028D0004E4C00254E4E2846C4F8045046F82000C1
:1028E000401CFF28FAD9DFF82C814FF48077606014
:1028F0003A4647494046FDF749FD47A0FFF762FDCC
:10290000656061684FA056F82120FFF75BFD6068A5
:10291000401C6060FF28F4D949A0FFF753FD3A46F8
:102920004C494046FDF724FD4BA0FFF74BFD494FB6
:102930006560616843A057F82120FFF743FD606898
:10294000401C6060FF28F4D93DA0FFF73BFD2846FE
:10295000C4F8045057F8201056F82020914202D0B5
:102960002168491C2160401CFF28F3D96060206861
:1029700000283BD045A000BFFFF724FD494E0122AF
:1029800080213046FEF75BF980213046FEF752F990
:10299000014645A0FFF716FD4FF4F0704FF050468A
:1029A00000904FF44873324644494548FDF752FFC2
:1029B0004FF4FA70FDF7D8FF4FF496724149304654
:1029C000FDF7D6FC24A0FFF7FDFC65603D4D616876
:1029D0001CA055F82120FFF7F5FC6068401C6060E2
:1029E000FF28F4D916A0FFF7EDFCFEE736A0C3E7F9
:1029F0000D0A204C44544320444D41324420657814
:102A0000616D706C65202121210D0A0000000020FD
:102A1000F4000020000800D00D0A2F2A2057726908
:102A20007465206461746120746F2074686520533C
:102A30004452414D206D656D6F7279202A2F0D0A29
:102A40000D0A0000253032583A30782530385820A9
:102A500000000000F40400200D0A2F2A20526561B6
:102A600064206261636B20646174612066726F6DC3
:102A70002074686520534452414D206D656D6F721E
:102A800079202A2F0D0A0D0A000000000D0A20539C
:102A90004452414D20546573742046616C73650D3A
:102AA0000A000000000C02404261636B6C696768B9
:102AB00074203D202564202121210000DC2A00080B
:102AC000040E0020F40800200D0A20534452414D0A
:102AD0002054657374204F4B0D0A0000FFFFFFFF69
:102AE000FFFFFFFFFFFFFFFFFFFFFFFFFFFFFFFFF6
:102AF000FFFFFFFFFFFFFFFFFFFFFFFFFFFFFFFFE6
:102B0000FFFFFFFFFFFFFFFFFFFFFFFFFFFFFFFFD5
:102B1000FFFFFFFFFFFFFFFFFFFFFFFFFFFFFFFFC5
:102B2000FFFFFFFFFFFFFFFFFFF7FFF7FFFFFFFFC5
:102B3000FFFFFFFFFFFFFFFFDEF7FFFFFFFFFFFFCE
:102B4000FFFFFFFFFFFFFFFFFFF7FFFFFFFFFFFF9D
:102B5000BEF79EF79EF79DEFD9F7F5F7F6F7BAEFB8
:102B60005BE799EFF7F7D9EF5DE75DE75BE7BDF767
:102B7000FFFFFFFFFFFF7DE73CDF7DE79DEF7DE788
:102B80005CE73CDF1BDFFBD6FBD699CE58C6D6B53B
:102B9000918C107C929414ADF4A4F4ACF4AC14AD0C
:102BA00035B535B534AD14AD35B535B535B535B507
:102BB00035B555B535B535B535B555B555B555B545
:102BC00035B555B555B576B555B555B576B555B593
:102BD00076B576B555B555B575B554ADB29CF1839E
:102BE000D17BD17BD27BB27BF283D283D27B138425
:102BF00034A5D6BDF6BDD6BDF6BDD6BD17C6F7C544
:102C0000F6BDD6BDD6BDF6BDF7C5F7C517C618C605
:102C1000D7BDB7BDB7BDB7B5B7B597B555AD55AD10
:102C200014A5F39CF39CD29475AD95B5B6B596B545
:102C3000B7B5B6B596B555ADF7BDB7B535A596B52B
:102C4000B6B535A5D7BD18C618C676ADD7BDB7B5CC
:102C5000F8BD14A5B7B5F8BD96B5F8BDF8BDD7BD9C
:102C6000B7B559C6D7B5F8BD18C639C618C6B7B571
:102C700038C6F8BD18BE18C638C638C638C618BE1D
:102C800018BE18BEF8BD18BE59C6F8BD39C618C65C
:102C9000F8BD38C639C639C659C659C679CE39C6FF
:102CA00039C639C659C658C658C659C658C658C670
:102CB000F7BDF7BDF7BDF7BDD6BDD6B5D6B5D6BD08
:102CC000B6B595B5B6B5B6B5D6B517BE17BEF6BD91
:102CD000D6B5D6B5D6B5F6BD9394F27BB27B159D2D
:102CE000349D139D96ADD7B5738C328457A5738CE4
:102CF000169DD9B5F27B9BCE39BE59C6D594F47BCF
:102D0000D3735BC659C659C659C659C659C639C6C2
:102D100039BE59C656A576ADF4945AC677AD3484FB
:102D2000B58CB7ADD7B597AD559D359DF494B4949A
:102D3000F2735484128415A57EEFBAD6DBDEB39C01
:102D4000FFFFDEFFDFFFDEFFFFFF15D5FFFFFFFF09
:102D5000F4CCFFFFDEFFDEF7DEF7DEFFDEFFDFF79E
:102D6000DFFFDFFF9DEFDEF7BEF7FFFFDEF7FFFFC0
:102D7000BEF7FFFFDEF7FFFFDFF7FFFFFFFFFFFFFD
:102D8000DFF7FFFFFFFFFFFFDFF7FFFFFFFFDFFFC3
:102D9000FFFFFFFFFFFFFFFFFFFFDCDE536B7FCF77
:102DA0009EA69EAE9FAE9FAE9FAE9EAE7FAEBFAEC6
:102DB0009FB69FB69FB6BFB6BFB6BFB6BFB6BFB6CB
:102DC000BFBEBFB6BFBEBFBEBFBEBFBEBFBEDFBE03
:102DD000BFBEDFC6FFC6FFC6FFCE1FCF1FCF1FD7A8
:102DE0003FD73FD73FD73FD73FD73FD71FD71FD773
:102DF000FECEFECEFFCEFBAD72639BADF79CDFF740
:102E0000FFFFFFFFFFFFFFFFFFFFFFFF1CE7FFFFCD
:102E1000FFFFFFFFFBDEFFFFFFFFFFFFFFFFFFFFE7
:102E2000FFFFFFFFFFFFFFFFFFFFFFFFFFFFFFFFB2
:102E3000FFFFFFFFFFFFFFFFFFFFFFFFFFFFFFFFA2
:102E4000FFFFFFFFFFFFFFFFDFFFFFFFFFFFFFFFB2
:102E5000FFFFFFFFFFFFFFFFFFFFB8B538ADFFFF2C
:102E6000FFFFFFFFFFFFFFFFFFFFFFFF9AD6FFFF00
:102E7000FFFF5DEF9DEFFFFFFFFFFFFFFFFFFFFF86
:102E8000FFFFFFFFFFFFFFFFFFFFFFFFFFFFFFFF52
:102E9000FFFFFFFFFFFFFFFFFFFFDFFFFFFFFFFF62
:102EA000FFFFDFF7FFFFDFF7BEF7FFFFFFFFFFFFCB
:102EB000DFF7FFFFFFFFFFFFDBDE19BE1DE79EEF21
:102EC000FFFFFFFFFFFFFFFFFFFFFFFFFFFFFFFF12
:102ED000FFFFFFFFFFFFFFFFFFFFFFFFFFFFFFFF02
:102EE000FFFFFFFFFFFFFFFFFFFFFFFFFFFFFFFFF2
:102EF000FFFFFFFFFFFFFFFFFFFFFFFFFFFFFFFFE2
:102F0000FFFFFFFFFFFFFFFFFFFFFFFFFFFFFFFFD1
:102F1000BCD67CAD9CADBCADBDAD5C9D5C9D3C9D0F
:102F2000BCAD1EB61DB67BA5BECEFFF7FFF7DFEF2B
:102F3000FFF7DFF7DFF7DFF7DFF7DFF7DFEFDFF7C9
:102F4000DFF7DFF7FFF7FFF7FFF7FFF7FFF7FFF711
:102F5000FFF7DFF7FFF7DFF7FFF7FFFFFFF7FFFFF1
:102F6000FFF7DFF7FFFF9FE75FCF7ECFFFEF9FDF2A
:102F70003EB65FAE5FA67FAE9FAE9FAEBFAE7EA6F3
:102F80005EA69FA6BFAEBFAEBFAEDFAEDFAEDFAE0A
:102F9000DFAEDFAEDFAEDFAEDFAEBFA69FA67E9EAA
:102FA0007E9EBFA6BFA6BFA6DFA6BFA6BFA69FA642
:102FB0009E9EBFA6BFA69FA65E9E9FA6BFA6BFA6BB
:102FC000BFA6BFA6BFA6BFA6BFA6BEA6BFA6BFAED2
:102FD0009FDFFFFFFFFFFFFFFFFFFFFFFFFFFFF789
:102FE000FFFFFFFFFFFFFFFFFFFFFFFFFFFFFFFFF1
:102FF000FFFFFFFFFFFFDFFFDFFFFFFFDFFFFFFF41
:10300000FFFFFFFFFFFFFFFFFFFFFFFFDFF7DFF720
:10301000DFF7FFFFDEF7DFF7DFF7DFF7DEF7DEF7DB
:10302000DEF7DEF7DEF7DEF7DEF7DEF7BEF7BEF738
:10303000BEF7BEF7BEF7BEF7BEF7BDEFBDEFBDEF03
:10304000BDEFBDEF9DEF9EEF9DEF9DEF9DEF9DEFDF
:103050009DEF9DEF9DEF9DEF7DEF9DEF9DEF7DEF50
:103060009DEF9DEF9DEF7DEF7DE79DEF7DEF7DEF88
:103070009DEF9DEF9DEF9DEF7CE79DEF7DE77DEF61
:103080007CEF7CEF9DEF7CEF9DEF9DEF7DEF7DEF83
:103090009DEF9DEF9DEF9DEF9DEF9DEF7DEF9DEFF0
:1030A0007DEF9DEF9CEF9DEF9CEF9DEF9DEF9CEFE3
:1030B0009DEF9DEF9CEF9DEF9DEF9DEF9DEF9DEFB1
:1030C0009DEF9DEF9DEF9DEF9DEF9DEF9DEF7DEFC0
:1030D0007DEF7DEF7DF77DF77CEF5CEF1BE779D629
:1030E00079D658CE38CE1BE738CE75B53BE7DADE59
:1030F00037CEB9D61BE73BE75CEF5CEF7CEF7CEFAC
:103100009CEF9DEF9DF7BDF79DF7BDF7BDF7BDF7B0
:10311000BDF7BDF7DEF7FEFFFEFFFEFFFFFFFFFF7F
:10312000FFFFFFFFFFFFFFFFFFFFFFFFFFFFFFFFAF
:10313000FFFFFFFFFFFFFFFFFFFFFFFFFFFFFFFF9F
:10314000FFFFFFFFFFFFFFFFFFFFFFFFFFFFFFFF8F
:10315000FFFFFFFFFFFFFFFFFFFFFFFFDFF7DFF7CF
:10316000DFF7DFFFFFFFFFFFFFF7FFF7FFF7FFF7D7
:10317000FFF7FFFFFFFFFFFFDEF7DFF7FFFFFFFFB8
:10318000FFFFFFFFFFFFFFFFFFFFFFFFFFFFDEF778
:103190009DEF7DEF7DEF9BEFF8F7F6F7F8F79AEFED
:1031A0009BEFDAF7F8F7DAF77DEF5DEF9CEFFFFFC3
:1031B000FFFFBDF7FFFFFFFF7DE7FFFFFFF7FFFF0B
:1031C000FFFFDEF71BDFBDEFFFF7DEF7D6B5F7BD7C
:1031D00095AD5184F07BB39CD3A4D4A4F4ACD4AC0F
:1031E00035B5F4AC14AD14B514B535B514AD14AD96
:1031F00014B535B535B535B535B535B555B535B580
:1032000035B535B535B555B555B555B555B555B5CE
:1032100076B576B576B555B575B575B576B555B59A
:1032200034AD55AD16A5F5A4D49C15A555ADB5B5D1
:10323000D6BDB6BDB6BDB5BDB5BDB6BDD6BDF6BD78
:10324000D6BDB6BDB6BDB6B596B595B596B5F8C5FD
:10325000F8C5D7BDB7BD97B596B5D7BDD39CD39CA0
:10326000B394D39C13A554ADF7BDF7BDF7BDD7BD3F
:10327000F7BDF7BDF7BD18BEF7BD18C618C6F8BD37
:10328000F8BDD7B5F8BD18C638C6F8BDB7B539C64C
:1032900096ADB7B596B5B7B535A518BE96B5D7B541
:1032A00055ADF7BD96AD59C676AD59C659C634A5CC
:1032B00038C6F7BD55ADB6B5F8BD76AD7ACE55ADCD
:1032C000F7BDD7BD76AD96B5D7B596ADD7B5D7BD59
:1032D000B7B5D7BDD7B5F8BDD7BDF8BDD7BD38C6D2
:1032E00039C659CE59CE59C659C659C659C679CECE
:1032F00038C6D7BDF7BDF7BDF7BDD7BDF7BDD6BD45
:10330000D7BDF7BDB6B595B595B5D6B5F6BDF7BD84
:10331000F7BDF6BDF6BDB5B555ADF27BF37B748C4C
:10332000D7B575AD76ADD4946F6B36A5D59453846F
:103330007BC6F59453847BC677A5F9B5D9B5F47BE4
:10334000147C98AD59C658C639C639C639C639BE77
:1033500019BE35A5159D39C652845384127CD2738B
:10336000F27BD8B5F8B5D7B5D7B5B7B5F07B36A5EC
:10337000506BD27B528C39C61CDF1CE79AD6B294B4
:10338000FFFFFEFFDEFFFEFFFFFF35CD5AEE5AF6D0
:10339000B8DDFFFFDEF7DEFFDEF7DEFFDEF7DEF78C
:1033A000DFFFDFFFBEF7DFFFBEF7FFFFBEF7FFFF68
:1033B000DEF7FFFFDFFFFFFFDFFFFFFFDFFFDFFFC6
:1033C000FFFFFFFFFFFFFFFFDEF7FFFFFFFFDFFF56
:1033D000FFFFFFFFFFFFFFFFFFFFDCD6D252FFB66C
:1033E000BC8DBD8DBD95DD95DE959FAEBFAEFD9DBF
:1033F0001D9E3E9E3EA63EA65EA67EAE7EAE7EAEE6
:103400007EAE9EAE9EB69EB69EB69EB69FB6BFBE22
:103410009EBEBEBEFFC6FFC6FFCE1FCF3FD73FD763
:103420005FDF5FDF5FDF5FDF5FDF3FD73FD71FD744
:103430001FD71FCFFFD65DBE515B9AA5179D9EE794
:10344000FFFFFFFFFFFFFFFFFFFFFFFF1CDF1CE78A
:10345000FFFFBEF779CEFFFFFFFFFFFFFFFFFFFF7C
:10346000FFFFFFFFFFFFFFFFFFFFFFFFFFFFFFFF6C
:10347000FFFFFFFFFFFFFFFFFFFFFFFFFFFFFFFF5C
:10348000FFFFFFFFFFFFFFFFFFFFFFFFFFFFFFFF4C
:10349000FFFFFFFFFFFFFFFFFFFF5ACED69CFFFF9E
:1034A000FFFFFFFFFFFFFFFFFFFFFFFF3CE7FFFF07
:1034B000FFFFDFFF7DEFFFFFFFFFFFFFFFFFFFFFCE
:1034C000FFFFFFFFFFFFFFFFFFFFFFFFFFFFFFFF0C
:1034D000FFFFFFFFFFFFFFFFFFFFFFFFFFFFFFFFFC
:1034E000DFFFDFF7FFFFDFFFBEF7FFFFDFF7FFFFC5
:1034F000DFFFFFFFFFFFFFFF5DEFF8BDFCDE7EEFAC
:10350000FFFFFFFFFFFFFFFFFFFFFFFFFFFFFFFFCB
:10351000FFFFFFFFFFFFFFFFFFFFFFFFFFFFFFFFBB
:10352000FFFFFFFFFFFFFFFFFFFFFFFFFFFFFFFFAB
:10353000FFFFFFFFFFFFFFFFFFFFFFFFFFFFFFFF9B
:10354000FFFFFFFFFFFFFFFFFFFFFFFFFFFFFFFF8B
:103550003DE75AAD9BA5DCADBDAD5C9DDEADBDAD1F
:10356000DDADBCAD7EC6FCB59DCEDFF7FFF7DFF766
:10357000FFF7DFF7DFF7FFF7DFF7DFF7DFF7DFF75B
:10358000DFF7DFF7FFF7FFF7FFF7FFF7FFF7FFF7CB
:10359000FFF7FFF7DFF7DFF7FFF7FFFFFFF7FFFFAB
:1035A000FFFFDFF7FFF7BFE73ECF7FD7FFEF9FDFDC
:1035B0003EAE5FAE5FA67FAE9FAE9FAE9FA65EA6FD
:1035C0005E9E7EA69FA6BFAEBFAEDFAEDFAEDFAE15
:1035D000DFAEDFAEDFAEDFAEDFAEBFA6BFA67E9E44
:1035E0007E9E9EA6BFA6BFA6BFA6BFA6BFA6BFA61D
:1035F0009FA69FA69FA67E9E3D96BFA69FA6BFA6FE
:10360000BFA6BFA6BFA6BFA6BFA6BEA6BFA69FAEAB
:103610005FD7FFFFFEFFFFF7FFFFFFFFFFFFFFF793
:10362000FFFFFFFFFFFFFFFFFFFFFFFFFFFFFFFFAA
:10363000FFFFFFFFDFFFFFFFFFFFFFFFDFFFFFFFDA
:10364000DFFFDFFFDFFFDFFFFFF7FFFFDFF7DFF762
:10365000DFF7FFFFDEF7DFF7DFF7DFF7DFF7DEF794
:10366000DEF7DEF7DEF7DEF7DEF7DEF7DEF7BEF7D2
:10367000BEF7DEF7BEF7BEF7BEF7BEF7BDEFBDEF94
:10368000BDEFBDEF9DEF9DEF9EEF9DEF9DEF9DEF99
:103690009DEF9DEF9DEF9DEF7DEF7DEF9DEF9DEF0A
:1036A0009DEF9DEF9DEF7DEF7DEF9DEF7DEF9DEF1A
:1036B0009DEF9DEF9DEF9DEF7CE77DE77DE77DEF43
:1036C0007DEF9DEF7CEF9DEF7CEF9DEF7DEF9DEF1C
:1036D0009DEF9DEF9DEF9DEF9DEF7DEF9DEF7DEFCA
:1036E0009DEF9CEF9DEF9DEF9DEF9DEF9CEF9DEF7C
:1036F0009DEF9DEF9DEF9DEF7CEF9DEF9DEF9DEF8B
:103700009DEF9DEF9DF77DEF7DEF9DEF9DEF9DEF91
:103710007DEF7DF77DEF5CEF7CEF1BE758CE79D630
:1037200058CE38CE3CEFD6BD95B55CEFB9D637C68E
:10373000DADE3BE75BE75CEF7CEF7CEF7CEF9CEF56
:103740009DF79DEF9DF7BDF7BDF7BDF79DF7BDF761
:10375000BDF7BDF7DEF7FEFFFEFFFEFFFFFFFFFF39
:10376000FFFFFFFFFFFFFFFFFFFFFFFFFFFFFFFF69
:10377000FFFFFFFFFFFFFFFFFFFF9DEF3CE75DE760
:103780009EEFBEF7DEF7DFF7DFF7DFFFFFFFFFFF9C
:10379000FFFFFFFFFFFFFFFFFFFFFFFFDFF7DFF789
:1037A000DFF7DEF7FFFFFFF7FFF7FFF7DEF7DEF7E4
:1037B000DEF7DEF7DFF7DEF7DEF7BEF7DEF7DFF77F
:1037C000DFF7DFF7DEF7FFFFFFFFFFFFFFFFFFFF82
:1037D000BEF7BEF7BEF7BDF7FAF7F7F7F9F7BAEF9E
:1037E0009AEFD9EFF8F7DAF77DEF7DEFBDF7FFFF3E
:1037F000DEF73CE7DEF7FFFFDEF7FFFFDEF7BEEFA9
:10380000FFFFBEEFDEF7FFFFBEEFFFF77DEFD6B5A0
:103810007DE7F7B5718C7294929CB3A4D4A4D3AC19
:10382000F4ACF4ACF4ACF4ACF4AC14AD14AD34AD15
:1038300014ADF4AC14B514B514B514B535B535B52F
:1038400035B534AD35B555B535B535AD34AD35AD2A
:1038500035B555B555B555B535B535AD55AD34ADB1
:1038600013AD13AD53AD54AD54AD53AD54B554B5C4
:1038700054B554B575B575B575B575B575B575B53A
:1038800075B575B575B555B554AD75B575B5F4A4C3
:10389000F4A435ADB7BDF4A435AD14A555AD7294FF
:1038A000518C518C34A5B6B575AD75ADB6B5F7BDB7
:1038B000F7BDD7B5F8BD18C618C618C639C618C69C
:1038C00018C618C618BE18C639C639C639C618C6AD
:1038D00018C639C618C618C639C618BE39C618C69D
:1038E00039C6F8BD39C618BEF8BD39C659C618BEA6
:1038F000F7BD18C6D7BDF8BDB6B5B7B5D7B539C68B
:1039000055AD79CED39CB6B5D7B555A535A5D7B5A8
:1039100076ADB6B535A559C635A539C6F7BD75AD71
:1039200038C659C659CE59C659CE59C659C658C6B1
:1039300059CE18C6D7BDF7BDF7BDF7BDD6B5D6BDB4
:10394000D6BDF7BDF6BDB6B595B5B6B5F6BDF7BDF6
:10395000F7BDF6BDF6BD95ADD6B51184F37B506BC2
:10396000F59C35A5149DF07B5284F59CF173327C57
:10397000B48CB48CF9B51BBE926B548499AD35846C
:10398000548478AD5AC659C639C639C639C659C6DF
:10399000F49C36A55AC639BE56A5738C169DD8B56B
:1039A000D8B5B7B5F8B5B7B5F8B596ADB394B49486
:1039B000D59C9494D7B5D7BD1CE79EEF7ACE929450
:1039C000FFFFDEFFDEFFDEFFFFFFFFFF3AEE98EDB9
:1039D000BFFFDEFFFEF7DEFFFEF7DEFFDEF7DFFFF5
:1039E000DEF7DFFF9DEFDEF7BEF7FFFFBEF7FFFF5D
:1039F000DFFFFFFFDFFFFFFFDFFFFFFFDFFFFFFF57
:103A0000FFFFFFFFFFFFDFF7FFF7FFFFFFFFFFFFF6
:103A1000DFFFFFFFFFFFFFFFFFFFDCD6B24ABFB6AD
:103A2000BD8DBD8DBD8DBD95DE95BFAEFFB6FD9D37
:103A30001D9E3EA63EA63EA65EA67EAE7EAE7EAE97
:103A40007EAE9EB69EB69EB69EB6BFB69FB69EB6DC
:103A5000BEBEBFBEFFC61FCF1FCF3FD75FDF5FDF3A
:103A60007FDF7FDF7FDF7FDF7FDF5FDF5FDF5FDFC6
:103A70005FD71FD71FD7BEC6515B599DF7945DE72F
:103A8000FFFFFFFFFFFFFFFFFFFFFFFF9EF714A5F4
:103A9000FFFF38C659CEFFFFFFFFFFFFFFFFFFFF0D
:103AA000FFFFFFFFFFFFFFFFFFFFFFFFFFFFFFFF26
:103AB000FFFFFFFFFFFFFFFFFFFFFFFFFFFFFFFF16
:103AC000DFFFFFFFFFFFFFFFDFFFFFFFFFFFFFFF46
:103AD000FFFFFFFFFFFFFFFFFFFFFCDE558CDFFF57
:103AE000FFFFFFFFFFFFFFFFFFFFFFFF3CE7DFFFE1
:103AF000DFFFFFFF1CE7FFFFFFFFFFFFFFFFFFFFF1
:103B0000FFFFFFFFFFFFFFFFFFFFFFFFFFFFFFFFC5
:103B1000FFFFFFFFFFFFFFFFFFFFDFFFFFFFDFFFF5
:103B2000BEF7FFFFFFFFFFFF7EEFFFFFDFFFFFFF9F
:103B3000DFF7FFFFDFFFFFFFDFF7D7BDDBDE5DEF66
:103B4000FFFFFFFFFFFFFFFFFFFFFFFFFFFFFFFF85
:103B5000FFFFFFFFFFFFFFFFFFFFFFFFFFFFFFFF75
:103B6000FFFFFFFFFFFFFFFFFFFFFFFFFFFFFFFF65
:103B7000FFFFFFFFFFFFFFFFFFFFFFFFFFFFFFFF55
:103B8000FFFFFFFFFFFFFFFFFFFFFFFFFFFFFFFF45
:103B9000FFFF5AAD9BADDCADDCAD5B9D5C9D7CA5B4
:103BA0009CA5FCB5BEC65DC6BDCEDFEFFFF7DFF757
:103BB000DFF7FFF7FFF7DFF7DFF7DFF7DFF7DFF715
:103BC000DFF7FFF7FFF7FFF7FFF7FFF7FFF7FFF765
:103BD000FFF7FFF7DFF7DFF7FFF7FFFFFFF7FFFF65
:103BE000DFF7DFF7DFF7DFEF1ECF1FC79FD73FC736
:103BF0005EAE5FA65FA65FA69FAE7FA67FA65EA60F
:103C00005E9E7EA69FA69FAEBFAEBFA6BFA6BFA666
:103C1000DFAEDFAEDFAEDFAEDFAEDFAEBFA67E9ED5
:103C20007E9E9E9EBFA6BFA6BFA6BFA6BFA6BFA6DE
:103C30009FA69FA69FA67E9EFC8D9FA6BFA6BFA601
:103C4000BFA6BFA6BFA6BFA6BFA6BEA6BFA6BFA64D
:103C5000FFCEDFFFFEFFFFF7FFFFFFFFFFFFFFF7D6
:103C6000FFFFFFFFFFFFFFFFFFFFFFFFFFFFFFFF64
:103C7000FFFFFFFFDFFFFFFFDFFFDFFFDFFFFFFFD4
:103C8000DFFFDFFFDFFFDFFFFFF7FFF7FFFFDFF7FC
:103C9000DFF7DEF7DEF7DFF7DEF7DEF7DEF7DEF77A
:103CA000DEF7DEF7DEF7DEF7DEF7BEF7BEF7BEF7CC
:103CB000BEF7BEF7BEF7BEF7BEF7BEF7BDEFBDEF6E
:103CC000BDEFBDEF9DEF9DEF9DEF9DEF9DEF9DEF54
:103CD0009DEF7DEF9DEF7DEF9DEF7DEF7DEF7DEF24
:103CE0009DEF9DEF7DE77DE77DEF9DEF9DEF9DEFE4
:103CF0009DEF9DEF9DEF9DEF7DE77CE79DEF7DE7DD
:103D00007DEF7CE77CE79DEF9DEF7CEF7DEF9DEF06
:103D10007DEF7DEF9DEF9DEF7DEF7DEF7DEF9DEFE3
:103D20009DEF9DEF9DEF9CEF9DEF9DEF9DEF9CEF35
:103D30009DEF9DEF9DEF9DEF9DEF9DEF9DEF9DEF23
:103D40009DEF9DEF9DF79DF79DEF9DF79DF79DF7EB
:103D50009DF7DEFF9DF77DF7FBDE58CE58CE38CEBF
:103D600038CE3CEFB6BDD6BD3CEF58CE38CEFADEED
:103D70001BE75BE75CEF7CEF7CEF7CEF9DF79DF74B
:103D80009DF79DEF9DF7BDF7BDF79DF7BDF7BDF71B
:103D9000BDF7BDF7DEF7FEFFFEFFFEFFFFFFFFFFF3
:103DA000FFFFFFFFFFFFFFFFFFFFFFFFFFFFFFFF23
:103DB000FFFFFFFFFFFFFFFFFFFF3CE7DEF73CE7F2
:103DC000BEF7FFFFFFFFDFF7DEF7BDF75CE7BAD610
:103DD0003CE7DEF7FFFFFFFFFFFFFFFFFFFFFFFFF7
:103DE000FFFFFFFFFFFFFFFFFFF7FFFFFFF7FFF7FB
:103DF000DFF7DFF7DFF7DFF7DFF7DEF7BEEFBEEF66
:103E0000BEEF9DEF9DEF9DEF9DEF9EEFBEF7BEF7DE
:103E10007DEF9DEFBEF7DEF7DEF7DCF7FAF7F9F797
:103E2000FBFFFBF7FAF7FAF7DBF79DEFBDF7FFFFB4
:103E3000FFFFBEF7FFFFFFFF9DEFFFFFFEF7FFF75E
:103E4000FFFFBEF7FFF7FEF7FAD61BDFFFFF78C6CE
:103E5000BAD61BDFD394518C7294929C929CD3A4BB
:103E6000F4ACD3ACF4ACD3ACF4ACF4AC14AD14AD52
:103E7000F4ACF4ACF4AC14ADF4ACF4AC14AD14ADDF
:103E800014AD14AD14AD14AD14AD14AD34AD34ADEA
:103E900014AD35B535AD35B534AD34AD34AD14AD47
:103EA000F4A414AD13AD13AD14AD13AD34AD34ADF6
:103EB00034AD34AD34AD34AD34AD34AD34AD34ADFA
:103EC00054AD54AD54AD34AD34AD54AD96B534AD00
:103ED000D39CD39C35AD97B5B39CB39C34AD76B52C
:103EE000929476B5B6B5B6BD34A5F39CB394B6B589
:103EF00096B5D39C55ADD7BDF7BD35A535A5B7B59E
:103F0000D7BD76AD76ADB7B5F8BDB7B596ADD7B57B
:103F100018BE18BEF8BDF8BD18C639C639C639C6B0
:103F200039C639C639C639C639C639C659C639C679
:103F300039C639C639C639C639C659C638C659C64A
:103F400039C659C6F8BDF8BDD7B5B7B596B518BED0
:103F5000F8BDD7B596B538C6D7B5F8BD7ACE55A554
:103F600059C659CE59C659C659CE59CE59CE59CE31
:103F700059CE59CE17BEF7BDF7BDF7BDD6BDD6BDDC
:103F8000D6B5F7BDD6B5B6B5B6B596B596B5D6BD68
:103F9000D6BDF6BDD6B595B595AD75AD9073D27B52
:103FA000506B159DF49C149D56A535A577A519BE9B
:103FB0001ABE7BC63ABE758CB273189DB794568CE8
:103FC0001384D8B559C659C659C65AC639C693942A
:103FD00035A539C619BE19BE19BE39C619BE19BED6
:103FE00019BE19BE19BED8B5F8BDD7B576ADF49CCB
:103FF00097B5B394BBD6F8BD59CEBEF759CED39C76
:10400000FFFFFEFFDEFFDEFFFFFF9AE63DFF16E546
:1040100097DDFFFFDEF7DEF7DEFFDEFFDEF7DFFF17
:10402000DFFFDFFF9EF7DEF7BEF7FFFFBEF7FFFF04
:10403000DFFFFFFFBEF7FFFFDFFFFFFFDFFFFFFF39
:10404000DFFFFFFFDEF7BEF7DFF7FFFFFFFFDFF762
:10405000FFFFFFFFFFFFFFFFFFFF1CDF71427FB687
:10406000DD95BD8DDD95DE95DE95DE951E9E1E9E51
:104070001E9E3EA63EA65EA65EA67EAE7FAE7EAE2F
:104080009EB69FB6BFB69EB69EB69FBE9FBEBFBE33
:10409000BFBEBEBEFFC61FCF3FCF1FDF5FE75FE7DC
:1040A0007FEF9FE79FDF9FDF7FDF7FDF7FDF7FDFA8
:1040B0007FDF3FDF3FDF3FD772631895389DDCD647
:1040C000FFFFFFFFFFFFFFFFFFFFFFFFFFFFFBDE25
:1040D0009EF77DEFDEF7FFFFFFFFFFFFFFFFFFFF14
:1040E000FFFFFFFFFFFFDFFFFFFFFFFFFFFFDFFF20
:1040F000DFFFFFFFFFFFFFFFDFFFFFFFFFFFFFFF10
:10410000DFFFFFFFFFFFFFFFFFFFFFFFFFFFFFFFDF
:10411000FFFFFFFFFFFFFFFFFFFF5EEF3484BFF7EE
:10412000FFFFFFFFFFFFFFFFFFFFFFFF7DEFDBDE76
:10413000FFFFBEF759CEFFFFFFFFFFFFFFFFFFFFAF
:10414000FFFFFFFFFFFFFFFFFFFFFFFFFFFFFFFF7F
:10415000FFFFFFFFFFFFFFFFFFFFFFFFFFFFFFFF6F
:10416000BEF7FFFFDFFFFFFFBEF7FFFFDFF7FFFF39
:10417000DFF7FFFFFFFFFFFFFFFFF8BDBBD65DE7E7
:10418000DFFFFFFFFFFFFFFFFFFFFFFFFFFFFFFF5F
:10419000FFFFFFFFFFFFFFFFFFFFFFFFFFFFFFFF2F
:1041A000FFFFFFFFFFFFFFFFFFFFFFFFFFFFFFFF1F
:1041B000FFFFFFFFFFFFFFFFFFFFFFFFFFFFFFFF0F
:1041C000FFFFFFFFFFFFFFFFFFFFFFFFFFFFFFFFFF
:1041D000FFFFBAB59BADDCADDCAD5A9D5B9D5CA528
:1041E000DDAD9EC69DC67DC6BDCEBFEFFFF7FFF716
:1041F000FFF7FFF7FFF7DFF7FFF7DFF7DFF7DFF78F
:10420000DFF7FFF7FFF7FFF7FFF7FFF7FFF7FFF71E
:10421000FFF7FFF7DFF7DFF7DFF7FFF7FFF7FFFF46
:10422000DFF7BFEFBFEFFFF75ED73CA6BEB6FEBE1F
:104230007EAE5FA63FA63EA67FA65FA67FA67EA611
:104240005E9E7EA69FA69FA6BFAEBFAEBFA6BFA620
:10425000BFA6BFA6DFAEDFAEDFAEBFA69FA69E9E07
:104260007E9E7E9EBFA6BFA69FA6BFA6BFA6BFA6D8
:104270009FA69F9E9FA67E9EFC8D9FA69FA6BFA6E3
:10428000BFA6BFA69FA69EA69FA69EA69FA6BF9EB0
:10429000BFBEDFFFFFFFFFF7FFFFFFFFFFFFFFFFD7
:1042A000FFFFFFFFFFFFFFFFFFFFFFFFFFFFFFFF1E
:1042B000FFFFFFFFFFFFFFFFDFFFDFFFDFFFFFFF6E
:1042C000DFFFDFFFFFFFDFFFDFFFDFFFDFFFDFF7E6
:1042D000FFFFDFF7DFF7DEF7DEF7DEF7DEF7DEF70B
:1042E000DEF7DEF7DEF7DEF7DEF7DEF7BEF7BEF766
:1042F000BEF7BEF7BEF7BEF7BEF7DEF7DEF7BDEFDF
:10430000BDEFBDEFBDEF9DEF9DEF9DEF9DEF9DEFED
:104310009DEF9DEF9DEF9DEF9DEF9DEF9DEF9DEF3D
:104320009DEF7DEF9DEF7DEF7DE77DEF7DEF9DEFD5
:104330009DEF9DEF9DEF9DEF7DEF7DEF7DEF7DEF9D
:104340007DEF9CEF7CEF9DEF9DEF9DEF9DEF7DEF6F
:104350007DEF9DEF9DEF9DEF7DEF9DEF9DEF9CEF3E
:104360009CEF9DEF9CEF9DEF9DEF9DEF9DEF9DEFEF
:104370009DEF9DEF9DEF9DEF9DEF9DEF9DEF7DEFFD
:104380007DEFBDF77CEF5CEF7CEF3CE7FBDE9AD680
:104390009AD6D6BD55B559CE38CE58CE38CE38CEB1
:1043A0005CEF75B5F6C53BE758CE58CEFADE3BE775
:1043B0003BE75CEF7CEF7CEF9CEF9CEF9DF79CF77D
:1043C0009CF7BCF7BCF7BCF7BDF79DF7BDF7BDF791
:1043D000BDF7BDF7BDF7DEF7FEFFFEFFFFFFFFFFF6
:1043E000FFFFFFFFFFFFFFFFFFFFFFFFFFFFFFFFDD
:1043F000FFFFFFFFFFFFFFFFDEFFBEF7FFFFFFFF37
:10440000FFFFFFFFFFFFFFFFFFFFFFFFFFFFDEF7E5
:104410009AD63CE7FFFFFFFFFFFFBEF79EEFFFF7D7
:10442000DFF7DFEFFFF7FFF7FFFFFFFFFFFFFFFF04
:10443000FFFFFFFFFFF7FFF7FFF7FFF7DFF7DFF7FC
:10444000BEF7BEEFBEF79DEFBEF7DFF7DEF7DFF793
:10445000BFF7BEF7BEF79DF79DEF9CEF9CEF9CEF7B
:10446000BCF7BCF7DCF7BCF7BCF7BDF7BEF7DEF76F
:10447000FFFFFFFFFFFF9DEF9DEFFFFFFFFFFFF738
:10448000FFFF9DEFFFF7FFFF1BDF9DEFFFFF5CE7E7
:1044900017BED7B576A5D49C929CB3A4929CB3A426
:1044A000D3A4D3A4D3A4D3A4D3ACD3A4D3ACD3AC3C
:1044B000D3ACF4ACF4ACF4ACF4ACF4ACF4ACF4AC1D
:1044C000F4ACF4AC14AD14AD14AD14AD14AD14AD26
:1044D00014AD14AD14AD14ADF4AC14AD14ADF3A41F
:1044E000B3A4D3A4F3A4D3A4D2A4F3A4F3A4F3A4B5
:1044F000F3A4F3A4F3A4F3A4D2A4F3A4D2A413AD1D
:1045000013A513A513A513A513A513A575B5B6BDBE
:1045100076B535AD14A596B555ADF4A4B39C55B597
:1045200076B576B5D7BDD7BD75AD34A514A514A5A0
:10453000B7B5F39C14A575ADD7BDF49C518C92947E
:10454000F8BD55ADB39435A5D7BD56AD728C9294D8
:1045500076ADD7B535A5D39CB7B518BE55ADD39CB0
:1045600076AD18C6D7BD76ADD7BD39C618C6D7BD8E
:10457000D7BDF8C518BEF8BDF8BD18C639C638C6CF
:1045800039C639C659C639C639C659C618BE18C63D
:1045900039C639C659C659C639C659C659CE59CE73
:1045A00039C659C659CE59CE59CE59CE59CE59CE03
:1045B00059CE59CE59CEF7BDF7BDD7BDB6B5B6B5B4
:1045C000D6B5D7BDD7BD96B596B575AD75ADB6B5F3
:1045D00096B5B6B5D6BDD6B5B6B595AD14A56F6BC7
:1045E0009273506B32843284528C9494369DD9B538
:1045F00098AD379D5484926BB6949AAD3584D89C0F
:1046000013847ACE79C659C659C6F8BD318435A50A
:104610007ACE59C65AC65AC639C67ACE39C659C68E
:1046200039C639C639C639C639C6D8B597B5D7B52A
:10463000F39CF49C9ACE59CE18C6DFF759CED39C82
:10464000FFFFFEFFDEFFFEFFFFFF76DD19EE9BF6AC
:1046500056D5DFFFDEFFDEF7DEF7DEF7DEFFDEF743
:10466000DFFFDFFF9EF7DEF7BEF7FFFFBEF7FFFFBE
:10467000DFFFFFFF9EF7DFFFDFFFFFFFDEF7DEF765
:10468000DFFFFFFFDFFFBEF7FFFFFFFFFFFFDFFFE3
:10469000FFFFFFFFFFFFFFFFFEFF3DDF10327FAE9A
:1046A000DD95BD8DDD95DD95FE95FE951E9E1E9ECC
:1046B0001E9E3FA63EA65FA67FAE5FAE7EAE9EAEBE
:1046C0009EB6BFB6BFB6BFB6BFB6BFBEBFBEBFBE4B
:1046D000BFBEBFC6FFC61FCF3FCF1FE75DF6DAE5FF
:1046E000FBE55CD65FDFBFE7BFE7BFE79FE77FDFA4
:1046F0009FE77FDF5FDF7FDF9263F78C599D5CC6AA
:10470000FFFFFFFFFFFFFFFFFFFFFFFFFFFFFFFFB9
:10471000FFFFFFFFFFFFFFFFFFFFFFFFFFFFFFFFA9
:10472000FFFFFFFFFFFFDFFFFFFFFFFFFFFFFFFFB9
:10473000FFFFFFFFFFFFFFFFDFFFFFFFFFFFFFFFA9
:10474000FFFFFFFFFFFFFFFFFFFFFFFFFFFFFFFF79
:10475000FFFFDFFFFFFFFFFFFFFFFFFF13841EE7E9
:10476000FFFFFFFFFFFFFFFFFFFFFFFFFFFF14A59E
:10477000DFF73AC6F9C5FFFFFFFFFFFFFFFFFFFFAF
:10478000FFFFFFFFFFFFFFFFFFFFFFFFFFFFFFFF39
:10479000FFFFFFFFFFFFDFFFBFF7FFFFFFFFFFFF91
:1047A0009EEFFFFFDFF7FFFF9EF7FFFFFFFFFFFF1B
:1047B000FFFFFFFFDFFFFFFFFFFF59C659CE3DE7B9
:1047C000DFF7FFFFFFFFFFFFFFFFFFFFFFFFFFFF21
:1047D000FFFFFFFFFFFFFFFFFFFFFFFFFFFFFFFFE9
:1047E000FFFFFFFFFFFFFFFFFFFFFFFFFFFFFFFFD9
:1047F000FFFFFFFFFFFFFFFFFFFFFFFFFFFFFFFFC9
:10480000FFFFFFFFFFFFFFFFFFFFFFFFFFFFFFFFB8
:10481000FFFF5ACE9CB5BCB5DCADBCAD5B9DDDAD3C
:104820007EC6BEC67DC67DC69DCE9FEFFFF7FFF755
:10483000FFF7FFF7FFF7DFF7FFF7DFF7DFF7DFF748
:10484000FFF7FFF7FFF7FFF7FFF7FFF7FFF7FFF7B8
:10485000FFF7DFF7DFF7DFF7DFF7FFFFFFF7FFFF18
:10486000DFF7BFEFBFEFFFF75BB6BDBE9EBE1FC752
:104870007FB63FA63FA65FA67FA65FA67FA67EA6C1
:104880005E9E5E9E7FA69FA6BFAEBFA6BFAEBFA622
:10489000DFA6BFA6DFAEDFAEDFAEDFAEBFA69FA650
:1048A0007E9E7E9E9FA6BFA69FA69FA69FA69FA612
:1048B0009FA69F9E9FA67E9EFC8D7F9EBFA69FA6C5
:1048C0009F9E9F9E9FA69FA69FA69FA69FA6BF9EB8
:1048D000BFAEDFEFFFF7FFFFFFFFFFFFFFFFFFFFB1
:1048E000FFFFFFFFFFFFFFFFFFFFFFFFFFFFFFFFD8
:1048F000FFFFFFFFFFFFFFFFFFFFFFFFFFFFFFFFC8
:10490000FFFFFFFFFFFFFFFFFFFFFFFFDFFFFFFFD7
:10491000FFFFFFFFFFFFFFFFFFFFFEFFDEF7DEF7FA
:10492000DEF7DEF7DEF7DEF7DEF7DEF7DEF7DEF7DF
:10493000DEF7BEF7BEF7BEF7BEF7BEF7BEF7BDEFB8
:10494000BEEFBDEFBDEF9DEF9DEF9DEF9DEF9DEFA6
:104950009DEF9DEF9DEF9DEF9DEF9DEF9DEF9DEFF7
:104960007DEF7DEF7DEF7DEF7DE79DEF7DEF7DE7D7
:104970007DEF9DEF9DEF9DEF9DEF7DEF7DEF7DE75F
:104980007DEF9DEF9DEF9DEF9DEF9DEF7DEF7DEF27
:104990007DEF7DEF9DEF9DEF9DEF9DEF9CEF9DEFF8
:1049A0009DEF9CEF9DEF9CEF9DEF9DEF9CEF9DEFAA
:1049B0009DEF9DEF9DEF9DEF9DEF9DEF9DEF9DF78F
:1049C000BEF799D696B576B575B5F7BDD6BD54ADDB
:1049D000F3A4D39C96B558CE38CE38CE38CEFBE66D
:1049E00054B517C6DADE17C658CEFADE3BE73BE70A
:1049F0005CEF7CEF7CEF9CEF9CEF9DF7BDF79CF7A5
:104A00009CF79CEF9CEFBCF7BDF79DF79DF7BDF7BA
:104A1000BDF7BDF7BDF7DEF7FEFFFEFFFFFFFFFFAF
:104A2000FFFFFFFFFFFFFFFFFFFFFFFFFFFFFFFF96
:104A3000FFFFFFFFDEF7FFFFDEF73CE7FBDE79CE8F
:104A40007DEFDEFFFFFFFFFFFFFFFFFFFFFFFFFF29
:104A5000FFFF9EEFFFFFFFFFFFFFFFFF5DDF7EDF3A
:104A60003DD71DD7DFE7FCD6DFF73DDFBEEFFFFF09
:104A7000DEF7BEEFFFF7DFF7FFFFFFFFFFF7FFFFF8
:104A8000FFFFFFFFFFFFFFFFBEF7DEF7FFF7FFFFB0
:104A9000DFF7BFF7DFFFDEFFBEF7BEF7DFF7BEF7DA
:104AA000DEF7DEF7DEF7BEF79DF79DEFBEF7BEF748
:104AB0009EEF9DEF7DEF3CE75CE77DEF9DEFBDF75F
:104AC000DEF77CE75CE7FEF7FFFFFFFFDEEF1BDFB3
:104AD00078C6B7B5369D56A5B394B29C939C939C6B
:104AE000B3A4B3A4B3A492A492A4B3A492A4B3A471
:104AF000B3A4D3A4B3A4D3ACD3A4D3ACD3ACD3A426
:104B0000D3A4F3A4F4ACF4ACF3A4F3A4F4ACF4ACE9
:104B1000F3A4F4A4F4A4F4A4D3A4F4A4F3A4F4A4F8
:104B2000F3ACB29C929C929C9194B29CB29CB29C2D
:104B3000929C929C929CB29C9194B29CB29C919CAF
:104B4000B29C91949294B29CB29CF3A475B596B524
:104B500076B576B596B596B596B5B6BD76B555B576
:104B600076B576B596B5B6B5B6B5D7BDB7BD96B57B
:104B7000B7B5B6B596B555AD76B5D7BD55AD35A576
:104B800076B5D7BD14A514A555ADB7B5B394929419
:104B900055A5D7B535A514A535A5F8BD76ADF49CBA
:104BA000F49CB7B5D7BDF49C14A5D7BDF8BDD7BD4F
:104BB000D7BDF8BDD7BDD39455A534A539C635A505
:104BC000F39C96B518C676AD96B555AD18C6D7BD4B
:104BD00018C618BEF8BD59C6F8BD18BE39C679CE7C
:104BE00059C659CE59CE59C659CE59CE59CE59CE9D
:104BF00059CE59CE59CE38C618C6F7BDD7BDB6B5B1
:104C0000D7BDD6B5B6B5B6B5B6B5B6B596B5D7BDFA
:104C1000D6BDD6BDF7BD17C6F7BD17BEF7BD35A5C6
:104C2000EE5A716B306BB173F27BB173706B716B59
:104C3000516B726B3584189D79AD5584968C348494
:104C400057AD7AC67ACE79C659C6F8BD76ADF8BDED
:104C500018BE39C619BE19BE39C65AC639C65AC693
:104C600039C639C639C639C639C619BEF8BD19C6DE
:104C7000D7B5F8BD59CE59CEB6B5FFFF39CED39CC6
:104C8000FFFFFEFFDEFFFEFFFFFF56D515DD1DFF18
:104C9000F8DDFFFFDEF7DEF7DEF7DEFFDEFFDFF732
:104CA000DEF7DEF79EF7DEF7BEF7FFFFDEF7FFFF6A
:104CB000BEF7FFFFBEF7DFFFDFFFFFFFDFFFDFFF16
:104CC000DFFFFFFFFFFFDEF7FFFFFFFFFFFFDFF765
:104CD000FFFFFFFFFFFFFFFFFFFF5EE7103A5FAE42
:104CE000DD95BD8DDD8DDE95DE95FE9D1E9E1E9EA5
:104CF0001E9E3EA65FA65FA65FAE7FAE9FAE9FB62E
:104D00009FB69FB6BFB6DFBEBFB6BFBEBFBEDFBEDB
:104D1000DFBEDFC6DFC61FCF3FD73EE71AEE16ED78
:104D2000F7DC149CB68C789D3BB6FDCE9FE7DFE7A1
:104D3000DFE79FE77FDF9FE77263B68C389DFBBD9F
:104D4000FFFFFFFFFFFFFFFFFFFFFFFFFFFFFFFF73
:104D5000FFFFFFFFFFFFFFFFFFFFFFFFFFFFFFFF63
:104D6000FFFFFFFFFFFFDFFFFFFFFFFFFFFFFFFF73
:104D7000FFFFFFFFFFFFFFFFDFFFFFFFFFFFFFFF63
:104D8000DFFFDFFFFFFFFFFFFFFFDFFFFFFFFFFF93
:104D9000FFFFDFFFFFFFFFFFFFFFFFFF748C9CD6CD
:104DA000FFFFFFFFFFFFFFFFFFFFFFFFFFFF1CE70E
:104DB0007EEF9EF7DFFFFFFFFFFFFFFFFFFFFFFF1D
:104DC000FFFFFFFFFFFFDFF7FFFFFFFFFFFFDFFF3B
:104DD000DFFFFFFFFFFFFFFFBEF7FFFFFFFFFFFF4C
:104DE0009EEFFFFFFFFFFFFFBFF7DFF7DFFFFFFFD4
:104DF000FFFFBEF7FFFFFFFFFFFF9AD639C63CE774
:104E0000BFF7FFFFFFFFFFFFFFFFFFFFFFFFFFFFFA
:104E1000FFFFFFFFFFFFFFFFFFFFFFFFFFFFFFFFA2
:104E2000FFFFFFFFFFFFFFFFFFFFFFFFFFFFFFFF92
:104E3000FFFFFFFFFFFFFFFFFFFFFFFFFFFFFFFF82
:104E4000FFFFFFFFFFFFFFFFFFFFFFFFFFFFFFFF72
:104E5000FFFFFCDE7CB5DCB5DCB5FCB53EBE7EC636
:104E60007DBEBEC67DC69DC65CC65EDFFFEFFFF79A
:104E7000FFF7FFF7FFF7DFF7FFF7FFF7FFF7DFF7C2
:104E8000FFF7FFFFFFF7FFF7FFF7FFF7FFF7DFF78A
:104E9000FFF7DFF7DFF7DFF7FFF7FFFFFFFFFFFFAA
:104EA000FFF7BFF7BEEF9FEFBFE77FDFDFC6DFCEC5
:104EB0005FB63FA63FA63EA65EA65FA65FA67FA6FC
:104EC0005E9E5E9E7FA69FA6BFAEBFAEBFAEDFAEAC
:104ED000DFAEDFA6BFA6DFAEDFAEDFAEBFA69FA60A
:104EE0007E9E7E9EBFA69FA69FA69FA69FA69FA6CC
:104EF0009FA69F9E9F9E7F9EDC857E9E9FA69F9ED7
:104F00009F9EBFA69EA69EA69FA69FA69FA69FA663
:104F1000BFA65FD7FFF7FFFFFFFFFFFFFFFFFFF712
:104F2000FFFFFFFFFFFFFFFFFFFFFFFFFFFFFFFF91
:104F3000FFFFDFFFFFFFFFFFDFFFDFFFDFFFDFFF21
:104F4000DFFFDFFFDFFFDFFFDFFFDFFFDFFFFFFF51
:104F5000FFFFFFFFDFF7FFFFDFF7DEF7DEF7DEF72C
:104F6000DEF7DEF7DEF7DEF7DEF7DEF7DEF7DEF799
:104F7000DEF7DEF7DEF7DEF7DEF7DEF7DEF7DEF789
:104F8000BEF7DEF7BDEFBDEFBDEF9DEFBDEF9DEFCF
:104F90009DEF9DEF9DEF9DEF9DEF9DEF9DEF9DEFB1
:104FA0009DEF7DEF9DEF9DEF7DEF7DEF7DEF7DEF41
:104FB0009DEF7DEF9DEF9DEF9DEF7DE77DE79DEF01
:104FC0009DEF9DEF7CEF7CE77CEF7CEF7DEF7CEF4E
:104FD0007DEF7DEF7DEF9DEF9DEF9DEF9DEF9CEFD2
:104FE0009CEF9DEF7CEF9DEF9DEF9DEF9DEF9DEF83
:104FF0009CEF9DEF9DF79DEF9DEF9DF79DF7BDF712
:10500000DADE17C614A5B39C95B517C696B534A5B8
:10501000F3A4B6BD59CE38CE17C638CEBADE34ADFD
:1050200038CE99D6F7C578CEFADE3BE73BE75CEFA2
:105030007CEF7CEF7CEF9DF79CEF9DEF9DF79DF75C
:105040009CF7BCF79CEFBDF79DF7BDF7BDF7BDF72B
:10505000BDF7BDF7BDF7DEF7FEFFFEFFFFFFFFFF69
:10506000FFFFFFFFFFFFFFFFFFFFFFFFFFFFFFFF50
:10507000FFFFFFFFDEFFFFFFFFFFFFFFDEF77DEF1C
:105080003CE75CE7BEF7BEF77DEF3CE71CE779CE77
:1050900017BEBEF7FFFFFFFFFFFFFFFF9EEF5ED7CC
:1050A0005ED77EDFBFE73DD7FFEFDCCEBFE7FFFF78
:1050B0005DE73DD79FDFFCD6FFF7FFF7FCDE7EEF15
:1050C0009DEF5DE77DEFDEF7FFFFFFFFFFFFFFFFD7
:1050D000FFFFFFFFFFFFFFFFFFFFBEF7DEF7FFFF52
:1050E000FFFFDFF7DEF7FFFFDEF7BEF7BEF7BEF725
:1050F000DEF7BEF79DEF7CEF5CE73CE73BE75CE764
:105100003BE73BDF1BDF1BDF3BDF1BDFFAD6D9D6DC
:1051100099CE149D76ADB6AD58C6D39CD3A4D3A476
:10512000D3A4D3ACB3A4B3A4B3A492A4B3A4B3A4A0
:10513000B3A4B3A4D3A4D3A4D3A4D3ACD3A4B3A40F
:10514000B3A4D3A4D3A4D3A4B3A4D3A4D3A4D3A4E7
:10515000D3A4D3A4D3A4D3A4D3A4D3A4D3A4D3A497
:10516000F3ACF3A4929C71947194719471947194C2
:105170007194519451947194719471947194719447
:1051800050947094719471949194F3A434AD34ADAF
:1051900055AD34AD55AD55AD55AD55AD55AD55AD20
:1051A00055AD96B596B596B5B7B596B5B6B5B7B58E
:1051B000B7B5B7BDD7BDD7BDB7B5B7B5D7BDD7BDE7
:1051C000B7B5D7BDF7BDD7BDD7BDD7BDF8BDD7BD26
:1051D000D8BDF8BDB7B5D7BDB7B5B7B5D8BDD7BD84
:1051E00096B5B7B5D8BD76AD76AD76ADD7BD96AD33
:1051F00096B596B5D7BD35A535A5F39CB7B5B6B56B
:10520000F49C149DB7B576ADD394929414A5D7B5FC
:1052100035A539C676ADD7B555ADD39CF49C39C606
:1052200059C659CE59CE39C639C659CE59CE59C6A6
:1052300059CE59C659CE38C638C638C6F7BDB6B5E8
:10524000B6B5B6B5D7BDF7BD18C6F7BDF7BD38C6FC
:1052500038C617C6D6B5B6B5B6B5D6B575AD75AD43
:1052600055ADAF732F6B7173716B9273F37B959424
:10527000B694B694D79435845584968C1384159D32
:1052800059C659C659C67ACE39C659C65AC6D7B5AF
:1052900097AD19BE56A556A539C697AD39C697AD77
:1052A00097AD19BEF8BD39C6F8BDD8B518BEF8BD62
:1052B00018BEF8BD39C67ACEF49CFFFF79CE929421
:1052C000FFFFFEFFFEFFDEFFDEFFFCFEF9F57BF6D3
:1052D0005AEEFFFFDEF7DEF7DEF7DEFFDEFFDEF77A
:1052E000DEF7DFFF3CE7DEF7DEF7FFFF9EF7DEF7D6
:1052F000DEF7FFFF9DEFBEF7DFFFFFFFDEF7DEF714
:10530000DFFFFFFFDFFFDEF7FFFFFFFFFFFFFFFF16
:10531000FFFFDFF7FFFFFFFFFFFF5EEF514ABFC652
:10532000FE9DDD8DDE95DE951E9E3E9E1E9E1E9E82
:105330003E9E5FA65FA65FA67FAE7FAE9FAE9EAE8F
:105340009FB6BFB6BFBEDFBEDFBEDFC6BEBEDFC616
:10535000DFC6DFC6DFC61FD75FDF3EE71AE616ED02
:10536000F6DC75A4D694169537951695179599A5DC
:105370005CBE5FDF7FDF9FE7D373557C389DFBB555
:10538000FFFFFFFFFFFFFFFFFFFFFFFFFFFF9DE7A7
:10539000FFEFDFDFFCCEFFF7FFFFFFFFFFFFFFFFA9
:1053A000FFFFFFFFFFFFDFFFFFFFFFFFFFFFFFFF2D
:1053B000DFFFFFFFFFFFFFFFDEF7FFFFFFFFFFFF46
:1053C000DFFFFFFFFFFFFFFFFFFFDFFFFFFFFFFF2D
:1053D000FFFFFFFFFFFFFFFFFFFFFFFFF59CFABD91
:1053E000FFFFFFFFFFFFFFFFFFFFFFFFFFFFFFFFCD
:1053F000FFFFFFFFFFFFFFFFFFFFFFFFFFFFFFFFBD
:10540000FFFFFFFFFFFFDFFFFFFFFFFFFFFFDFFFEC
:10541000DFFFFFFFFFFFFFFFBEF7FFFFDFFFFFFF25
:10542000BEF7FFFFDFFFFFFFDFF7DFF7FFFFFFFF45
:10543000FFFF7DEFFFFFDFF7FFFF1CDF18C6FCDE7D
:10544000BFF7FFFFFFFFFFFFFFFFFFFFFFFFFFFFB4
:10545000FFFFFFFFFFFFFFFFFFFFFFFFFFFFFFFF5C
:10546000FFFFFFFFFFFFFFFFFFFFFFFFFFFFFFFF4C
:10547000FFFFFFFFFFFFFFFFFFFFFFFFFFFFFFFF3C
:10548000FFFFFFFFFFFFFFFFFFFFFFFFFFFFFFFF2C
:10549000FFFF9EEF7AADDCB5DCADFCAD3DBE7EC658
:1054A0007EC69EC67DC67DC65DC61EDFFFF7FFF7C2
:1054B000FFF7FFF7FFF7FFF7DFF7FFF7FFF7DFF77C
:1054C000DFF7FFF7FFF7FFF7FFF7FFF7FFF7FFF74C
:1054D000FFF7DFF7DFF7DFF7DFF7FFF7FFFFFFF794
:1054E000FFF7BFEF7EE75EDF9FE75FDFFFCEFFD610
:1054F0007FBE1EA63FA63EA63E9E5EA65EA67FA6D9
:105500005FA65EA67FA69FA69FA6BFAEBFAEBFA6A4
:10551000BFA6BFA6BFA6BFA6BFA6DFA6BFA69FA663
:105520009E9E9E9E9FA69F9E9F9E9F9E9F9E9FA685
:105530009F9E9F9E9F9E7F9E1D969F9E9F9E9F9E2D
:105540009F9E9F9E9EA69FA69F9E9F9E9F9E9F9E64
:10555000BFA61FCFFFF7FFFFFFFFFFFFFFFFFFF714
:10556000FFFFFFFFFFFFFFFFFFFFFFFFFFFFDFFF6B
:10557000FFFFDFFFDFFFDFFFFFFFDFFFFFFFDFFFDB
:10558000DFFFDFFFDFFFDFFFDFFFDEF7DEF7DEF746
:10559000DEF7DEF7DEF7DEF7BEF7DEF7DEF7DEF783
:1055A000BEF7BEF7BEF7BEF7BEF7BDF7BEF7BEF754
:1055B000BEF7BDF7BDF7BEF7BDF7BEF7BDEFBDEF58
:1055C0009DEF9DEF9DEF9DEF9DEF9DEF9DEF9DEF7B
:1055D0009DEF9DEF9DEF9DEF9DEF9DEF9DEF9DEF6B
:1055E0007DEF7DEF7DE79DEF7DEF7DE79DEF9DEF0B
:1055F0007DEF7DEF9DEF9DEF9DEF7CEF7DEF9DEFCC
:105600009DEF7CEF7CEF9DEF9DEF9DEF9DEF9DEF7C
:105610009DEF9DEF9DEF9DEF9DEF9DEF9CEF9CEF2C
:105620009DEF9DEF9CEF9DEF9DEF9DEF9CEF9DEF1C
:105630009DEF9DEF9DEF9DEF9DEF9DF79DF71BDF8C
:1056400017C637C695B513A5F7C595B514ADF3A420
:10565000B6BD38CE18C617C638CEFBDEF3A479D651
:1056600099D617C678CEFADE1BE73BE75CEF5CEF16
:105670007CEF7CEF9CEF9DF79CF79CEF9CF7BCF7D1
:105680009CF7BDF7BDF7BDF7BDF7BDF79DEFBDF7C3
:10569000BDF7BDF7BDF7DDF7FEFFFEFFFFFFFFFF24
:1056A000FFFFFFFFFFFFFFFFFFFFFFFFFFFFFFFF0A
:1056B000FFFFFFFFFFFFFFFFFFFFFFFFFFFFFFFFFA
:1056C000FFFFFFFFFFFFFFFFFFFFFFFFDFFFDEF733
:1056D0009EF7FFFFFFFFFFFFFFFFBEF73DE7BFEFB6
:1056E000FCCE7EDF7EDF1DD7FFEF1DCFDFEFFFF7A4
:1056F0007EE77FDF9FDF5EDFFFFFFFF71DDFBEEF8F
:10570000BEF7FFF7FFFF1CDFBEEFFFFFFFFFFFFF4E
:10571000FFFFFFFFFFFFFFFFFFFFFFFFFFFFFFFF99
:10572000FFFFFFFFFFFFFFFFDEF7FFFFFFFFFFFFB2
:10573000FFFFDFFFDFF7BEF79DEF9DF79DF75CE70B
:105740003BDF3BDF3BDFFAD6DAD61AD7D9CEF9D624
:10575000B9CEB6ADF7B578C638BEF7BD929CD3A426
:10576000D3A4D3A4D3A4D3A4B3A493A493A4B3A441
:10577000D4A4D3A4D3A4B3ACB3A4D4ACD4ACD4AC8D
:10578000D4ACD4ACD4ACF4ACD4ACD4ACD3A4D4A40A
:10579000F4A4D3A4D4A4F4ACF3A4D3A4D3A4D3A4E6
:1057A000F3A414ADF3A4929CB29CB29C7194929C0D
:1057B000929C719491947194719471945194308CE1
:1057C000508C7194508C508C9294F3A4F3A4F3A455
:1057D000F4A414A5F3A414A514A534AD14A535ADF3
:1057E00035AD75AD76B596B596B596B5B6B596B5F3
:1057F000B6B597B5B7BDB7B5B7B5B7B5B7B5B7B562
:10580000B7B5B7B5D8BDD7BDB7B5D7BDF8BDF8BD2D
:10581000D7BDD7BDD8BDD7BDD8BDD8BDF8BDF8BDA3
:10582000F8BDF8BDD8BDF8BDF8BDF8BDF8BDF8BDF0
:10583000F7BDF8BDD8BDF8BD18C6F8BDF8BDD7BDD9
:10584000D7B576ADD7B5B7B514A535A514A5D7BDD1
:1058500035A518C696B5F8BDF8BD55A5D39CB7B506
:1058600038C638C638C638C638C638C659C638C627
:1058700038C638C638C638C638C638C618C6F7BDA2
:10588000F7BDF7BDF7BDF7BD18C618C638C638C690
:1058900038C638C6F7BDD7BDB6B575AD55AD54A53C
:1058A00054AD75ADB394B073506BEF5A10639173F0
:1058B000726B9273F47B9273D373558C77AD59C628
:1058C00059C659C639C67ACE39C63AC63AC619BE7D
:1058D000F8BDF8BD97ADB7B5F8BD56A5F8BD97AD05
:1058E00076AD39C677AD76AD39C656AD18BE35A59D
:1058F00097B596B576ADDBDED39CFFFF79CE71947C
:10590000FFFFFEFFFFFFBADE1CF777DDD8E5D8E525
:1059100059DEFFFFDEF7DEFFDEF7DEFFDEFFDFF73B
:10592000DFF7DFFF3CE7DEFF7DEFFFFF7DEFDEF718
:10593000BEF7FFFF9EF7DEF7DEF7FFFFDEF7DFFFC4
:10594000FFFFFFFFFFFFDEF7FFFFFFFFFFFFBEF7D9
:10595000FFFFFFFFFFFFFFFFFFFF7EEFEF41BFC62F
:10596000FE9DBD8DDD95FE95FE951E9E1E9E3E9E66
:105970003E9E5FA65FA65FA67FAE7FAE7FAE9FB660
:105980009FB6BFBEBFBEDFBEDFBEBFC6DFC6DFC6BF
:10599000DFC6FFCEDFC61FCF3FD73EE7D9E5F6EC27
:1059A000F6DC54A4D694F6A4F6A4F58CF68CD68C2A
:1059B00096849CC69FE79FE71474557C79A57AA5C9
:1059C000FFFFFFFFFFFFFFF7FFFFFFFFFFFFFFEFFF
:1059D0001CB7FCA6FFDFFFF7FFFFFFFFFFFFFFFF86
:1059E000FFFFFFFFFFFFFFFFFFFFFFFFFFFFFFFFC7
:1059F000BEF7FFFFFFFFFFFFDFFFFFFFFFFFFFFF20
:105A0000FFFFDFFFFFFFFFFFFFFFBEF7FFFFFFFF0F
:105A1000FFFFDFFFFFFFFFFFFFFFFFFFB8B599B5F7
:105A2000FFFFFFFFFFFFFFFFFFFFFFFFFFFFFFFF86
:105A3000FFFFFFF7FFF7FFFFFFFFFFFFFFFFFFFF86
:105A4000FFFFFFFFFFFFDFFFFFFFFFFFFFFFFFFF86
:105A5000DFFFFFFFFFFFFFFF9EF7FFFFDFF7FFFF07
:105A6000BEF7DFF7FFFFFFFFFFFF7DEFFFFFFFFF49
:105A7000FFFF9EF7FFFFDFFFFFFF7DEF18BEDBD6C6
:105A80007EEFFFFFFFFFFFFFFFFFFFFFFFFFFFFFB7
:105A9000FFFFFFFFFFFFFFFFFFFFFFFFFFFFFFFF16
:105AA000FFFFFFFFFFFFFFFFFFFFFFFFFFFFFFFF06
:105AB000FFFFFFFFFFFFFFFFFFFFFFFFFFFFFFFFF6
:105AC000FFFFFFFFFFFFFFFFFFFFFFFFFFFFFFFFE6
:105AD000FFFFFFFF99B5BCB5BBADFCB53DBE9EC693
