:020000040800F2
:10000000500400209D010008CB0D0008E10C000801
:10001000C90D0008A9020008151100080000000021
:10002000000000000000000000000000CF0D0008EC
:10003000AB02000800000000CD0D0008D10D000843
:10004000B7010008B7010008B7010008B7010008B0
:10005000B7010008B7010008B7010008B7010008A0
:10006000B7010008B7010008B7010008B701000890
:10007000B7010008B7010008B7010008B701000880
:10008000B7010008B7010008B7010008B701000870
:10009000B7010008B7010008B7010008B701000860
:1000A000B7010008B7010008B7010008B701000850
:1000B000B7010008B7010008B7010008B701000840
:1000C000B7010008B7010008B7010008B701000830
:1000D000B7010008B7010008B7010008B701000820
:1000E000B7010008B7010008B7010008B701000810
:1000F000B7010008B7010008B7010008B701000800
:10010000B7010008B7010008B7010008B7010008EF
:10011000B7010008B7010008B7010008B7010008DF
:10012000B7010008B7010008B7010008B7010008CF
:10013000B7010008B7010008B7010008B7010008BF
:10014000B7010008B7010008B7010008B7010008AF
:10015000B7010008B7010008B7010008B70100089F
:10016000B7010008B7010008B7010008B70100088F
:10017000B7010008B7010008B7010008000000003F
:10018000B7010008B7010008DFF80CD000F07AF8DA
:1001900000480047551100085004002006488047D9
:1001A00006480047FEE7FEE7FEE7FEE7FEE7FEE75C
:1001B000FEE7FEE7FEE7FEE7590E000889010008AA
:1001C0002DE9F05F0546002092469B46884606468C
:1001D000814640241BE0284641464746224600F01F
:1001E00041F853465A46C01A914110D31146184659
:1001F000224600F028F82D1A67EB01084F462246E8
:100200000120002100F01FF817EB00094E41201ECD
:10021000A4F10104DFDC484631462A464346BDE8E6
:10022000F09FD2B201E000F8012B491EFBD27047CB
:100230000022F6E710B513460A4604461946FFF7B2
:10024000F0FF204610BD202A04DB203A00FA02F11C
:10025000002070479140C2F1200320FA03F31943B4
:1002600090407047202A04DB203A21FA02F0002156
:10027000704721FA02F3D040C2F1200291400843B6
:1002800019467047064C074D06E0E06840F0010350
:1002900094E8070098471034AC42F6D3FFF778FF94
:1002A000E411000804120008FEE7704770470000E0
:1002B00070B5044600F0E6F80546601C02D004481C
:1002C0000078044400F0DEF8401BA042FAD370BD71
:1002D000000000202DE9F84FDFF87CB100224FF03C
:1002E00001084FF0030A4FF00F090BF1040E00BF95
:1002F0000B6808FA02F42340A3426ED14D68022D28
:1003000001D0122D0ED1D50800EB850CDCF8205061
:100310005607F70E09FA07F6B5430E69BE402E439D
:10032000CCF82060066855000F790AFA05FC07F042
:10033000030726EA0C06AF40374307604E68012EDC
:1003400005D0022E03D0112E01D0122E0ED18668B8
:10035000CF6826EA0C06AF40374387604668A6435D
:100360000C79C4F30014944034434460C6688C682C
:1003700026EA0C06AC403443C4604C68E40065D502
:10038000364C256845F480452560246822F0030535
:1003900004F480440094324C2E19D6F8084895078E
:1003A0002F0F09FA07F5AC432E4DA84201D10025C5
:1003B00024E02D4DA84201D101251FE02B4DA8427C
:1003C00001D102251AE02A4DA84201D1032515E0EA
:1003D000284DA84202D1042510E037E0264DA8425E
:1003E00001D105250AE0254DA84201D1062505E0E9
:1003F000234DA84201D1072500E00825BD40254333
:10040000C6F80858DBF800405D464E689C43F6038A
:1004100000D51C432C60DEF8004075464E689C43B6
:10042000B60300D51C432C600B4D08352C684E6874
:100430009C43F60200D51C432C60074D0C352C68FC
:100440004E689C43B60200D51C432C60521C102AF7
:10045000FFF44EAFBDE8F88F003C01404438024045
:100460000030014000000240000402400008024049
:10047000000C02400010024000140240001802402C
:10048000001C024001488068704700000000002006
:1004900002488168027811448160704700000020A2
:1004A0000B4810B5016841F400710160016841F426
:1004B00080610160016841F480710160032000F0F7
:1004C00061F8002000F006F800F024F8002010BDCC
:1004D000003C024070B50D4D04464FF47A71287807
:1004E000B1FBF0F00A490968B1FBF0F000F0B4FA92
:1004F00048B9102C07D200222146501E00F022F8E5
:1005000000206C6070BD012070BD00000000002064
:100510000C0000200A4808B5016841F480410160E0
:10052000006800F4804000900548001F016841F019
:1005300080510160006800F08050009008BD00000C
:1005400044380240F0B40E4B1B680C46C3F3022340
:10055000C3F10705042D00D90425191D072901D26F
:10056000002300E0DB1E012606FA05F1491E2140AA
:1005700099409E40761E16403143F0BC00F0CBBD42
:100580000CED00E0064900F0070208684FF6FF0393
:10059000184040EA0220034A1043086070470000F8
:1005A0000CED00E00000FA052DE9F0470E460500CD
:1005B00065D0DFF81481D8F80000F7B200F00F0022
:1005C000B04207D288F80070D8F8000000F00F00A1
:1005D000B04254D128683D4C810712D5400703D55D
:1005E000206840F4E05020602878000703D5206898
:1005F00040F4604020602068A96820F0F0000843C3
:1006000020602878C0072DD0304968680839012853
:1006100012D0022813D0032811D0096889070029B5
:100620002DDA216821F0030101432160FFF72AFF41
:10063000814641F2883A0EE009688903EFE70968CC
:100640008901ECE7FFF71EFFA0EB0901514502D934
:100650000320BDE8F0872068696800F00C00B0EB6B
:10066000810FEFD1D8F80010404601F00F01B142E0
:1006700007D90770006800F00F00B04201D00120D8
:10068000E7E72878400705D52068E96820F4E050BE
:10069000084320602878000706D52068296920F4DF
:1006A000604040EAC100206000F016F82168084A66
:1006B000C1F30311515CC840064908600020FFF7F0
:1006C00009FF0020C5E70000003C02400838024056
:1006D000D41100080C000020154810B5006810F077
:1006E0000C02144813D01449042A0FD0082A0ED142
:1006F0000F4C241F2268236802F03F025B0207D5DB
:100700002068C0F38810A0FB010106E0084610BD78
:100710002168C1F38811A1FB00010023FFF750FD00
:100720002168C1F30141491C4900B0FBF1F010BD43
:10073000083802400024F40040787D012DE9F84F8C
:10074000050076D02878DFF8F8B2BE4CC00749D053
:10075000DBF800105846C1F38101012908D0006878
:10076000C0F3810002280AD1201D0068400206D58E
:100770002068800336D568680028E2D032E06868D7
:10078000B0F5803F10D0B0F5A02F206810D020F435
:1007900080302060206820F4802020606868A0B14C
:1007A000FFF770FE06460CE0206840F48030F4E766
:1007B00040F480202060F7E7FFF764FE801B642888
:1007C00073D820688003F7D50CE0FFF75BFE064680
:1007D00005E000BFFFF756FE801B6428F0D82068B4
:1007E0008003F7D42878DFF8608280074FF0000993
:1007F0003ED5DBF80010584611F00C0F09D0006808
:10080000C0F3810002280BD18D48001F0068400210
:1008100006D42068800715D5E868012809D111E0C1
:10082000E868B8B10120C8F80000FFF72BFE0646C3
:1008300005E002E1FFF726FE801B0228C0D82068F1
:100840008007F7D52068296920F0F80040EAC10048
:1008500020600DE0C8F80090FFF714FE064604E0A3
:10086000FFF710FE801B02281FD820688007F7D4EE
:100870002878000722D5724E744869696C3671B1C8
:1008800001210160FFF7FEFD074604E0FFF7FAFDD6
:10089000C01B022809D830688007F7D50EE0C0F8E1
:1008A0000090FFF7EFFD074605E083E0FFF7EAFD64
:1008B000C01B02287ED830688007F7D4287840070C
:1008C00068D5DFF87CA100270AF1380ADAF80000C1
:1008D000C0000BD4DAF8001041F08051CAF80010C3
:1008E000DAF80000012700F080500090584E306880
:1008F000C00510D4306840F480703060FFF7C2FD4E
:10090000009005E0FFF7BEFD0099401A022851D87B
:100910003068C005F6D54A4EA868683601280FD061
:100920000528306810D020F001003060306820F0D9
:1009300004003060A868B8B1FFF7A4FD00900FE094
:10094000306840F00100F4E740F004003060F7E761
:10095000FFF798FD0099411A41F28830814264D82E
:1009600030688007F4D50EE0FFF78CFD009007E0BB
:10097000FFF788FD0099411A41F28830814254D82E
:1009800030688007F4D42FB1DAF8001021F08051DC
:10099000CAF80010A869C0B3DBF80010C1F38101E8
:1009A00002294AD00228484607D0C8F86000FFF75D
:1009B00069FD00E039E005463AE04746C8F86000C6
:1009C000FFF760FD064604E0FFF75CFD801B022890
:1009D0002BD820688001F7D4D5E907010843A96A1C
:1009E0001C4A490802EB01416A6A41EA8211084344
:1009F00095F82C1040EA01611148001F01600120A8
:100A00003866FFF73FFD054605E014E0FFF73AFDC5
:100A1000401B022809D820688001F7D50BE000BFF1
:100A2000FFF730FD401B022802D90320BDE8F88FF4
:100A300020688001F4D40020F8E70120F6E70000E8
:100A4000083802400038024000004742800E47420A
:100A5000007000400000FFFF10B5401EB0F1807F25
:100A600001D3012010BD4FF0E02460610F21601719
:100A700000F051FB0020A06107202061002010BD84
:100A800010B590F83C20012A22D0012280F83C20A9
:100A9000CA688C6822F4407222434C6822F4806257
:100AA00022430C6822F4006222430C6922F4805233
:100AB00022434C6922F400522243C969002322F4E4
:100AC00080420A4301684A6480F83C30002010BD2F
:100AD000022010BD70B590F83C20012A19D00124E5
:100AE00000F83C4F0222427050F83C3C5A689D6826
:100AF00022F070060A684968324325F080052943D0
:100B00005A6050F83C2C91604470002101700846F6
:100B100070BD022070BD000010B586B004461421DF
:100B20006846FFF785FB0E492068884216D10D48BC
:100B30000021026842F010020260006800F010001C
:100B400005904FF4007000900220CDE901010120D2
:100B5000CDE9031069460448FFF7BCFB06B010BDA1
:100B600000000140303802400010024070B50446D9
:100B700090F83C000D4601280DD0012684F83C6019
:100B8000022084F83D0042B1042A18D0082A2AD055
:100B90000C2A4DD139E0022070BD206800F0F8F930
:100BA0002068816941F0080181612068816921F034
:100BB00004018161206881692A69114311E020687C
:100BC00000F016FA2068816941F4006181612068B3
:100BD000816921F480618161206881692A6941EA23
:100BE0000221816124E0206800F038FA2068C169A0
:100BF00041F00801C1612068C16921F00401C161AF
:100C00002068C1692A69114311E0206800F05AFA8E
:100C10002068C16941F40061C1612068C16921F4A3
:100C20008061C1612068C1692A6941EA0221C1610C
:100C300084F83D60002084F83C0070BD10B50400CD
:100C400003D094F83D0010B107E0012010BD002052
:100C500084F83C00204600F00DF8022084F83D00A6
:100C6000211D206800F022F9012084F83D000020B9
:100C700010BD000008B500680649884208D1064842
:100C8000016841F001010160006800F0010000907E
:100C900008BD0000000001404438024010B5044681
:100CA0000068012200F066F90B492068884202D0F2
:100CB0000A49884203D1416C41F4004141642068F3
:100CC000816801F00701062903D0016841F00101A4
:100CD0000160002010BD0000000001400004014040
:100CE000FEE700000D4808B5016841F08001016091
:100CF000016801F080010091016841F0100101607C
:100D0000016801F010010091016841F001010160EA
:100D1000006800F00100009008BD0000303802407B
:100D200010B592B000240F941C2108A81094FFF76E
:100D30007FFA20216846FFF77BFA224820490160AC
:100D400040F28F61C0E9011444F61F61C0E9031449
:100D500044618461FFF772FF08B1FFF7A7FA0F94AF
:100D60000FA918481094FFF7B5FE08B1FFF79EFAD7
:100D70006020089044F62060CDE909040B940C949F
:100D80000D94002208A90F480E94FFF7EFFE08B15A
:100D9000FFF78CFA00944FF40050CDE90440029420
:100DA00001940394694607480794FFF769FE08B168
:100DB000FFF77CFA0348FFF7AFFE12B010BD00004A
:100DC0000000014010000020FEE7704770477047A8
:100DD000FFF75EBB30B593B030216846FFF728FAC5
:100DE00014210CA8FFF724FA19480025016841F0E6
:100DF00080510160006800F0805011901548016832
:100E000041F4804101600068022400F480401190A8
:100E10000120039010200490009406940820CDE94E
:100E20000750A820CDE9090404200B906846FFF77D
:100E300085FC0CA90F2081E831004FF4A0500F90E1
:100E4000E002109005210CA8FFF7AEFB13B030BDF7
:100E500040380240007000401048016841F47001C1
:100E600001600F48016841F0010101600C4A002156
:100E70000832116002680B4B1A400260031D0A4AD7
:100E80001A60026822F48022026005480C3001607A
:100E900002495806803908607047000088ED00E07C
:100EA00000380240FFFFF6FE10300024F0B5026863
:100EB000254C264D264E274F274B4FF0804CA04205
:100EC00009D0604507D0A84205D0B04203D0B8424F
:100ED00001D0984204D122F0700E4A6842EA0E0214
:100EE000A0421BD0604519D0A84217D0B04215D0FF
:100EF000B84213D0984211D0184DA8420ED0184DC8
:100F0000A8420BD0174DA84208D0174DA84205D0D3
:100F1000164DA84202D0164DA84203D122F44075C6
:100F2000CA682A434D6922F080022A4302608A6817
:100F3000C2620A688262A04201D0984201D1096966
:100F4000016301214161F0BD000001400004004047
:100F500000080040000C0040000401400040014037
:100F6000004401400048014000180040001C0040BF
:100F70000020004010B501F01F030121046A9940D0
:100F80008C430462016A9A401143016210BD000063
:100F9000F0B5026A22F001020262036A42688469C3
:100FA000124E24F073050C682C4323F002058B6865
:100FB0002B430D4DA84201D0B04205D123F00807C4
:100FC000CB683B4323F00403A84201D0B04205D1D3
:100FD0004D6922F4407215438A692A434260846154
:100FE000496841630362F0BD000001400004014014
:100FF000F0B5026A22F010020262026A4368846954
:101000000D6824F4E64444EA05248D6822F02002A9
:1010100042EA05120F4D104EA84201D0B04206D14F
:10102000CF6822F0800242EA071222F04002A84272
:1010300001D0B04207D14D6923F4406343EA8503F0
:101040008D6943EA85034360846149688163026274
:10105000F0BD00000000014000040140F0B5026A4C
:1010600022F480720262026A4368C46922F4007248
:1010700024F073050C68124E2C438D6842EA052259
:101080000E4DA84201D0B04206D1CF6822F40062D2
:1010900042EA072222F48062A84201D0B04207D17E
:1010A0004D6923F4405343EA05138D6943EA051360
:1010B0004360C4614968C1630262F0BD0000014041
:1010C0000004014030B5026A22F480520262046AD0
:1010D0004268C3690D6823F4E64343EA05238D683B
:1010E00024F4005444EA0534084DA84202D0084DC7
:1010F000A84204D14D6922F4804242EA851242603E
:10110000C36149680164046230BD00000000014011
:1011100000040140FEE70907090E002804DB00F186
:10112000E02080F80014704700F00F0000F1E0208C
:1011300080F8141D704702E008C8121F08C1002A79
:10114000FAD170477047002001E001C1121F002A48
:10115000FBD170470024FFF7A3F9FFF73BFEFFF731
:10116000C1FDFFF7DDFD00210D48FFF797FD0A20C7
:10117000FFF79EF84FF4FA7944F62068C9F10007AA
:101180004D46464602E0B44200D13D462C44A0B252
:1011900000F008F80A20FFF78BF8002CF0D0F2E7F7
:1011A0001000002000B587B06021CDE900100020BC
:1011B0000290039004900590024606906946044808
:1011C000FFF7D4FC00210248FFF768FD07B000BD1F
:1011D00010000020000000000000000001020304D5
:1011E0000607080904120008000000201000000093
:1011F00036110008141200081000002040040000FE
:10120000461100080100000010000000000000006E
:041210000024F400C2
:040000050800018965
:00000001FF
