:020000040800F2
:10000000700D0020C1010008E7110008C7100008AA
:10001000E511000885030008DD1500080000000058
:10002000000000000000000000000000EB110008CC
:100030008703000800000000E9110008ED11000826
:10004000DB010008DB010008DB010008DB01000820
:10005000DB010008DB010008DB010008DB01000810
:10006000DB010008DB010008DB010008DB01000800
:10007000DB010008DB010008DB010008DB010008F0
:10008000DB010008DB010008DB010008DB010008E0
:10009000DB010008DB010008DB010008DB010008D0
:1000A000DB010008DB010008DB010008DB010008C0
:1000B000DB010008DB010008DB010008DB010008B0
:1000C000DB010008DB010008DB010008DB010008A0
:1000D000DB010008DB010008DB010008DB01000890
:1000E000DB010008DB010008DB010008DB01000880
:1000F000DB010008DB010008DB010008DB01000870
:10010000DB010008DB010008DB010008DB0100085F
:10011000DB010008DB010008DB010008DB0100084F
:10012000DB010008DB010008DB010008DB0100083F
:10013000DB010008DB010008DB010008DB0100082F
:10014000DB010008DB010008DB010008DB0100081F
:10015000DB010008DB010008DB010008DB0100080F
:10016000DB010008DB010008DB010008DB010008FF
:10017000DB010008DB010008DB01000800000000D3
:10018000DB010008DB010008DB010008DB010008DF
:10019000DB010008DB010008DB010008DB010008CF
:1001A000DB010008DB010008DB010008DFF80CD0F0
:1001B00000F07AF800480047BD1A0008700D0020D2
:1001C0000648804706480047FEE7FEE7FEE7FEE7F1
:1001D000FEE7FEE7FEE7FEE7FEE7FEE7791200082E
:1001E000AD0100082DE9F05F0546002092469B46D0
:1001F00088460646814640241BE02846414647463D
:10020000224600F041F853465A46C01A914110D395
:1002100011461846224600F028F82D1A67EB01080F
:100220004F4622460120002100F01FF817EB00097D
:100230004E41201EA4F10104DFDC484631462A4627
:100240004346BDE8F09FD2B201E000F8012B491E01
:10025000FBD270470022F6E710B513460A46044663
:100260001946FFF7F0FF204610BD202A04DB203A94
:1002700000FA02F1002070479140C2F1200320FAF9
:1002800003F3194390407047202A04DB203A21FAF7
:1002900002F00021704721FA02F3D040C2F120029F
:1002A0009140084319467047064C074D06E0E06848
:1002B00040F0010394E8070098471034AC42F6D3AD
:1002C000FFF778FF581C0008781C00082DE9F84358
:1002D0001C4C0026012708250096C4E90075C4E9D6
:1002E000027681464FF6FF7842462146164800F0D6
:1002F000DBFD012000F0DCF80220E66084E8A100CC
:1003000042462146104800F0CFFD0320C4E9000515
:10031000C4E90256424621460B4800F0C5FD4FF4A1
:1003200008700090C4E902700421C4E90015424637
:100330002146054800F0B8FD4946BDE8F8430248AB
:1003400000F081BDE8000020F808002013460A46AE
:1003500010B50146034800F087FD002800D00120B9
:1003600010BD0000F808002013460A4610B50146EB
:10037000034800F0B1FD002800D0012010BD0000AE
:10038000F8080020FEE77047704730B5D1E9012337
:100390001A43D1E903352B431A434B690C681A43BE
:1003A0008B691A43D1E90735012C496A046807D0E3
:1003B0001A432A436FF30E040A43224302600AE001
:1003C00024F4F8442B4321430B43416803606FF34B
:1003D0000E010A434260002030BD426942EA4101F9
:1003E000416100207047F8B514460546D1E9000286
:1003F00010438A686FF01F03C96803EB421242EA98
:10040000412108430090286100F0B8F9064609E050
:10041000601C07D024B100F0B1F9801BA04201D9C3
:100420000320F8BDA8698006F2D40020F8BD0000C2
:10043000F0B56FF00F05D1E9003405EB04145B1E35
:1004400023432E018C682F0306EB042423434FEA39
:10045000054C0C8A8E8ACD68097E4FF07F4E07EBE3
:1004600004440CEB06560EEB0161012A0CD08268A5
:100470003F1107EB05352B432343334302F0704212
:100480000B43134383600FE08768084A17402A0331
:10049000A2F580523243C5683A43234305F07045C4
:1004A0000B432B438260C3600020F0BDFF0F0FFFA2
:1004B00070B5044600F062F90546601C02D004489D
:1004C0000078044400F05AF9401BA042FAD370BDF2
:1004D000140000202DE9F04186B014216846FFF792
:1004E000B9FE2B48016800294FD14FF00108C0F830
:1004F000008028480024016841F001010160006883
:10050000022500F0010005904FF63F00CDE90005FF
:1005100002AA03260C2782E8D00069461E4800F094
:1005200047F802AA694682E8D000CDE900851B4859
:1005300000F03EF848F23310CDE9000502AA694602
:1005400082E8D000164800F033F84FF68370CDE90A
:10055000000502AA694682E8D000124800F028F897
:10056000C020CDE9000502AA694682E8D0000E4805
:1005700000F01EF84CF20370CDE9000502AA6946AE
:1005800082E8D000094800F013F806B0BDE8F08119
:100590000C000020383802400014024000080240DD
:1005A0000018024000100240001C0240000C0240F3
:1005B0002DE9F84FDFF890B100224FF001084FF01D
:1005C000030A4FF00F090BF1040E00BF0B6808FA85
:1005D00002F42340A3426ED14D68022D01D0122DAA
:1005E0000ED1D50800EB850CDCF820505607F70E2D
:1005F00009FA07F6B5430E69BE402E43CCF82060D9
:10060000066855000F790AFA05FC07F0030726EA89
:100610000C06AF40374307604E68012E05D0022E0E
:1006200003D0112E01D0122E0ED18768CE6827EA92
:100630000C07AE403E4386604668A6430C79C4F37F
:100640000014944034434460C4688E6824EA0C0467
:10065000AE402643C6604C68E4006FD53B4C25682D
:1006600045F480452560246822F0030504F48044A5
:100670000094374C2E19D6F8084895072F0F09FA21
:1006800007F5AC43334DA84201D100252EE0324D91
:10069000A84201D1012529E0304DA84201D102250F
:1006A00024E02F4DA84201D103251FE02D4DA84283
:1006B00002D104251AE041E02B4DA84201D10525C5
:1006C00014E02A4DA84201D106250FE0284DA8428A
:1006D00001D107250AE0274DA84201D1082505E0F0
:1006E000254DA84201D1092500E00A25BD4025433A
:1006F000C6F80858DBF800405D464E689C43F60398
:1007000000D51C432C60DEF8004075464E689C43C3
:10071000B60300D51C432C600B4D08352C684E6881
:100720009C43F60200D51C432C60074D0C352C6809
:100730004E689C43B60200D51C432C60521C102A04
:10074000FFF444AFBDE8F88F003C0140443802405C
:100750000030014000000240000402400008024056
:10076000000C024000100240001402400018024039
:10077000001C024000200240002402400148806822
:10078000704700001400002002488168027811447C
:1007900081607047140000200B4810B5016841F4D7
:1007A00000710160016841F480610160016841F4F9
:1007B00080710160032000F061F8002000F006F86D
:1007C00000F024F8002010BD003C024070B50D4D33
:1007D00004464FF47A712878B1FBF0F00A490968B1
:1007E000B1FBF0F000F097FB48B9102C07D20022C3
:1007F0002146501E00F022F800206C6070BD0120E0
:1008000070BD000014000020200000200A4808B538
:10081000016841F480410160006800F4804000906C
:100820000548001F016841F080510160006800F038
:100830008050009008BD000044380240F0B40E4BD8
:100840001B680C46C3F30223C3F10705042D00D92E
:100850000425191D072901D2002300E0DB1E012613
:1008600006FA05F1491E214099409E40761E164029
:100870003143F0BC00F0C4BE0CED00E0064900F0CE
:10088000070208684FF6FF03184040EA0220034AB7
:1008900010430860704700000CED00E00000FA050E
:1008A0002DE9F8431748016841F080510160006864
:1008B000154F00F08050012600903E64FFF75EFF68
:1008C00005464FF47A78114C05E000BFFFF756FF5C
:1008D000401B40450DD86068C003F7D57E64FFF724
:1008E0004DFF0546464607E0FFF748FF401BB04274
:1008F00002D90320BDE8F88360688003F4D50020A6
:10090000F8E700004038024000000E42007000404E
:100910002DE9F0470E46050065D0DFF81481D8F8C0
:100920000000F7B200F00F00B04207D288F8007064
:10093000D8F8000000F00F00B04254D128683D4CB8
:10094000810712D5400703D5206840F4E0502060AD
:100950002878000703D5206840F4604020602068B4
:10096000A96820F0F000084320602878C0072DD047
:10097000304968680839012812D0022813D00328AA
:1009800011D00968890700292DDA216821F00301B7
:1009900001432160FFF7F2FE814641F2883A0EE002
:1009A00009688903EFE709688901ECE7FFF7E6FECC
:1009B000A0EB0901514502D90320BDE8F08720686A
:1009C000696800F00C00B0EB810FEFD1D8F800108F
:1009D000404601F00F01B14207D90770006800F0EE
:1009E0000F00B04201D00120E7E72878400705D585
:1009F0002068E96820F4E050084320602878000768
:100A000006D52068296920F4604040EAC1002060D2
:100A100000F036F82168084AC1F30311515CC84060
:100A2000064908600020FFF7D1FE0020C5E700005E
:100A3000003C024008380240401C00082000002012
:100A40000448054900680968044AC1F38221515CE1
:100A5000C84070472000002008380240501C0008A1
:100A60000448054900680968044AC1F34231515CF1
:100A7000C84070472000002008380240501C000881
:100A8000154810B5006810F00C02144813D0144932
:100A9000042A0FD0082A0ED10F4C241F2268236885
:100AA00002F03F025B0207D52068C0F38810A0FB6C
:100AB000010106E0084610BD2168C1F38811A1FBC1
:100AC00000010023FFF78EFB2168C1F30141491C9F
:100AD0004900B0FBF1F010BD083802400024F400DA
:100AE00040787D012DE9F84F050076D02878DFF8B1
:100AF000F8B2BE4CC00749D0DBF800105846C1F32D
:100B00008101012908D00068C0F3810002280AD1C0
:100B1000201D0068400206D52068800336D568682D
:100B20000028E2D032E06868B0F5803F10D0B0F520
:100B3000A02F206810D020F480302060206820F49E
:100B4000802020606868A0B1FFF718FE06460CE020
:100B5000206840F48030F4E740F480202060F7E71C
:100B6000FFF70CFE801B642873D820688003F7D53C
:100B70000CE0FFF703FE064605E000BFFFF7FEFDB1
:100B8000801B6428F0D820688003F7D42878DFF829
:100B9000608280074FF000093ED5DBF80010584610
:100BA00011F00C0F09D00068C0F3810002280BD1AE
:100BB0008D48001F0068400206D42068800715D5C4
:100BC000E868012809D111E0E868B8B10120C8F847
:100BD0000000FFF7D3FD064605E002E1FFF7CEFD7A
:100BE000801B0228C0D820688007F7D520682969B3
:100BF00020F0F80040EAC10020600DE0C8F8009045
:100C0000FFF7BCFD064604E0FFF7B8FD801B022895
:100C10001FD820688007F7D42878000722D5724EA5
:100C2000744869696C3671B101210160FFF7A6FD56
:100C3000074604E0FFF7A2FDC01B022809D8306870
:100C40008007F7D50EE0C0F80090FFF797FD074644
:100C500005E083E0FFF792FDC01B02287ED83068D4
:100C60008007F7D42878400768D5DFF87CA10027F3
:100C70000AF1380ADAF80000C0000BD4DAF80010E4
:100C800041F08051CAF80010DAF80000012700F0A6
:100C900080500090584E3068C00510D4306840F441
:100CA00080703060FFF76AFD009005E0FFF766FD99
:100CB0000099401A022851D83068C005F6D54A4E2E
:100CC000A868683601280FD00528306810D020F0B9
:100CD00001003060306820F004003060A868B8B1CE
:100CE000FFF74CFD00900FE0306840F00100F4E7A2
:100CF00040F004003060F7E7FFF740FD0099411A2B
:100D000041F28830814264D830688007F4D50EE023
:100D1000FFF734FD009007E0FFF730FD0099411A1E
:100D200041F28830814254D830688007F4D42FB122
:100D3000DAF8001021F08051CAF80010A869C0B399
:100D4000DBF80010C1F3810102294AD0022848468D
:100D500007D0C8F86000FFF711FD00E039E0054654
:100D60003AE04746C8F86000FFF708FD064604E091
:100D7000FFF704FD801B02282BD820688001F7D4E0
:100D8000D5E907010843A96A1C4A490802EB014159
:100D90006A6A41EA8211084395F82C1040EA016121
:100DA0001148001F016001203866FFF7E7FC054687
:100DB00005E014E0FFF7E2FC401B022809D8206898
:100DC0008001F7D50BE000BFFFF7D8FC401B0228DD
:100DD00002D90320BDE8F88F20688001F4D40020F8
:100DE000F8E70120F6E7000008380240003802402A
:100DF00000004742800E4742007000400000FFFFA5
:100E000070B50D46040003D094F82C0010B107E033
:100E1000012070BD002084F82D00204600F011F85C
:100E2000022084F82C00211D2068FFF7AEFAD4E9D7
:100E300000022946FFF7FCFA012084F82C0000206C
:100E400070BDFFF747BB10B5044690F82C00022890
:100E500009D0022084F82C002068FFF7BEFA012098
:100E600084F82C00002010BD10B590F82D40012C06
:100E70000BD0012480F82D4090F82C40022C04D097
:100E800090F82C40052C02D003E0022010BD012078
:100E900010BD1BB110C95B1E10C2FAE7002180F81B
:100EA0002D10084610BD000070B5044690F82C00C7
:100EB0000D4602280DD0022084F82C002068FFF790
:100EC00092FA2868022805D05FF0010084F82C000F
:100ED000002070BD0520F9E710B590F82D40012CD9
:100EE0000BD0012480F82D4090F82C40022C04D027
:100EF000052C04D0042C02D003E0022010BD0120F8
:100F000010BD1BB110CA10C15B1EFAE7002180F8AA
:100F10002D10084610BD10B5401EB0F1807F01D3E2
:100F2000012010BD4FF0E02460610F21601700F038
:100F300067FB0020A06107202061002010BD70B574
:100F4000040004D094F83900002510B106E0012017
:100F500070BD84F83850204600F022F8242084F830
:100F600039002068C16821F40051C160204600F0BA
:100F7000ADF92068016921F490410161206841695F
:100F800021F02A0141612068C16841F40051C1602B
:100F9000E563202084F8390084F83A00002070BD11
:100FA00010B586B0044614216846FFF753F914497A
:100FB0002068884221D11348016841F01001016086
:100FC000006800F0100005900E481438016841F0E8
:100FD000010101600068694600F0010005904FF4CE
:100FE000C060009002200190012002900320039035
:100FF000072004900448FFF7DBFA06B010BD00009C
:101000000010014044380240000002402DE9F8433E
:10101000044690F839001F4616460D46202850D148
:10102000A5B19EB194F8380001284AD0012084F877
:1010300038004FF00008C4F83C80212084F83900C3
:10104000FFF79CFBA6848146E68426E00120BDE8EC
:10105000F883E08C401EE084A0684B46B0F5805FCA
:101060004FF000024FF080012046009703D000F0BF
:1010700083FAE8B90DE000F07FFAC8B92888216842
:10108000C0F308004860206908B16D1C05E0AD1C84
:1010900003E0216815F8010B4860E08C0028D8D1E6
:1010A0004B46002240212046009700F065FA08B127
:1010B0000320CCE7202084F8390084F83880002011
:1010C000C5E70220C3E7FEE700B587B01C216846EC
:1010D000FFF7C0F81548144904220160012141605E
:1010E0000021C0E9021210220261402242619200F6
:1010F000C0E90621D200C0E908218162022008214E
:10110000CDE90001052102910721CDE903100590E9
:101110000320069069460548FFF772FE002801D0BB
:10112000FFF732F907B000BD400100A0F808002029
:101130001D4808B5016841F020010160016801F017
:1011400020010091016841F080010160016801F017
:1011500080010091016841F004010160016801F023
:1011600004010091016841F040010160016801F053
:1011700040010091016841F010010160016801F037
:1011800010010091016841F008010160016801F05F
:1011900008010091016841F001010160006800F060
:1011A0000100009008BD0000303802400C4810B526
:1011B0000A4901604FF4E1314160002181600C2255
:1011C000C160C0E904128161C161FFF7B8FE002867
:1011D00003D0BDE81040FFF7D7B810BD00100140A4
:1011E0002C090020FEE7704770477047FFF7CCBA24
:1011F00070B592B030216846FFF72CF814210CA886
:10120000FFF728F81A480025016841F08051016075
:10121000006800F0805011901648016841F4404188
:1012200001600068022400F4404011900120009009
:10123000000401908001CDE906400F260896D820D1
:10124000CDE9090404200B906846FFF74BFCFFF73B
:1012500027FB4FF4A050CDE90E50E002CDE90C641D
:10126000109005210CA8FFF753FB12B070BD0000D1
:1012700040380240007000401048016841F470019D
:1012800001600F48016841F0010101600C4A002132
:101290000832116002680B4B1A400260031D0A4AB3
:1012A0001A60026822F48022026005480C30016056
:1012B00002495806803908607047000088ED00E058
:1012C00000380240FFFFF6FE103000242DE9F04107
:1012D000044600680169E26821F44051114301614C
:1012E0002169A068E26908436169114322680843E3
:1012F000D16849F20C6399430143D1602068416988
:10130000A26921F4407111434161E2696425B2F59B
:10131000004F9748974922684FF032083FD08A42E1
:1013200001D082427CD1FFF79BFB00EBC00101EBB7
:10133000001061688900B0FBF1F6FFF791FB00EB4C
:10134000C00101EB001061688900B0FBF1F0B0FB57
:10135000F5F06FF01801484306EB800108EB01102F
:10136000B0FBF5F000F0F006FFF77AFB00EBC001F0
:1013700001EB001061688900B0FBF1F0B0FBF5F003
:1013800006EB0016FFF76CFB00EBC00101EB001051
:1013900061688900B0FBF1F7FFF762FBD2E08A4297
:1013A00001D082423DD1FFF75BFB00EBC00101EBB6
:1013B000001061684900B0FBF1F0B0FBF5F00601E8
:1013C000FFF74EFB00EBC00101EB00106168490024
:1013D000B0FBF1F7FFF744FB00EBC00101EB00109D
:1013E00061684900B0FBF1F0B0FBF5F06FF0180157
:1013F000484307EB800108EBC100B0FBF5F000F0BB
:10140000F80006EB4006FFF72BFB00EBC00101EBF9
:10141000001061684900B0FBF1F7FFF721FB3CE0E9
:1014200055E0FFF70DFB00EBC00101EB0010616818
:101430004900B0FBF1F0B0FBF5F00601FFF700FB4F
:1014400000EBC00101EB001061684900B0FBF1F74F
:10145000FFF7F6FA00EBC00101EB001061684900EC
:10146000B0FBF1F0B0FBF5F06FF01801484307EB6B
:10147000800108EBC100B0FBF5F000F0F80006EBCE
:101480004006FFF7DDFA00EBC00101EB00106168D8
:101490004900B0FBF1F7FFF7D3FA00EBC00101EB15
:1014A000001061684900B0FBF1F0B0FBF5F06FF09F
:1014B0001801484307EB800108EBC100B0FBF5F0D1
:1014C00000F00700216830448860BDE8F081FFF734
:1014D000B7FA00EBC00101EB001061688900B0FBB6
:1014E000F1F6FFF7ADFA00EBC00101EB0010616807
:1014F0008900B0FBF1F0B0FBF5F06FF01801484344
:1015000006EB800108EB0110B0FBF5F000F0F006EF
:10151000FFF796FA00EBC00101EB0010616889004B
:10152000B0FBF1F0B0FBF5F006EB0016FFF788FA20
:1015300000EBC00101EB001061688900B0FBF1F71E
:10154000FFF77EFA00EBC00101EB00106168890033
:10155000B0FBF1F0B0FBF5F06FF01801484307EB7A
:10156000800108EB0110B0FBF5F000F00F00A9E7D7
:1015700000140140001001402DE9F0419846174643
:101580000E460446069D1DE0681C1BD02DB1FFF7DA
:10159000F5F8A0EB0800A84214D92068C16821F42E
:1015A000D071C1602068416921F0010141612020B2
:1015B00084F8390084F83A00002084F838000320C9
:1015C000BDE8F0812068006836EA000004D0002001
:1015D000B842D9D00020F3E70120F9E7FEE7000088
:1015E0000FB4054B10B503A9044A029800F028F87F
:1015F00010BC5DF814FB0000A51A000824000020B0
:101600000907090E002804DB00F1E02080F800142F
:10161000704700F00F0000F1E02080F8141D7047C3
:1016200002E008C8121F08C1002AFAD170477047AB
:10163000002001E001C1121F002AFBD17047000009
:101640002DE9FF4F8DB00F460546002606E0252800
:101650000BD0DDE90F1290476D1C761C287800280E
:10166000F5D111B03046BDE8F08F0024A246A14666
:101670000122EC4900E0044315F8013F203B02FA47
:1016800003F00842F7D128782A2810D06FF02F02F3
:101690002878A0F13001092914D80AEB8A0102EB5D
:1016A000410144F0020400EB010A6D1CF0E701CF98
:1016B0005FEA000A03D544F40054CAF1000A44F07A
:1016C00002046D1C28782E2817D115F8010F44F05C
:1016D00004042A280ED06FF02F022878A0F13001E0
:1016E00009290AD809EB890102EB410100EB010944
:1016F0006D1CF2E757F8049B6D1C28786C280FD0FE
:1017000006DC4C2817D068280DD06A2814D104E0D4
:10171000742810D07A280FD10DE044F400140AE0A8
:1017200044F4801401E044F440146978814202D109
:1017300004F580146D1C6D1C2A786E2A1FD00CDCF9
:10174000632A31D004DC002A8BD0582A11D1A3E0BF
:10175000642A68D0692A0CD165E0732A2ED004DC93
:101760006F2A73D0702A04D19BE0752A6FD0782A33
:101770006ED01046DDE90F129047761C50E1C4F39D
:101780000250022806D0032809D0042801CF09D02E
:10179000066045E101CFF117C0E9006140E101CFEA
:1017A00006803DE106703BE117F8040B8DF8000060
:1017B00000208DF80100EB46012003E057F804BB40
:1017C0004FF0FF3061074FF0000102D40DE008F147
:1017D0000101884649450FDA8045F8DB1BF80810FF
:1017E0000029F4D108E008F1010188468142FADBC2
:1017F0001BF808100029F6D1DDE90F23AAEB080039
:101800008146214600F036F9304400EB080604E03A
:10181000DDE90F121BF8010B9047B8F10108F7D270
:1018200021464846F7E00A21C4F302534FF0000B6B
:101830000891022B04D001CFC117032B09D00AE075
:10184000FF1D27F00707F7E8020108E032E01FE07C
:1018500020E000B2C117042B01D140B2C117031E12
:1018600071F1000307DA4FF0000CD0EB0C006CEBC9
:1018700001012D2302E0230504D52B238DF824300C
:10188000012303E0E30701D02023F7E7984658E05F
:101890000A2110E010210EE010204FF0000B0890FC
:1018A0000CE010214FF0000B44F004044FF0080945
:1018B000089103E008214FF0000B0891C4F3025394
:1018C000022B04D001CF0021032B06D006E0FF1D20
:1018D00027F00707F7E8020103E080B2042B00D1EC
:1018E000C0B24FF0000823072BD5702A07D0DDF8CF
:1018F00020C08CF0100C5CEA0B0C05D00EE04023ED
:101900008DF82430012308E050EA010306D030238B
:101910008DF824308DF8252002239846DDF820C06C
:101920008CF0080C5CEA0B0C0BD150EA010301D1DE
:10193000630706D530238DF824304FF00108A9F154
:101940000109582A04D038A20B9208AA0A920BE087
:101950003AA2F9E75B46089AFEF744FC0B9B9B5CB6
:101960000A9A521E0A92137050EA0102F2D10A98A2
:10197000ADEB000000F1200B600702D524F48034A9
:1019800001E04FF00109D94502DDA9EB0B0000E0B1
:10199000002000EB0B0141440890AAEB010AE00390
:1019A00006D4DDE90F232146504600F063F80644D3
:1019B0004FF0000908E009A911F80900DDE90F124C
:1019C000904709F10109761CC145F4DBE0030CD511
:1019D000DDE90F232146504600F04CF8064404E0B0
:1019E000DDE90F1230209047761C0899481E0890B8
:1019F0000029F5DC08E00A980A990078491C0A9148
:101A0000DDE90F129047761CBBF10001ABF1010B31
:101A1000F1DC21465046DDE90F2300F019F80644B9
:101A20006D1C1BE60928010030313233343536375E
:101A3000383961626364656600000000303132331A
:101A400034353637383941424344454600000000BA
:101A50002DE9F041044600251E461746880404D4AB
:101A600005E039462020B0476D1C641EF9D5284694
:101A7000BDE8F0812DE9F041044600251E46904660
:101A8000C80301D5302700E02027880404D505E0ED
:101A900041463846B0476D1C641EF9D52846BDE85E
:101AA000F081000013B54FF6FF730122694602482A
:101AB000FFF7ACFA00981CBD2C090020FEF76CFE65
:101AC000FFF796FBFFF734FBFFF7FEFAFFF76EFB1D
:101AD0004FF6FF7303222E492E48FFF797FA4FF473
:101AE000C060FEF7F3FB2A4C0025241F2A4E28462F
:101AF000C4F8085046F82000401CFF28FAD9A0601E
:101B00004FF4807224492548FEF72EFC24A0FFF7ED
:101B100067FDA560A1682DA056F82120FFF760FDA4
:101B2000A068401CA060FF28F4D927A0FFF758FD4B
:101B30001A48FF222949401CFEF708FC28A0FFF79D
:101B40004FFD264FA560A16820A057F82120FFF780
:101B500047FDA068401CA060FF28F4D91AA0FFF739
:101B60003FFDA56057F8250056F82510884202D0A1
:101B70002068401C20606D1CFF2DF3D9A5602068F3
:101B800018B124A0FFF72CFDFEE728A0FAE700001B
:101B9000040000202C090020F8000020000800D0DC
:101BA0000D0A2F2A205772697465206461746120C0
:101BB000746F2074686520534452414D206D656DEB
:101BC0006F7279202A2F0D0A0D0A00002530325835
:101BD0003A3078253038582000000000F804002002
:101BE0000D0A2F2A2052656164206261636B2064B4
:101BF0006174612066726F6D207468652053445271
:101C0000414D206D656D6F7279202A2F0D0A0D0AE6
:101C1000000000000D0A20534452414D20546573CA
:101C2000742046616C73650D0A0000000D0A205394
:101C30004452414D2054657374204F4B0D0A0000EF
:101C4000000000000000000001020304060708096C
:101C50000000000001020304781C000800000020BE
:101C60002800000020160008A01C00082800002002
:101C7000480D000030160008000000006173640089
:101C80000000000000000000000000000100000053
:101C900010000000000000000024F400000000001C
:04000005080001AD41
:00000001FF
