:020000040800F2
:100000004844002081020008E31000080B1000089B
:10001000E1100008B1030008D91500080000000035
:10002000000000000000000000000000C101000806
:10003000B3030008000000001D020008ED100008D6
:100040009B0200089B0200089B0200089B0200081C
:100050009B0200089B0200089B0200089B0200080C
:100060009B0200089B0200089B0200089B020008FC
:100070009B0200089B0200089B0200089B020008EC
:100080009B0200089B0200089B0200089B020008DC
:100090009B0200089B0200089B0200089B020008CC
:1000A0009B0200089B0200089B0200089B020008BC
:1000B0009B0200089B0200089B0200089B020008AC
:1000C0009B0200089B0200089B0200089B0200089C
:1000D0009B0200089B0200089B0200089B0200088C
:1000E0009B0200089B0200089B0200089B0200087C
:1000F0009B020008F51100089B0200089B02000803
:100100009B0200089B0200089B0200089B0200085B
:100110009B0200089B0200089B0200089B0200084B
:100120009B0200089B0200089B0200089B0200083B
:100130009B0200089B0200089B0200089B0200082B
:100140009B0200089B0200089B0200089B0200081B
:100150009B0200089B0200089B0200089B0200080B
:100160009B0200089B0200089B0200089B020008FB
:100170009B0200089B0200089B0200080000000090
:100180009B0200089B0200089B0200089B020008DB
:100190009B0200089B0200089B0200089B020008CB
:1001A0009B0200089B0200089B020008DFF80CD0AD
:1001B00000F0ECF800480047A91600084844002069
:1001C0002C4B19680868B0E8F04F80F30988BFF33A
:1001D0006F8F4FF0000080F311887047000000001F
:1001E00008480068006880F308884FF0000080F33A
:1001F000148862B661B6BFF34F8FBFF36F8F00DF15
:1002000000BF00BF08ED00E0DFF80C00016841F41A
:1002100070010160704700BF88ED00E0EFF30980D6
:10022000BFF36F8F134B1A681EF0100F08BF20ED3D
:10023000108A20E9F04F106009B44FF0500080F3AD
:100240001188BFF34F8FBFF36F8F01F0D1FD4FF0D7
:10025000000080F3118809BC19680868B0E8F04F05
:100260001EF0100F08BFB0EC108A80F30988BFF3AE
:100270006F8F70471C000020EFF30580704700006F
:100280000648804706480047FEE7FEE7FEE7FEE730
:10029000FEE7FEE7FEE7FEE7FEE7FEE7A111000846
:1002A000AD0100082DE9F05F0546002092469B460F
:1002B00088460646814640241BE02846414647467C
:1002C000224600F053F853465A46C01A914110D3C3
:1002D00011461846224600F03AF82D1A67EB01083D
:1002E0004F4622460120002100F031F817EB0009AB
:1002F0004E41201EA4F10104DFDC484631462A4667
:100300004346BDE8F09F40EA01039B0703D009E0A4
:1003100008C9121F08C0042AFAD203E011F8013BF1
:1003200000F8013B521EF9D27047D2B201E000F84A
:10033000012B491EFBD270470022F6E710B5134689
:100340000A4604461946FFF7F0FF204610BD202A52
:1003500004DB203A00FA02F1002070479140C2F11C
:10036000200320FA03F3194390407047202A04DB4E
:10037000203A21FA02F00021704721FA02F3D0401E
:10038000C2F120029140084319467047064C074DC0
:1003900006E0E06840F0010394E807009847103455
:1003A000AC42F6D3FFF706FF3822000858220008B7
:1003B000FEE77047704700002DE9F84FDFF890B175
:1003C00000224FF001084FF0030A4FF00F090BF124
:1003D000040E00BF0B6808FA02F42340A3426ED15A
:1003E0004D68022D01D0122D0ED1D50800EB850CE1
:1003F000DCF820505607F70E09FA07F6B5430E69E8
:10040000BE402E43CCF82060066855000F790AFAEA
:1004100005FC07F0030726EA0C06AF4037430760E8
:100420004E68012E05D0022E03D0112E01D0122EBF
:100430000ED18768CE6827EA0C07AE403E4386603F
:100440004668A6430C79C4F30014944034434460D6
:10045000C4688E6824EA0C04AE402643C6604C682B
:10046000E4006FD53B4C256845F480452560246841
:1004700022F0030504F480440094374C2E19D6F87A
:10048000084895072F0F09FA07F5AC43334DA842EA
:1004900001D100252EE0324DA84201D1012529E0ED
:1004A000304DA84201D1022524E02F4DA84201D1B0
:1004B00003251FE02D4DA84202D104251AE041E09A
:1004C0002B4DA84201D1052514E02A4DA84201D1A7
:1004D00006250FE0284DA84201D107250AE0274D47
:1004E000A84201D1082505E0254DA84201D10925E2
:1004F00000E00A25BD402543C6F80858DBF8004057
:100500005D464E689C43F60300D51C432C60DEF824
:10051000004075464E689C43B60300D51C432C60D2
:100520000B4D08352C684E689C43F60200D51C43E1
:100530002C60074D0C352C684E689C43B60200D5E4
:100540001C432C60521C102AFFF444AFBDE8F88F06
:10055000003C0140443802400030014000000240AD
:100560000004024000080240000C0240001002405B
:100570000014024000180240001C0240002002400B
:100580000024024001488068704700000C000020F1
:100590000248816802781144816070470C00002095
:1005A0000B4810B5016841F400710160016841F425
:1005B00080610160016841F480710160032000F0F6
:1005C0008DF8002000F006F800F03EF8002010BD85
:1005D000003C024010B5014688B000222D2000F0FA
:1005E0005DF82D2000F04CF813480024016841F418
:1005F00080710160006805A900F48070069068466B
:1006000000F04EF900F06CF90C494000B0FBF1F13C
:100610000C480B4A491E026040F2E732C0E903244D
:10062000C0E9011400F03EFB10B1012008B010BD7C
:10063000044800F053FBF9E74038024040420F0005
:1006400000200040180300200C4882B0016841F4EB
:1006500080410160006800F4804000900748001F5E
:10066000016841F0805101600068002200F0805074
:1006700000900F21901E02B000F010B844380240E4
:10068000002809DB00F01F02012191404009800091
:1006900000F1E020C0F8001170470000F0B40E4BEC
:1006A0001B680C46C3F30223C3F10705042D00D9D0
:1006B0000425191D072901D2002300E0DB1E0126B5
:1006C00006FA05F1491E214099409E40761E1640CB
:1006D0003143F0BC00F08ABF0CED00E0064900F0A9
:1006E000070208684FF6FF03184040EA0220034A59
:1006F00010430860704700000CED00E00000FA05B0
:100700002DE9F8431748016841F080510160006805
:10071000154F00F08050012600903E64FFF732FF35
:1007200005464FF47A78114C05E000BFFFF72AFF29
:10073000401B40450DD86068C003F7D57E64FFF7C5
:1007400021FF0546464607E0FFF71CFF401BB0426D
:1007500002D90320BDE8F88360688003F4D5002047
:10076000F8E700004038024000000E4200700040F0
:100770002DE9F0470E46050065D0DFF81481D8F862
:100780000000F7B200F00F00B04207D288F8007006
:10079000D8F8000000F00F00B04254D128683D4C5A
:1007A000810712D5400703D5206840F4E05020604F
:1007B0002878000703D5206840F460402060206856
:1007C000A96820F0F000084320602878C0072DD0E9
:1007D000304968680839012812D0022813D003284C
:1007E00011D00968890700292DDA216821F0030159
:1007F00001432160FFF7C6FE814641F2883A0EE0D0
:1008000009688903EFE709688901ECE7FFF7BAFE99
:10081000A0EB0901514502D90320BDE8F08720680B
:10082000696800F00C00B0EB810FEFD1D8F8001030
:10083000404601F00F01B14207D90770006800F08F
:100840000F00B04201D00120E7E72878400705D526
:100850002068E96820F4E050084320602878000709
:1008600006D52068296920F4604040EAC100206074
:1008700000F056F82168084AC1F30311515CC840E2
:10088000064908600020FFF7A5FE0020C5E700002C
:10089000003C024008380240EC210008180000200B
:1008A0000F2202600C4A136803F0030343601368CD
:1008B00003F0F0038360136803F4E053C36012682D
:1008C0004FF4E05303EAD20202610448006800F0EA
:1008D0000F0008607047000008380240003C0240EA
:1008E0000448054900680968044AC1F38221515C43
:1008F000C84070471800002008380240FC2100085A
:100900000448054900680968044AC1F34231515C52
:10091000C84070471800002008380240FC21000839
:10092000154810B5006810F00C02144813D0144993
:10093000042A0FD0082A0ED10F4C241F22682368E6
:1009400002F03F025B0207D52068C0F38810A0FBCD
:10095000010106E0084610BD2168C1F38811A1FB22
:1009600000010023FFF79EFC2168C1F30141491CEF
:100970004900B0FBF1F010BD083802400024F4003B
:1009800040787D012DE9F84F050076D02878DFF812
:10099000F8B2BE4CC00749D0DBF800105846C1F38E
:1009A0008101012908D00068C0F3810002280AD122
:1009B000201D0068400206D52068800336D568688F
:1009C0000028E2D032E06868B0F5803F10D0B0F582
:1009D000A02F206810D020F480302060206820F400
:1009E000802020606868A0B1FFF7CCFD06460CE0CF
:1009F000206840F48030F4E740F480202060F7E77E
:100A0000FFF7C0FD801B642873D820688003F7D5EA
:100A10000CE0FFF7B7FD064605E000BFFFF7B2FDAB
:100A2000801B6428F0D820688003F7D42878DFF88A
:100A3000608280074FF000093ED5DBF80010584671
:100A400011F00C0F09D00068C0F3810002280BD10F
:100A50008D48001F0068400206D42068800715D525
:100A6000E868012809D111E0E868B8B10120C8F8A8
:100A70000000FFF787FD064605E002E1FFF782FD73
:100A8000801B0228C0D820688007F7D52068296914
:100A900020F0F80040EAC10020600DE0C8F80090A6
:100AA000FFF770FD064604E0FFF76CFD801B02288F
:100AB0001FD820688007F7D42878000722D5724E07
:100AC000744869696C3671B101210160FFF75AFD04
:100AD000074604E0FFF756FDC01B022809D830681E
:100AE0008007F7D50EE0C0F80090FFF74BFD0746F2
:100AF00005E083E0FFF746FDC01B02287ED8306882
:100B00008007F7D42878400768D5DFF87CA1002754
:100B10000AF1380ADAF80000C0000BD4DAF8001045
:100B200041F08051CAF80010DAF80000012700F007
:100B300080500090584E3068C00510D4306840F4A2
:100B400080703060FFF71EFD009005E0FFF71AFD92
:100B50000099401A022851D83068C005F6D54A4E8F
:100B6000A868683601280FD00528306810D020F01A
:100B700001003060306820F004003060A868B8B12F
:100B8000FFF700FD00900FE0306840F00100F4E74F
:100B900040F004003060F7E7FFF7F4FC0099411AD9
:100BA00041F28830814264D830688007F4D50EE085
:100BB000FFF7E8FC009007E0FFF7E4FC0099411A1A
:100BC00041F28830814254D830688007F4D42FB184
:100BD000DAF8001021F08051CAF80010A869C0B3FB
:100BE000DBF80010C1F3810102294AD002284846EF
:100BF00007D0C8F86000FFF7C5FC00E039E0054603
:100C00003AE04746C8F86000FFF7BCFC064604E03F
:100C1000FFF7B8FC801B02282BD820688001F7D48E
:100C2000D5E907010843A96A1C4A490802EB0141BA
:100C30006A6A41EA8211084395F82C1040EA016182
:100C40001148001F016001203866FFF79BFC054634
:100C500005E014E0FFF796FC401B022809D8206845
:100C60008001F7D50BE000BFFFF78CFC401B02288A
:100C700002D90320BDE8F88F20688001F4D4002059
:100C8000F8E70120F6E7000008380240003802408B
:100C900000004742800E4742007000400000FFFF06
:100CA0007047704710B5040003D094F83D0010B1B0
:100CB00007E0012010BD002084F83C00204600F031
:100CC0000CF8022084F83D00211D206800F098FAFD
:100CD000012084F83D00002010BD70470168CA68FB
:100CE00042F00102CA600068816801F0070106292C
:100CF00003D0016841F00101016000207047704796
:100D000070B50446006801694FF00005C9438907C2
:100D100015D4C168C943890711D4E91E01610120B6
:100D20002077206880698007204602D0FFF7E7FF20
:100D300004E000F098F8204600F096F82577206847
:100D40000169C943490717D4C168C943490713D486
:100D50006FF004010161022020772068806910F49F
:100D6000407F204602D0FFF7CAFF04E000F07BF886
:100D7000204600F079F8257720680169C943090702
:100D800016D4C168C943090712D46FF00801016184
:100D9000042020772068C0698007204602D0FFF732
:100DA000AEFF04E000F05FF8204600F05DF8257724
:100DB00020680169C943C90617D4C168C943C90677
:100DC00013D46FF010010161082020772068C069FA
:100DD00010F4407F204602D0FFF791FF04E000F0BE
:100DE00042F8204600F040F8257720680169C943A1
:100DF000C90708D1C168C943C90704D1891E016167
:100E0000204600F033F820680169C943090609D477
:100E1000C168C943090605D46FF08001016120460D
:100E2000FFF73EFF20680169C943490609D4C1683C
:100E3000C943490605D46FF040010161204600F026
:100E40001FF820680169C94389060BD4C168C943EA
:100E5000890607D46FF0200101612046BDE870408B
:100E6000FFF71FBF70BD704770470000006803495F
:100E7000884201D1FFF78CBB704700000020004082
:100E8000704770B5040004D094F83900002510B103
:100E900006E0012070BD84F83850204600F022F8AA
:100EA000242084F839002068C16821F40051C16011
:100EB000204600F009FA2068016921F4904101619F
:100EC0002068416921F02A0141612068C16841F42C
:100ED0000051C160E563202084F8390084F83A00AD
:100EE000002070BD10B586B0044614216846FFF797
:100EF00023FA14492068884221D11348016841F03F
:100F000010010160006800F0100005900E481438D0
:100F1000016841F0010101600068694600F00100CC
:100F200005904FF4C06000900220019001200290D3
:100F300003200390072004900448FFF73DFA06B011
:100F400010BD000000100140443802400000024083
:100F50002DE9F843044690F839001F4616460D4621
:100F6000202850D1A5B19EB194F8380001284AD06C
:100F7000012084F838004FF00008C4F83C8021209C
:100F800084F83900FFF7FEFAA6848146E68426E05D
:100F90000120BDE8F883E08C401EE084A0684B4649
:100FA000B0F5805F4FF000024FF0800120460097BF
:100FB00003D000F0DFFAE8B90DE000F0DBFAC8B9C1
:100FC00028882168C0F308004860206908B16D1CBA
:100FD00005E0AD1C03E0216815F8010B4860E08CCA
:100FE0000028D8D14B46002240212046009700F02F
:100FF000C1FA08B10320CCE7202084F8390084F836
:1010000038800020C5E70220C3E7FEE710B59CB09A
:101010001C2217496846FFF776F90021684600F060
:1010200062FB144C12491C2220601C3107A8FFF7F8
:101030006AF9002107A800F056FB0D4960601C22E8
:1010400038310EA8FFF75FF900210EA800F04BFB26
:101050000749A0601C22543115A8FFF754F900215C
:1010600015A800F040FB044908601CB010BD00004A
:101070007C210008000000207C000020094808B501
:10108000016841F080010160016801F08001009178
:10109000016841F001010160006800F0010000906A
:1010A00008BD0000303802400C4810B50A49016004
:1010B0004FF4E1314160002181600C22C160C0E940
:1010C00004128161C161FFF7DCFE002803D0BDE896
:1010D0001040FFF76FB910BD00100140D80200208A
:1010E000FEE77047012000F0F2FAFBE710B5502050
:1010F00080F31188BFF34F8FBFF36F8F00F078FF3D
:1011000018B104494FF080500860002080F3118826
:1011100010BD000004ED00E030B593B0302168460A
:10112000FFF70AF914210CA8FFF706F91A48002561
:10113000016841F080510160006800F0805011901A
:101140001648016841F4404101600068022400F43F
:1011500040401190012003901020049000940694C8
:101160000820CDE90750B420CDE9090404200B90F4
:101170006846FFF707FCFFF7C3FA0CA90F2081E8C8
:1011800031004FF4A0500F90E002109005210CA800
:10119000FFF7EEFA13B030BD403802400070004057
:1011A0001048016841F4700101600F48016841F086
:1011B000010101600C4A00210832116002680B4BEA
:1011C0001A400260031D0A4A1A60026822F4802253
:1011D000026005480C3001600249580680390860F9
:1011E0007047000088ED00E000380240FFFFF6FE87
:1011F000103000240148FFF783BD000018030020D1
:10120000F0B50268254C264D264E274F274B4FF050
:10121000804CA04209D0604507D0A84205D0B0421A
:1012200003D0B84201D0984204D122F0700E4A682F
:1012300042EA0E02A0421BD0604519D0A84217D046
:10124000B04215D0B84213D0984211D0184DA842E0
:101250000ED0184DA8420BD0174DA84208D0174DFC
:10126000A84205D0164DA84202D0164DA84203D17F
:1012700022F44075CA682A434D6922F080022A434D
:1012800002608A68C2620A688262A04201D0984203
:1012900001D10969016301214161F0BD00000140F4
:1012A0000004004000080040000C00400004014021
:1012B0000040014000440140004801400018004047
:1012C000001C0040002000402DE9F0410446006869
:1012D0000169E26821F44051114301612169A0686C
:1012E000E26908436169114322680843D16849F201
:1012F0000C6399430143D16020684169A26921F4DC
:10130000407111434161E2696425B2F5004F97488D
:10131000974922684FF032083FD08A4201D082427A
:101320007CD1FFF7EDFA00EBC00101EB0010616822
:101330008900B0FBF1F6FFF7E3FA00EBC00101EB27
:10134000001061688900B0FBF1F0B0FBF5F06FF0C0
:101350001801484306EB800108EB0110B0FBF5F0E3
:1013600000F0F006FFF7CCFA00EBC00101EB001033
:1013700061688900B0FBF1F0B0FBF5F006EB0016F8
:10138000FFF7BEFA00EBC00101EB001061688900B5
:10139000B0FBF1F7FFF7B4FAD2E08A4201D0824203
:1013A0003DD1FFF7ADFA00EBC00101EB0010616821
:1013B0004900B0FBF1F0B0FBF5F00601FFF7A0FA31
:1013C00000EBC00101EB001061684900B0FBF1F7D0
:1013D000FFF796FA00EBC00101EB001061684900CD
:1013E000B0FBF1F0B0FBF5F06FF01801484307EBEC
:1013F000800108EBC100B0FBF5F000F0F80006EB4F
:101400004006FFF77DFA00EBC00101EB00106168B8
:101410004900B0FBF1F7FFF773FA3CE055E0FFF746
:101420005FFA00EBC00101EB001061684900B0FBFE
:10143000F1F0B0FBF5F00601FFF752FA00EBC00146
:1014400001EB001061684900B0FBF1F7FFF748FAC3
:1014500000EBC00101EB001061684900B0FBF1F046
:10146000B0FBF5F06FF01801484307EB800108EB83
:10147000C100B0FBF5F000F0F80006EB4006FFF706
:101480002FFA00EBC00101EB001061684900B0FBCE
:10149000F1F7FFF725FA00EBC00101EB00106168DE
:1014A0004900B0FBF1F0B0FBF5F06FF018014843D4
:1014B00007EB800108EBC100B0FBF5F000F007007E
:1014C000216830448860BDE8F081FFF709FA00EB3D
:1014D000C00101EB001061688900B0FBF1F6FFF775
:1014E000FFF900EBC00101EB001061688900B0FB5F
:1014F000F1F0B0FBF5F06FF01801484306EB800106
:1015000008EB0110B0FBF5F000F0F006FFF7E8F98A
:1015100000EBC00101EB001061688900B0FBF1F045
:10152000B0FBF5F006EB0016FFF7DAF900EBC001AF
:1015300001EB001061688900B0FBF1F7FFF7D0F90B
:1015400000EBC00101EB001061688900B0FBF1F015
:10155000B0FBF5F06FF01801484307EB800108EB92
:101560000110B0FBF5F000F00F00A9E700140140F6
:10157000001001402DE9F041984617460E460446FA
:10158000069D1DE0681C1BD02DB1FEF7FBFFA0EBF4
:101590000800A84214D92068C16821F4D071C16044
:1015A0002068416921F001014161202084F839005F
:1015B00084F83A00002084F838000320BDE8F08168
:1015C0002068006836EA000004D00020B842D9D074
:1015D0000020F3E70120F9E7FEE70000014A024995
:1015E00000F023B86D160008800000200907090EDE
:1015F000002804DB00F1E02080F80014704700F0C0
:101600000F0000F1E02080F8141D704702E008C8C8
:10161000121F08C1002AFAD170477047002001E06C
:1016200001C1121F002AFBD170472DE9F041164677
:101630000F460446002503E03946B047641C6D1C84
:1016400020780028F8D12846BDE8F0814FF47A745C
:1016500003A0FFF7C3FF204600F039F8F8E70000C9
:10166000626C696E6B202D2D0D0A000013B54FF6CC
:10167000FF73012269460248FFF76AFC00981CBD0F
:10168000D80200204FF47A7403A0FFF7A7FF20468A
:1016900000F01DF8F8E700006C697374656E657200
:1016A000202D2D2D0D0A0000FEF77AFFFFF734FDE7
:1016B000FFF7E4FCFFF7F8FCFFF7A8FC00F00EF8DA
:1016C000FEE701460020842900D0C81C704710B5F1
:1016D00000B9012000F028FB002010BD10B500F07B
:1016E00049FB002010BD7FB50D4604464169B0F9A5
:1016F000080081B1A16971B1FFF7E3FFD4E90512D8
:101700008DE80700D4E900102B46226900F045FC63
:10171000039004B070BDFFF7D4FF03A9CDE9000129
:10172000208A2B4682B2D4E9001000F009FC01287F
:1017300001D00020EDE70398EBE700002DE9F04130
:10174000184C0F46054666692068001D00F028FA0F
:1017500038B9206890F82C1001208840A169814395
:10176000A161681C07D137B12168BDE8F0410E487E
:10177000091D00F059BA20683544B542456021681A
:1017800005D2A068BDE8F041091D00F035BA6068D7
:10179000091D00F031FA206B854200D22563BDE8B7
:1017A000F08100001C000020340400202DE9F041ED
:1017B000054600F045FA2E4C2069401C2061206847
:1017C0002C4F10B1E06940B32DE02560206901285D
:1017D00029D1002606EB860007EB800000F0FEF919
:1017E000761C072EF6D323488C3000F0F7F92148F9
:1017F000A03000F0F3F91F48B43000F0EFF91D48B5
:10180000C83000F0EBF91B48DC3000F0E7F919486C
:101810008C3060601430A06005E02068E96AC06A1E
:10182000884200D82560E06A401CE062E96A012035
:10183000A26988401043A06101EB810007EB8000A2
:10184000291D00F0F1F900F01BFAE06900280CD026
:101850002068E96AC06A884207D207494FF0805081
:101860000860BFF34F8FBFF36F8FBDE8F0810000BA
:101870001C0000205803002004ED00E010B50446D1
:1018800090F8510058B101280CD002280FD05020F8
:1018900080F31188BFF34F8FBFF36F8FFEE7206B8C
:1018A00000F002FA2046BDE8104000F0FDB910BD7E
:1018B00010484FF47051420706D0C01D0D4920F06A
:1018C0000700411AC1F570510B4A00230144C2E9D7
:1018D00000030839103A21F0070111604B600B60DA
:1018E0000B1AC0E9001393604FF000405360D060C2
:1018F000704700004804002068000020144E154C7A
:10190000A6F1C8074FF08058DFF84C9012E000BFF6
:1019100000F096F9F068C568281D00F041F92069CB
:10192000401E2061E068401EE06000F0A9F92846F2
:10193000FFF7A4FFE0680028EAD138680128F9D948
:10194000C9F80080BFF34F8FBFF36F8FF2E700003D
:10195000200400201C00002004ED00E02DE9F047E9
:101960009A46DDE9098481466FF00303206B03EB9F
:1019700082021044089D20F00706700707D050200F
:1019800080F31188BFF34F8FBFF36F8FFEE72318EB
:101990000A5C83F834200A5C12B1401C1028F6D38C
:1019A000002784F84370072D00D30625E562C4E9BB
:1019B0001157201D00F01DF904F1180000F019F96D
:1019C0002461C5F107006462A061E76484F8507087
:1019D00052464946304600F0BFF82060B8F1000F8B
:1019E00001D0C8F80040BDE8F087000030B51149CB
:1019F00000E011460A688242FBD34B685C188442BF
:101A000003D1406818444860084643681C18944253
:101A100009D1084C103C2468A24209D052681A44EB
:101A200042600A6812680260814200D0086030BDDE
:101A30000460F9E76800002006484168096829B198
:101A40004168C968C9684968016370474FF0FF3150
:101A5000FAE700001C00002008484068401C4FF0D6
:101A6000500080F3118804D0BFF34F8FBFF36F8F06
:101A7000FEE7BFF34F8FBFF36F8FFEE770000020CC
:101A80002DE9F0410546002700F0AAF9314E3068F3
:101A900008B9FFF70DFFF06805424BD1C5B3083513
:101AA00068070ED005F00700C0F10800054468077C
:101AB00007D0502080F31188BFF34F8FBFF36F8F93
:101AC000FEE72DB37068854234D8224810300146B5
:101AD0000C6801E020460C466168A94202D22168E8
:101AE0000029F7D131688C4224D007682168016051
:101AF00060680837411B10290FD96019420708D0C8
:101B0000502080F31188BFF34F8FBFF36F8FFEE734
:101B100010E041606560FFF769FF61687068401A16
:101B20007060B268904200D2B060F068014300205B
:101B3000C4E9000100F0C0FA780707D0502080F314
:101B40001188BFF34F8FBFF36F8FFEE73846BDE8B4
:101B5000F08100005800002010B5031F4FF0807482
:101B60001C601B1F21F001011960191F044B0B6041
:101B700014390A60091F6FF0020244380A6010BD70
:101B8000591A000803A0FFF729FD6420FFF79FFD05
:101B9000F8E7000074616C6B202D2D0D0A00000029
:101BA000D0E9013201699A60D0E901235A604A689C
:101BB000824201D182684A60002202610868401EA8
:101BC0000860086870470000034B036003F154008D
:101BD00008608020106070478400002000F1080138
:101BE0004FF0FF32C0E90112C160016100210160C4
:101BF000704700210161704730B50B685A1C02D054
:101C000000F1080202E0026904E0224654682568F7
:101C10009D42FAD953684B6099608A6051600861AF
:101C20000168491C016030BD42684A6093688B605E
:101C300093685960916008610168491C01607047B0
:101C4000502080F31188BFF34F8FBFF36F8F0A4985
:101C50004868401C486001280CD10848006810F012
:101C6000FF0F07D0502080F31188BFF34F8FBFF3D1
:101C70006F8FFEE7704700007000002004ED00E069
:101C80000849486828B1401E486001D180F3118896
:101C90007047502080F31188BFF34F8FBFF36F8FD1
:101CA000FEE700007000002070B5002827D0144D1A
:101CB000A0F108046168E868014207D1502080F370
:101CC0001188BFF34F8FBFF36F8FFEE722683AB1E1
:101CD000502080F31188BFF34F8FBFF36F8FFEE763
:101CE0008143616000F07CF860686968084468605E
:101CF0002046FFF77BFEBDE8704000F0DDB970BD07
:101D0000580000204FF0E020002101618161054969
:101D10004FF47A720968B1FBF2F1491E4161072163
:101D2000016170471800002010B5020014D00F4860
:101D3000806B38B1502080F31188BFF34F8FBFF311
:101D40006F8FFEE700F04CF800211046FFF7F6FC1D
:101D500000F0B2F9002807D105494FF08050086023
:101D6000BFF34F8FBFF36F8F10BD00001C0000202A
:101D700004ED00E010B586B00024039405AA04A980
:101D800003A80494FFF720FFDDE903010094CDE9E7
:101D9000011000230EA11048059A00F0FEF80F492B
:101DA0000028486311D0502080F31188BFF34F8F73
:101DB000BFF36F8F4FF0FF3008630120C8614C61A3
:101DC00006B0BDE8104000F041B806B010BD0000FC
:101DD00049444C4500000000FD1800081C0000208C
:101DE0000248816B491C8163704700001C00002081
:101DF0001448816B11B10121416270470021416299
:101E00008169B1FA81F1C1F11F0101EB81020E4933
:101E100051F822306BB101EB820101F108034A68ED
:101E200052684A609A4201D152684A60D1680160A2
:101E30007047502080F31188BFF34F8FBFF36F8F2F
:101E4000FEE700001C000020580300201CB53748A6
:101E50000168374A914207D1502080F31188BFF3BF
:101E60004F8FBFF36F8FFEE700683149491E8842EC
:101E700007D1502080F31188BFF34F8FBFF36F8FCE
:101E8000FEE72C4908780190FF20087008788DF84B
:101E900000009DF800009DF8002000F0F000904246
:101EA00007D0502080F31188BFF34F8FBFF36F8F9F
:101EB000FEE79DF80000204B00F05000187007204E
:101EC000986005E09DF8002052008DF80020401E2B
:101ED0009DF800201206F5D49860032807D0502002
:101EE00080F31188BFF34F8FBFF36F8FFEE74FF47E
:101EF00040709860019808700C482030016841F4E7
:101F000070010160016841F070410160FFF7FAFE65
:101F100000205860FEF778F90848016841F0404118
:101F20000160FEF75DF900201CBD000000ED00E03F
:101F300071C20F4100E400E07000002034EF00E0C7
:101F40002DE9FF5F8346DDE90E87994616468A46EE
:101F50009000FFF795FD05001CD05420FFF790FD81
:101F6000040014D00020256384F85100CDE902401C
:101F7000CDE900874B46324651465846FFF7EEFC06
:101F80002046FFF713FC012004B0BDE8F09F28466F
:101F9000FFF78AFE4FF0FF30F6E7F0B585B0DDE9D8
:101FA0000B640A9DA6B1DCB1542700972663022674
:101FB00084F85160002604AFCDE90246CDE9005710
:101FC000FFF7CCFC2046FFF7F1FB049805B0F0BD0D
:101FD000502080F31188BFF34F8FBFF36F8FFEE760
:101FE000502080F31188BFF34F8FBFF36F8FFEE750
:101FF0002DE9F0412E4C0027A06B40B1206A401C17
:102000002062606A00B101273846BDE8F081666948
:10201000761C666113D16068006838B1502080F387
:102020001188BFF34F8FBFF36F8FFEE76068A16821
:102030006160A060A06A401CA062FFF7FDFC206BFD
:10204000DFF87080864209D36068006880B16068FC
:10205000C068C568686886420DD220632068C06A7F
:1020600000EB800158F821000128CAD90127C8E7F0
:102070004FF0FF30F1E7281DFFF792FDA86A18B175
:1020800005F11800FFF78CFDE86A0121A269814083
:102090001143A16100EB800108EB8100291DFFF7CE
:1020A000C3FDE86A2168C96A8842CDD30127CBE71E
:1020B0001C000020580300202DE9F0472C4D00247F
:1020C0002746A86B38B1FFF7BBFDA86B401EA8637D
:1020D000A86B40B146E0502080F31188BFF34F8FCA
:1020E000BFF36F8FFEE72969224E0120D1B3A6F11D
:1020F000B40980463068E8B1F068C46804F118009B
:10210000FFF74EFD201DFFF74BFDE06AAA6908FAB4
:1021100000F11143A96100EB800109EB8100211D51
:10212000FFF782FDE06A2968C96A8842E2D3C5F8F0
:102130002480DFE70CB1FFF77FFC2C6A44B14646F0
:10214000FFF756FF00B16E62641EF9D100202862CD
:10215000686A38B10849012738070860BFF34F8F14
:10216000BFF36F8FFFF78CFD3846BDE8F0870000A6
:102170001C0000200C04002004ED00E004220008F4
:10218000E5100008000000000000000080000000D2
:1021900000000000000000001C220008851B000851
:1021A000FDFF0000000000008000000000000000B3
:1021B000000000002822000885160008FDFF00002E
:1021C000000000008000000000000000000000008F
:1021D000102200084D160008FDFF0000000000005E
:1021E000800000000000000000000000000000006F
:1021F00000000000010203040607080900000000B7
:102200000102030464656661756C745461736B004C
:10221000626C696E6B5F7461736B000074616C6BF0
:1022200065725F7461736B006C697374656E65725F
:102230005F7461736B0000005822000800000020EA
:10224000840000000C160008DC2200088400002036
:10225000C44300001C16000800000000000000003D
:10226000000000000100000010000000000000005D
:102270000024F40000000000000000000000000046
:10228000000000000000000000000000000000004E
:10229000000000000000000000000000000000003E
:1022A000000000000000000000000000000000002E
:1022B000000000000000000000000000000000001E
:1022C000000000000000000000000000AAAAAAAA66
:0C22D00000000000000000000000000002
:04000005080001AD41
:00000001FF
