:020000040800F2
:10000000D0110020DD010008FB0E0008670E00087B
:10001000F90E00086D0200086110000800000000E1
:100020000000000000000000000000004501000882
:100030006F0200080000000089010008050F000899
:10004000F7010008F7010008F7010008F7010008B0
:10005000F7010008F7010008F7010008F7010008A0
:10006000F7010008F7010008F7010008F701000890
:10007000F7010008F7010008F7010008F701000880
:10008000F7010008F7010008F7010008F701000870
:10009000F7010008F7010008F7010008F701000860
:1000A000F7010008F7010008F7010008F701000850
:1000B000F7010008F7010008F7010008F701000840
:1000C000F7010008F7010008F7010008F701000830
:1000D000F7010008F7010008F7010008F701000820
:1000E000F7010008F7010008F7010008F701000810
:1000F000F7010008F7010008F7010008F701000800
:10010000F7010008F7010008F7010008F7010008EF
:10011000F7010008F7010008F7010008C90F0008FF
:10012000F7010008F7010008F7010008F7010008CF
:10013000DFF80CD000F088F800480047A110000854
:10014000D0110020224B19680868B0E8F00F80F346
:100150000988BFF36F8F4FF0000080F311884EF0D5
:100160000D0E70470000000006480068006880F32C
:10017000088862B661B6BFF34F8FBFF36F8F00DFA1
:1001800000BF00BF08ED00E0EFF30980BFF36F8F01
:100190000F4B1A6820E9F00F106008B54FF05000BF
:1001A00080F31188BFF34F8FBFF36F8F01F0DAFA3E
:1001B0004FF0000080F31188BDE808401968086816
:1001C000B0E8F00F80F30988BFF36F8F704700BF6E
:1001D00014000020EFF305807047000006488047B8
:1001E00006480047FEE7FEE7FEE7FEE7FEE7FEE71C
:1001F000FEE7FEE7FEE7FEE7810F00083101000899
:1002000040EA01039B0703D009E008C9121F08C098
:10021000042AFAD203E011F8013B00F8013B521E18
:10022000F9D27047D2B201E000F8012B491EFBD28F
:1002300070470022F6E710B513460A4604461946F1
:10024000FFF7F0FF204610BD064C074D06E0E068C2
:1002500040F0010394E8070098471034AC42F6D30D
:10026000FFF76AFF841A0008A41A0008FEE7704727
:10027000704770B5040003D094F8200010B104E07A
:10028000012070BD204600F081F82068016821F04F
:100290000201016000F0ACF90546052604E000F01B
:1002A000A7F9401B0A2811D8206840688007F6D4B7
:1002B0002068016841F00101016000F099F90546EC
:1002C0000BE000F095F9401B0A2806D9606A40F45B
:1002D0000030606284F82060D2E720684068C00780
:1002E000EFD0207E0128206801683DD021F08001F8
:1002F0000160607E01282068016838D021F040014B
:100300000160A07E01282068016833D021F020011F
:100310000160E07E0128206801682ED041F01001C4
:100320000160207F01282068016829D021F00801A0
:100330000160607F01282068016824D021F0040159
:100340000160D4E902010843D4E9041211430843CF
:100350006168491E08432168C8610020606201206D
:1003600084F82000002070BD41F08001C0E741F01A
:100370004001C5E741F02001CAE721F01001CFE7B5
:1003800041F00801D4E741F00401D9E710B586B087
:100390000021009101910291039100681349884264
:1003A00022D11348C16941F00071C161C16901F0F6
:1003B00000710491816941F00401816180690D4CF3
:1003C00000F0040004904FF400600090694620465D
:1003D00000F012F8A0140090022001900320039076
:1003E0006946204600F008F806B010BD00640040E1
:1003F00000100240000801402DE9F84FDFF8C891D5
:10040000002409F1040A0AF1040B23460F270BF11B
:10041000040ED1E00125A54006EA0502AA4276D1E4
:10042000DFF8A8C14E68A6EB0C0866452BD00DDCA2
:10043000032E34D005DC36B3012E19D0022E2FD175
:100440001BE0112E16D0122E2AD119E0B8F5881F04
:1004500019D006DCB8F5803F15D0B8F5801F1FD144
:1004600011E0B8F5001F0ED0B8F5041F18D10AE04E
:10047000CB6815E0CB681B1D12E0CB6808330FE09A
:10048000CB680C330CE08B682BB1012B4FF00803C9
:1004900003D0456104E0042302E0056100E000238D
:1004A000FF2A01D8064601E000F104064FEA840560
:1004B00001D9A5F12005D6F8008007FA05FC28EA45
:1004C0000C0803FA05F548EA0508C6F800804D68EF
:1004D000ED0070D53E4DAE6946F00106AE61AD69E6
:1004E00024F0030605F0010500953A4D06EB050CD6
:1004F000DCF80850A607360F07FA06F825EA0805C3
:10050000DFF8D480404503D14FF0000825E052E0E9
:10051000DFF8C880404502D14FF001081DE0DFF848
:10052000C080404502D14FF0020816E0DFF8B480E9
:10053000404502D14FF003080FE0DFF8AC804045A2
:1005400002D14FF0040808E0DFF8A080404502D156
:100550004FF0050801E04FF0060808FA06F848EAEF
:100560000508CCF808804D68D9F80060ED034D46C9
:1005700001D5164300E096432E604D68DAF800601E
:10058000AD03554601D5164300E096432E604D68F5
:10059000DBF80060ED025D4601D5164300E09643AE
:1005A0002E604D68DEF80060AD02754601D5164339
:1005B00000E096432E60641C0A681646E2407FF411
:1005C00029AFBDE8F88F00000004014000001110C1
:1005D000001002400000014000080140000C0140F2
:1005E000001001400014014000180140001C0140AF
:1005F00001488068704700000400002002488168BC
:10060000027811448160704704000020074810B54B
:10061000016841F010010160032000F095F800200E
:1006200000F006F800F03EF8002010BD0020024067
:1006300000B5014687B00022372000F065F837206A
:1006400000F054F81348C16941F02001C161C0694C
:1006500005A900F020000690684600F01DF900F0A2
:100660003BF90D494000B0FBF1F10D480B4A491E22
:100670000260416040F2E7320021C0E9032181605D
:1006800000F002FB10B1012007B000BD044800F0EB
:1006900017FBF9E70010024040420F000014004031
:1006A0009C0000200F4808B5816941F0010181617B
:1006B000816901F001010091C16941F08051C1617E
:1006C000C069002200F0805000900F21901E00F0C1
:1006D0001BF80548416821F0E06141F0007141607C
:1006E00008BD00000010024000000140002809DBA6
:1006F00000F01F02012191404009800000F1E0203C
:10070000C0F8001170470000F0B40E4B1B680C4697
:10071000C3F30223C3F10705042D00D90425191DD5
:10072000072901D2002300E0DB1E012606FA05F1AD
:10073000491E214099409E40761E16403143F0BC30
:1007400000F08FBC0CED00E0064900F007020868DD
:100750004FF6FF03184040EA0220034A10430860A6
:10076000704700000CED00E00000FA052DE9F047AD
:100770000F46050061D0434E306800F00700B842D4
:1007800009D2306820F0070038433060306800F04C
:100790000700B84251D128683B4C810712D5400769
:1007A00003D5606840F4E06060602878000703D5F6
:1007B000606840F4605060606068A96820F0F000F4
:1007C000084360602878C00728D06868012810D0E6
:1007D0002168022810D0890700292EDA616821F0EB
:1007E000030101436160FFF703FF804641F288394E
:1007F0000DE021688903EFE78901EDE7FFF7F8FED7
:10080000A0EB0801494502D90320BDE8F0876068E4
:10081000696800F00C00B0EB810FEFD1306800F098
:100820000700B8420BD9306820F007003843306029
:10083000306800F00700B84201D00120E5E72878D1
:10084000400705D56068E96820F4E060084360600F
:100850002878000706D56068296920F4605040EACE
:10086000C100606000F048F86168084AC1F30311F4
:10087000515CC8400649086006480068FFF7D8FE8A
:100880000020C2E70020024000100240601A000869
:1008900010000020080000200F2202600C4A53685C
:1008A00003F003034360536803F0F003836053686D
:1008B00003F4E063C36052684FF4E06303EAD202DA
:1008C00002610448006800F00700086070470000FB
:1008D00000100240002002400448054900684968B1
:1008E000044AC1F30221515CC84070471000002047
:1008F00000100240701A000812A185B00FC98DE8DF
:100900000F0014A0144A006804905168134801F0C5
:100910000C03042B10D0082B0ED1C1F38343C90361
:100920001DF803000AD5516804AAC1F34041515C87
:100930000A4A5043B0FBF1F005B0704708494843FC
:10094000FAE7000002030405060708090A0B0C0D6C
:100950000E0F1010010200000010024000127A0079
:1009600000093D002DE9F84F040070D02078C04DFB
:10097000C00749D06868C0F38100012807D06868C3
:10098000C0F38100022809D16868C00306D5286831
:10099000800339D560680028E7D035E06068B0F59D
:1009A000803F0BD010B1B0F5A02F11D0286820F4F3
:1009B00080302860286820F4802002E0286840F415
:1009C00080302860606890B1FFF712FE06460AE0AA
:1009D000286840F480202860F0E700BFFFF708FE99
:1009E000801B642873D828688003F7D50CE0FFF7D4
:1009F000FFFD064605E000BFFFF7FAFD801B6428F7
:100A0000F0D828688003F7D420789A4E80074FF0FA
:100A100001094FF0000839D5686810F00C0F07D0B5
:100A20006868C0F38100022809D16868C00306D451
:100A30002868800714D52069012808D110E02069B2
:100A4000B0B1C6F80090FFF7D3FD074605E00AE114
:100A5000FFF7CEFDC01B0228C4D828688007F7D551
:100A60002868616920F0F80040EAC10028600DE0C4
:100A7000C6F80080FFF7BCFD074604E0FFF7B8FDAD
:100A8000C01B022823D828688007F7D420780007E5
:100A90002CD57948A169D9B1C0F80090FFF7A8FD1D
:100AA000074604E0FFF7A4FDC01B02280FD8686AC0
:100AB0008007F7D571484FF4FA510068B0FBF1F0A8
:100AC000009000BF0098411E0091FAD20EE080E035
:100AD000C0F80080FFF78CFD074604E0FFF788FDB3
:100AE000C01B022875D8686A8007F7D420784007B1
:100AF00060D5E8690027C00008D4E86940F080505C
:100B0000E861E869012700F0805000905C480168C6
:100B1000C90513D40168834641F480710160FFF771
:100B200067FD824606E000BFFFF762FDA0EB0A000A
:100B300064284ED8DBF80000C005F5D5E068012830
:100B40000AD008B1052813D0286A20F001002862D5
:100B5000286A20F0040002E0286A40F001002862C0
:100B6000E06841F2883B98B1FFF742FD82460BE016
:100B7000286A40F004002862EEE700BFFFF738FD66
:100B8000A0EB0A0159455AD8286A8007F6D50CE02F
:100B9000FFF72EFD824605E0FFF72AFDA0EB0A01D4
:100BA00059454CD8286A8007F6D41FB1E86920F06F
:100BB0008050E861E06988B36968C1F38101022966
:100BC00044D00228C6F8608004D0FFF711FD044627
:100BD00038E034E0FFF70CFD074604E0FFF708FDBE
:100BE000C01B02282BD828688001F7D4206AB0F5F2
:100BF000803F05D16868A16820F400300843686030
:100C0000D4E908010843696821F474110843686055
:100C1000C6F86090FFF7ECFC044606E025E000BF54
:100C2000FFF7E6FC001B022809D828688001F7D5E9
:100C30001BE000BFFFF7DCFC001B022802D90320E9
:100C4000BDE8F88F28688001F4D40EE00128F7D0C1
:100C50006868226A00F48031914204D1616A00F42C
:100C60007010884201D00120EAE70020E8E7000088
:100C70000010024000004242800442421000002066
:100C8000007000407047704710B5040003D094F81E
:100C90003D0010B107E0012010BD002084F83C00A9
:100CA000204600F00CF8022084F83D00211D206849
:100CB00000F090F9012084F83D00002010BD70473D
:100CC0000168CA6842F00102CA600068816801F0E8
:100CD0000701062903D0016841F0010101600020ED
:100CE0007047704770B50446006801694FF0000511
:100CF000C943890715D4C168C943890711D4E91EBE
:100D0000016101202077206880698007204602D099
:100D1000FFF7E7FF04E000F098F8204600F096F8AF
:100D2000257720680169C943490717D4C168C943B9
:100D3000490713D46FF00401016102202077206875
:100D4000806910F4407F204602D0FFF7CAFF04E01C
:100D500000F07BF8204600F079F8257720680169DB
:100D6000C943090716D4C168C943090712D46FF0F3
:100D700008010161042020772068C06980072046AF
:100D800002D0FFF7AEFF04E000F05FF8204600F06D
:100D90005DF8257720680169C943C90617D4C16881
:100DA000C943C90613D46FF01001016108202077F0
:100DB0002068C06910F4407F204602D0FFF791FF01
:100DC00004E000F042F8204600F040F82577206863
:100DD0000169C943C90708D1C168C943C90704D11A
:100DE000891E0161204600F033F820680169C9437B
:100DF000090609D4C168C943090605D46FF080010A
:100E000001612046FFF73EFF20680169C94349069A
:100E100009D4C168C943490605D46FF04001016196
:100E2000204600F01FF820680169C94389060BD4E9
:100E3000C168C943890607D46FF0200101612046CB
:100E4000BDE87040FFF71FBF70BD704770470000DE
:100E500000680349884201D1FFF7D0BB704700000A
:100E6000001400407047FEE70D4810B50B490160C3
:100E70001021416000218160C16001614161017602
:100E800041768176C17601774177FFF7F2F9002844
:100E900003D0BDE81040FFF7EBB910BD006400407F
:100EA0007400002000B585B0142206496846FFF79B
:100EB000A7F90021684600F012F90349086005B05F
:100EC00000BD00004C1A000800000020094808B5C9
:100ED000816941F020018161816901F02001009167
:100EE000816941F004018161806900F00400009093
:100EF00008BD000000100240FEE77047012000F02E
:100F0000E2F8FBE710B5502080F31188BFF34F8F54
:100F1000BFF36F8F00F0D4FC18B104494FF080503C
:100F20000860002080F3118810BD000004ED00E08F
:100F300030B58FB028216846FFF77BF914210AA845
:100F4000FFF777F901210804CDE90010002402948D
:100F500002250491CDE907504FF4E010099068464E
:100F6000FFF700FD0F20CDE90A056802CDE90C402E
:100F700002210AA80E94FFF7F9FB0FB030BD000064
:100F80000D48016841F00101016041680B4A1140C0
:100F9000416001680A4A11400160016821F4802122
:100FA0000160416821F4FE0141604FF41F0181603E
:100FB0000449C00308607047001002400000FFF8B9
:100FC000FFFFF6FE08ED00E00148FFF78BBE0000D2
:100FD0009C000020F0B502681C4B1D4D1D4E1E4F9D
:100FE0001E4C4FF0804C984209D0A04207D060457B
:100FF00005D0A84203D0B04201D0B84204D122F0BB
:10100000700E4A6842EA0E02984209D0A04207D008
:10101000604505D0A84203D0B04201D0B84203D108
:1010200022F44075CA682A434D6922F080022A439F
:1010300002608A68C2620A688262984201D0A04255
:1010400001D10969016301214161F0BD002C01401A
:101050000004004000080040000C00400034014043
:10106000FEE70907090E002804DB00F1E02080F804
:101070000014704700F00F0000F1E02080F8141D0C
:10108000704702E008C8121F08C1002AFAD1704751
:101090007047002001E001C1121F002AFBD17047F8
:1010A000FFF7B4FAFFF744FFFFF710FFFFF7DCFE8E
:1010B000FFF7F8FE00F00EF8FEE701460020842955
:1010C00000D0C81C704710B500B9012000F0E8FA44
:1010D000002010BD10B500F009FB002010BD3EB58A
:1010E00004460D46B0F90800FFF7E7FF02A9CDE975
:1010F0000001208A2B4682B2D4E9001000F0B4FB34
:10110000012801D000203EBD02983EBD2DE9F041EE
:10111000184C0F46054666692068001D00F006FA67
:1011200038B9206890F82C1001208840A1698143CB
:10113000A161681C07D137B12168BDE8F0410E48B4
:10114000091D00F02CBA20683544B542456021687D
:1011500005D2A068BDE8F041091D00F008BA60683A
:10116000091D00F004FA206B854200D22563BDE81A
:10117000F081000014000020B80100202DE9F041AA
:10118000054600F019FA2E4C2069401C20612068A9
:101190002C4F10B1E06940B32DE025602069012893
:1011A00029D1002606EB860007EB800000F0D1F97C
:1011B000761C072EF6D323488C3000F0CAF921485C
:1011C000A03000F0C6F91F48B43000F0C2F91D4845
:1011D000C83000F0BEF91B48DC3000F0BAF91948FD
:1011E0008C3060601430A06005E02068E96AC06A55
:1011F000884200D82560E06A401CE062E96A01206C
:10120000A26988401043A06101EB810007EB8000D8
:10121000291D00F0C4F900F0EFF9E06900280CD0B6
:101220002068E96AC06A884207D207494FF08050B7
:101230000860BFF34F8FBFF36F8FBDE8F0810000F0
:1012400014000020DC00002004ED00E010B504468E
:10125000006B00F0E5F92046BDE8104000F0E0B971
:1012600010484FF44061420706D0C01D0D4920F0E0
:101270000700411AC1F540610B4A00230144C2E94D
:1012800000030839103A21F0070111604B600B6030
:101290000B1AC0E9001393604FF000405360D06018
:1012A00070470000CC01002060000020144E154C57
:1012B000A6F1C8074FF08058DFF84C9012E000BF4D
:1012C00000F07AF9F068C568281D00F02FF9206950
:1012D000401E2061E068401EE06000F08DF9284665
:1012E000FFF7B4FFE0680028EAD138680128F9D98F
:1012F000C9F80080BFF34F8FBFF36F8FF2E7000094
:10130000A40100201400002004ED00E02DE9F047C6
:101310009A46DDE9098481466FF00303206B03EBF5
:1013200082021044089D20F00706700707D0502065
:1013300080F31188BFF34F8FBFF36F8FFEE7231841
:101340000A5C83F834200A5C12B1401C1028F6D3E2
:10135000002784F84370072D00D30625E562C4E911
:101360001157201D00F000F904F1180000F0FCF8FE
:101370002461C5F107006462A061E76484F85070DD
:1013800052464946304600F0BFF82060B8F1000FE1
:1013900001D0C8F80040BDE8F087000030B5114921
:1013A00000E011460A688242FBD34B685C18844215
:1013B00003D1406818444860084643681C189442AA
:1013C00009D1084C103C2468A24209D052681A4442
:1013D00042600A6812680260814200D0086030BD35
:1013E0000460F9E76000002006484168096829B1F7
:1013F0004168C968C9684968016370474FF0FF31A7
:10140000FAE700001400002008484068401C4FF034
:10141000500080F3118804D0BFF34F8FBFF36F8F5C
:10142000FEE7BFF34F8FBFF36F8FFEE7680000202A
:101430002DE9F0410546002700F08CF9314E306867
:1014400008B9FFF70DFFF06805424BD1C5B3083569
:1014500068070ED005F00700C0F1080005446807D2
:1014600007D0502080F31188BFF34F8FBFF36F8FE9
:10147000FEE72DB37068854234D82248103001460B
:101480000C6801E020460C466168A94202D221683E
:101490000029F7D131688C4224D0076821680160A7
:1014A00060680837411B10290FD96019420708D01E
:1014B000502080F31188BFF34F8FBFF36F8FFEE78B
:1014C00010E041606560FFF769FF61687068401A6D
:1014D0007060B268904200D2B060F06801430020B2
:1014E000C4E9000100F050FA780707D0502080F3DB
:1014F0001188BFF34F8FBFF36F8FFEE73846BDE80B
:10150000F08100005000002010B5031F4FF08074E0
:101510001C601B1F21F001011960191F024B0B6099
:10152000143940380A6010BD09140008D0E90132AE
:1015300001699A60D0E901235A604A68824201D168
:1015400082684A60002202610868401E08600868DC
:10155000704700F108014FF0FF32C0E90112C1608D
:10156000016100210160704700210161704730B5C1
:101570000B685A1C02D000F1080202E0026904E084
:101580002246546825689D42FAD953684B60996099
:101590008A60516008610168491C016030BD426881
:1015A0004A6093688B609368596091600861016834
:1015B000491C016070470000502080F31188BFF380
:1015C0004F8FBFF36F8F0A494868401C486001285D
:1015D0000CD10848006810F0FF0F07D0502080F3AE
:1015E0001188BFF34F8FBFF36F8FFEE77047000086
:1015F0006800002004ED00E00849486828B1401E5A
:10160000486001D180F311887047502080F3118821
:10161000BFF34F8FBFF36F8FFEE70000680000201D
:1016200070B5002827D0144DA0F108046168E8685F
:10163000014207D1502080F31188BFF34F8FBFF3D1
:101640006F8FFEE722683AB1502080F31188BFF314
:101650004F8FBFF36F8FFEE78143616000F07AF830
:1016600060686968084468602046FFF797FEBDE837
:10167000704000F089B970BD500000204FF0E020AC
:1016800000210161816105494FF47A720968B1FB5B
:10169000F2F1491E416107210161704710000020ED
:1016A00010B5020014D00F48806B38B1502080F381
:1016B0001188BFF34F8FBFF36F8FFEE700F04AF83A
:1016C00000211046FFF722FD00F05EF9002807D147
:1016D00005494FF080500860BFF34F8FBFF36F8F05
:1016E00010BD00001400002004ED00E01CB51548FA
:1016F0000024CDE900402346802213A1144800F0C5
:10170000B3F8012809D0401C1AD1502080F3118869
:10171000BFF34F8FBFF36F8FFEE7502080F3118828
:10172000BFF34F8FBFF36F8F06484FF0FF31343850
:1017300001630121C1614461BDE81C4000F040B873
:101740001CBD00004800002049444C45000000003A
:10175000AD1200080248816B491C8163704700008C
:10176000140000201448816B11B1012141627047BF
:10177000002141628169B1FA81F1C1F11F0101EBE0
:1017800081020E4951F822306BB101EB820101F167
:1017900008034A6852684A609A4201D152684A6016
:1017A000D16801607047502080F31188BFF34F8FDC
:1017B000BFF36F8FFEE7000014000020DC00002064
:1017C0001CB5264908780190FF20087008788DF82C
:1017D00000009DF800009DF8002000F0F00090420D
:1017E00007D0502080F31188BFF34F8FBFF36F8F66
:1017F000FEE79DF800001A4B00F05000187007201B
:10180000986005E09DF8002052008DF80020401EF1
:101810009DF800201206F5D49860032807D05020C8
:1018200080F31188BFF34F8FBFF36F8FFEE74FF444
:1018300040709860019808700A48016841F470018E
:101840000160016841F070410160FFF717FF00205F
:101850005860FEF789FC00201CBD000000E400E099
:101860006800002020ED00E02DE9FF5F8346DDE900
:101870000E87994616468A469000FFF7D9FD050067
:101880001AD05420FFF7D4FD040012D025630021A4
:10189000CDE90241CDE900874B46324651465846D4
:1018A000FFF734FD2046FFF769FC012004B0BDE8D6
:1018B000F09F2846FFF7B4FE4FF0FF30F6E7000038
:1018C0002DE9F0412E4C0027A06B40B1206A401C4E
:1018D0002062606A00B101273846BDE8F081666980
:1018E000761C666113D16068006838B1502080F3BF
:1018F0001188BFF34F8FBFF36F8FFEE76068A16859
:101900006160A060A06A401CA062FFF76DFD206BC3
:10191000DFF87080864209D36068006880B1606833
:10192000C068C568686886420DD220632068C06AB6
:1019300000EB800158F821000128CAD90127C8E727
:101940004FF0FF30F1E7281DFFF7F0FDA86A18B14E
:1019500005F11800FFF7EAFDE86A0121A26981405C
:101960001143A16100EB800108EB8100291DFFF705
:1019700016FEE86A2168C96A8842CDD30127CBE701
:1019800014000020DC0000202DE9F0472C4D00243D
:101990002746A86B38B1FFF70FFEA86B401EA8635F
:1019A000A86B40B146E0502080F31188BFF34F8F01
:1019B000BFF36F8FFEE72969224E0120D1B3A6F154
:1019C000B40980463068E8B1F068C46804F11800D2
:1019D000FFF7ACFD201DFFF7A9FDE06AAA6908FA30
:1019E00000F11143A96100EB800109EB8100211D89
:1019F000FFF7D5FDE06A2968C96A8842E2D3C5F8D5
:101A00002480DFE70CB1FFF7EFFC2C6A44B14646B7
:101A1000FFF756FF00B16E62641EF9D10020286204
:101A2000686A38B10849012738070860BFF34F8F4B
:101A3000BFF36F8FFFF7E0FD3846BDE8F087000089
:101A4000140000209001002004ED00E0781A000846
:101A5000FD0E0008000000000000000080000000F3
:101A6000000000000000000001020304060708094E
:101A7000000000000102030464656661756C745423
:101A800061736B00A41A00080000002074000000BD
:101A900082100008181B0008740000205C11000070
:101AA000921000080000000001000000100000007B
:101AB000000000000024F40000000000000000000E
:101AC0000000000000000000000000000000000016
:101AD0000000000000000000000000000000000006
:101AE00000000000000000000000000000000000F6
:101AF00000000000000000000000000000000000E6
:101B000000000000000000000000000000000000D5
:081B1000AAAAAAAA0000000025
:0400000508000131BD
:00000001FF
